:020000040800F2
:100000006836002059020008F3140008B1140008F3
:10001000EF140008490500085540000800000000E2
:10002000000000000000000000000000F13F000898
:10003000B505000800000000D5040008F33F0008E3
:1000400073020008730200087302000873020008BC
:100050007302000873020008B705000811060008C3
:100060002906000841060008590600087302000826
:10007000730200087302000873020008730200088C
:10008000730200087302000873020008730200087C
:10009000730200087302000873020008710600086A
:1000A000730200087302000873020008730200085C
:1000B000730200087302000873020008730200084C
:1000C000730200087302000873020008730200083C
:1000D000730200087302000873020008730200082C
:1000E000CF050008730200087302000873020008BD
:1000F000730200087302000873020008730200080C
:1001000073020008730200087302000873020008FB
:1001100073020008730200087302000873020008EB
:1001200073020008730200087302000873020008DB
:1001300073020008000000000000000073020008C5
:1001400073020008730200087302000873020008BB
:1001500073020008730200087302000873020008AB
:10016000730200087302000873020008730200089B
:100170007302000873020008000000000000000085
:10018000730200087302000800F002F800F03AF869
:100190000AA090E8000C82448344AAF10107DA45E2
:1001A00001D100F02FF8AFF2090EBAE80F0013F0FA
:1001B000010F18BFFB1A43F001031847484900001C
:1001C00068490000103A24BF78C878C1FAD85207AD
:1001D00024BF30C830C144BF04680C6070470000C1
:1001E0000023002400250026103A28BF78C1FBD840
:1001F000520728BF30C148BF0B6070471FB51FBDF5
:1002000010B510BD00F0E9F81146FFF7F7FF03F055
:100210003FFF00F007F903B4FFF7F2FF03BC00F063
:100220000FF9000072B6704762B67047EFF31080A6
:1002300072B6704780F31088704730BF704720BF98
:100240007047B0FA80F0704790FAA0F0B0FA80F0F2
:10025000704790FAA0F07047094880470948004766
:10026000FEE7FEE7FEE7FEE7FEE7FEE7FEE7FEE766
:10027000FEE7FEE704480549054A064B70470000C3
:100280000140000889010008681E0020683600202F
:10029000682600206826002053EA020C00F06980DE
:1002A0002DE9F04B4FF00006002B1FBFB3FA83F58A
:1002B00003FA05F424FA05F65E4012BF1643B2FABB
:1002C00082F502FA05F4C5F120051EBF22FA05FCED
:1002D00044EA0C04203556EA044C4FEA144418BF93
:1002E000641C4FF000084FF00009904271EB030CC2
:1002F00039D3002919BFB1FA81F701FA07F6B0FA2C
:1003000080F700FA07F6C7F120071EBF20FA07FCA6
:1003100046EA0C062037B6FBF4FCA7EB0507103FB6
:1003200007F01F0BCBF120060CFA0BFB2CFA06F69C
:1003300044BFB3460026202FA4BF5E464FF0000BFB
:100340005BEA060C08BF4FF0010B19EB0B09ABFB86
:10035000027C48EB0608C01B06FB02CC0BFB03CC5F
:1003600071EB0C01C1E70B46024641464846BDE829
:10037000F08B13B54FF000004FF00001AFF3008099
:10038000BDE81C4070474FF0000200B5134694468C
:100390009646203922BFA0E80C50A0E80C50B1F1DD
:1003A0002001BFF4F7AF090728BFA0E80C5048BFF1
:1003B0000CC05DF804EB890028BF40F8042B08BF8F
:1003C000704748BF20F8022B11F0804F18BF00F88B
:1003D000012B7047704770477047754600F02CF846
:1003E000AE4605006946534620F00700854618B022
:1003F00020B5FFF73FFFBDE820404FF000064FF06B
:1004000000074FF000084FF0000B21F00701AC4649
:10041000ACE8C009ACE8C009ACE8C009ACE8C00968
:100420008D46704710B50446AFF300802046BDE806
:100430001040FFF7F0BE000000487047081E002083
:1004400001491820ABBEFEE72600020070470000FD
:1004500072B64EF62250CEF2000040F2FF01C0F21A
:1004600000010170002080F3098840F2A800C2F268
:100470000000016881F3088802F030F840F22A0099
:10048000C2F2000040F22B01C2F200010A780270B1
:1004900040F2A000C2F2000040F2A401C2F200014A
:1004A0000A680260106880F30988EFF3148040F056
:1004B000020080F31488BFF36F8FBDE8F04F0FBCCC
:1004C000BDE8005006BC62B608471E484FF0805198
:1004D0000160704772B640F2AC02C2F200021168CD
:1004E00081F31188BFF34F8FBFF36F8F62B6EFF3C5
:1004F000098020E9F04F40F2A005C2F2000529680A
:100500000860744601F0EAFF40F22A00C2F20000DF
:1005100040F22B01C2F200010A78027040F2A401FD
:10052000C2F200010A682A6044F0040E1068B0E8C4
:10053000F04F80F3098840F20002C0F2000282F31B
:100540001188704704ED00E000BFFEE710B500F031
:1005500001F810BD10B500200249086000F00AF84B
:1005600010BD000000000020014908607047000035
:100570000000002010B504F0C5F9044608480068E2
:1005800040F080700649086000200649486008462F
:10059000006840F0010008602046FFF7E5FF10BD4D
:1005A000FCED00E0001000E00148406870470000EA
:1005B000001000E0704710B501F04AF8012000F08B
:1005C000CFF8062000F0ACFA01F058F810BD10B5D5
:1005D00001F03EF84FF4806000F0C2F84FF4006084
:1005E00000F0BEF84FF4805000F0BAF84FF400501D
:1005F00000F0B6F84FF4804000F0B2F84FF400403D
:1006000000F0AEF8282000F08BFA01F037F810BDAA
:1006100010B501F01DF8022000F0A2F8072000F04C
:100620007FFA01F02BF810BD10B501F011F804208D
:1006300000F096F8082000F073FA01F01FF810BDE2
:1006400010B501F005F8082000F08AF8092000F044
:1006500067FA01F013F810BD10B500F0F9FF102093
:1006600000F07EF80A2000F05BFA01F007F810BDF8
:1006700010B500F0EDFF202000F072F8402000F0EF
:100680006FF8802000F06CF84FF4807000F068F88C
:100690004FF4007000F064F8172000F041FA00F009
:1006A000EDFF10BD70B50546B5F5807F3BD012DC7F
:1006B000102D30D008DC012D25D0022D25D0042DA1
:1006C00025D0082D3FD124E0202D26D0402D26D046
:1006D000802D38D125E0B5F5805F2CD009DCB5F54B
:1006E000007F22D0B5F5806F21D0B5F5006F2AD1FB
:1006F0001FE0B5F5005F20D0B5F5804F1FD0B5F5F0
:10070000004F20D11DE000241FE001241DE0022441
:100710001BE0032419E0042417E0052415E0062457
:1007200013E0072411E008240FE009240DE00A2457
:100730000BE00B2409E00C2407E00D2405E00E2457
:1007400003E00F2401E0102400BF00BF102C04DAE6
:10075000024850F824102846884770BD4006002003
:1007600010B5044604480068204020B102480460E7
:100770002046FFF797FF10BD143C0140F8B5024634
:100780000B460025002400200021DCE0012606FAAB
:1007900001F51E6806EA0504AC4273D15E68022EBC
:1007A00002D05E68122E13D1CF0802F1200656F84F
:1007B00027004E07F70E0F26BE40B0434F07FF0E2F
:1007C0001E69BE403043CF0802F1200646F82700DC
:1007D00010684F000326BE40B0431E7906F00306A2
:1007E0004F00BE40304310605E68012E08D05E6846
:1007F000022E05D05E68112E02D05E68122E13D133
:1008000090684F000326BE40B0434F00DE68BE40F4
:1008100030439060506801268E40B0431E79C6F385
:1008200000168E4030435060D0684F000326BE4013
:10083000B0434F009E68BE403043D0605E6806F013
:100840008056B6F1805F7DD100BF00260096404EF5
:10085000366846F480463E4F3E603E46366806F4B3
:100860008046009600BF00BF3A4E8F0856F827001A
:100870008E07370F0F26BE40B043374EB24202D12B
:10088000002624E05EE0354EB24201D101261EE092
:10089000334EB24201D1022619E0324EB24201D1AA
:1008A000032614E0304EB24201D104260FE02F4E51
:1008B000B24201D105260AE02D4EB24201D10626F0
:1008C00005E02C4EB24201D1072600E008268F0732
:1008D0003F0FBE4030431F4E8F0846F82700264E7C
:1008E0003068A0435E6806F48036B6F5803F00D1DC
:1008F0002043214E3060361D3068A0435E6806F408
:100900000036B6F5003F00D120431B4E361D306047
:10091000361D3068A0435E6806F48016B6F5801F69
:1009200000D12043144E08363060361D3068A04395
:100930005E6806F40016B6F5001F00D120430E4E87
:100940000C363060491C1029FFF420AFF8BD0000C0
:1009500044380240083801400000024000040240D0
:1009600000080240000C0240001002400014024047
:1009700000180240001C0240003C014042690A404D
:100980008A4202D10A04826100E0816170470AB1A3
:10099000816101E00B048361704700000148006839
:1009A000000C7047002004E0014800687047000018
:1009B000B40000200348006803490978084401494D
:1009C00008607047B4000020BC00002010B50D483E
:1009D000006840F400700B4908600846006840F465
:1009E000806008600846006840F48070086003205A
:1009F00000F0F6F80F2000F007F800F02BF80020C8
:100A000010BD0000003C024070B504460E4800785E
:100A10004FF47A71B1FBF0F00C490968B1FBF0F5C5
:100A2000284600F02BFD08B1012070BD102C07D224
:100A300000222146501E00F095F80548046001E0B0
:100A40000120F2E70020F0E7BC000020B000002009
:100A5000B800002000B585B000BF002003902B48EF
:100A6000006840F48040294908600846006800F4A6
:100A70008040039000BF00BF00BF00200390081F0C
:100A8000006840F08050091F08600846006800F0C8
:100A90008050039000BF00BF032000F0A1F80022A7
:100AA00011466FF00B0000F05DF8002211466FF068
:100AB0000A0000F057F8002211466FF0090000F01C
:100AC00051F800221146501F00F04CF80022114648
:100AD000101F00F047F800220F21901E00F042F88E
:100AE00000220821501E00F03DF804A80021084A09
:100AF0000123CDE90032CDE902100B460A4605A1DB
:100B0000064801F06FFD05B000BD0000443802400A
:100B10000D490008546D725F537973008006002000
:100B200010B501460846002807DB00F01F0301222C
:100B30009A40034B440943F8242000BF10BD000035
:100B400080E200E001460846002809DB00F01F03B0
:100B500001229A4043099B0003F1E023C3F80021DE
:100B600000BF70472DE9F05F80460D46164600270E
:100B700003F072FA074639462A46334601F0070069
:100B8000C0F1070ABAF1040F02D94FF0040A01E0DC
:100B9000C0F1070AD14600F1040ABAF1070F02D2E8
:100BA0004FF0000A01E0A0F1030AD4464FF0010A19
:100BB0000AFA09FAAAF1010A0AEA020A0AFA0CFA7E
:100BC0004FF0010B0BFA0CFBABF1010B0BEA030B23
:100BD0004AEA0B042146404603F046FABDE8F09F7E
:100BE00000BF00F00702064B19684FF6FF031940DB
:100BF000044B0B4343EA0221014B196000BF7047CD
:100C00000CED00E00000FA0500BF00BF00BF00BF10
:100C100000BFBFF34F8F00BF00BF00BF094800688F
:100C200000F4E06008490843001D0649086000BF61
:100C300000BF00BFBFF34F8F00BF00BF00BF00BFAA
:100C400000BFFDE70CED00E00000FA0570B50446BA
:100C50000D460CB9012070BD5848006800F00F0027
:100C6000A84209D255490D700846006800F00F00EF
:100C7000A84201D00120EEE7207800F0020002280F
:100C80001DD1207800F00400042805D14C480068EC
:100C900040F4E0504A490860207800F00800082835
:100CA00005D14748006840F4604045490860444821
:100CB000006820F0F000A1680843414908602078EE
:100CC00000F00100A8B36068012807D13C4808384B
:100CD0000068C0F34040B8B90120BCE76068022852
:100CE00002D06068032807D1354808380068C0F38F
:100CF000406048B90120AEE7314808380068C0F3C9
:100D0000400008B90120A6E72D48006820F0030044
:100D1000616808432A490860FFF746FE064609E075
:100D2000FFF742FE801B41F28831884202D903203E
:100D300091E707E02248006800F00C006168B0EB22
:100D4000810FEDD11D48006800F00F00A84209D9BD
:100D50001A490D700846006800F00F00A84201D043
:100D6000012078E7207800F00400042807D1144817
:100D7000006820F4E050E1680843114908602078D9
:100D800000F00800082808D10D48006820F46040F1
:100D9000216940EAC1000A49086000F0DFF808490B
:100DA0000968C1F30311074A515CC840064908604D
:100DB0000F20FFF729FE00204DE70000003C024015
:100DC00008380240EC4A0008B000002010B5FFF7D8
:100DD000EBFD04465648006840F0010054490860A5
:100DE00006E0FFF7E1FD001B022801D9032010BD3A
:100DF0004F48006800F002000028F2D04C4800681C
:100E000040F080004A490860FFF7CEFD044600200C
:100E100047490831086008E0FFF7C6FD001B41F2B2
:100E20008831884201D90320E1E741480830006851
:100E300000F00C000028EFD1FFF7B6FD04463C4857
:100E4000006820F450203A49086006E0FFF7ACFD46
:100E5000001B642801D90320C9E73548006800F465
:100E600000300028F2D1FFF79FFD044630480068AB
:100E700020F080702E49086006E0FFF795FD001B0A
:100E8000022801D90320B2E72948006800F0007069
:100E90000028F2D1FFF788FD04462548006820F0BD
:100EA00080602349086006E0FFF77EFD001B0228F2
:100EB00001D903209BE71E48006800F0006000286D
:100EC000F2D11C481A49091D08601B481849843191
:100ED000086017480C30006820F4F85014490C31B1
:100EE00008600846006820F4005008600846006862
:100EF00040F41F0008600846006840F400100860D5
:100F00000B487430006820F0010009497431086012
:100F10000846006840F0807008600848084908608A
:100F20000F20FFF771FD08B1012060E700205EE7A8
:100F30000038024010300004003000200024F4008B
:100F4000B000002001200149C864704700004742FA
:100F50000148006870470000B00000202DE9F0470C
:100F6000002400250026A1462548006800F00C005A
:100F700020B1042805D008283AD105E0DFF8849094
:100F800039E0DFF8849036E01D48001F006800F06B
:100F90003F041B48001F006800F4800078B11A4825
:100FA0001749091F0968C1F38811A0FB01700146A8
:100FB000224600233846FFF76FF905460EE0114838
:100FC0000F49091F0968C1F38811A0FB0170014690
:100FD000224600233846FFF75FF905460848001F00
:100FE0000068C0F30140401C4600B5FBF6F902E082
:100FF000DFF8109000BF00BF4846BDE8F087000052
:10100000083802400024F40000127A00F8B50446C3
:101010000CB90120F8BD207800F00100002874D040
:10102000F948006800F00C0004280DD0F64800686C
:1010300000F00C00082813D1F348001F006800F4EA
:101040008000B0F5800F0BD1EF4808380068C0F37E
:101050004040002859D06068002856D10120D9E7C7
:1010600000BF6068B0F5803F08D1E74808380068E5
:1010700040F48030E449083908601EE06068B0F54B
:10108000A02F0DD1E0480838006840F48020DE49E8
:10109000083908600846006840F4803008600CE0B9
:1010A000D9480838006820F48030D74908390860EA
:1010B0000846006820F48020086000BF606890B196
:1010C000FFF772FC054606E0FFF76EFC401B642844
:1010D00001D903209EE7CC4808380068C0F340409F
:1010E0000028F1D011E0FFF75FFC054606E0FFF7AE
:1010F0005BFC401B642801D903208BE7C2480838F9
:101100000068C0F340400028F1D1207800F00200D0
:1011100002285FD1BC48006800F00C0058B1BA4802
:10112000006800F00C0008281CD1B748001F0068B8
:1011300000F48000B0B9B44808380068C0F340003B
:1011400020B1E068012801D0012063E7AE480838EB
:10115000006820F0F800216940EAC100AA49083976
:10116000086037E0E06800B30120A8490860FFF795
:101170001BFC054606E0FFF717FC401B022801D9BF
:10118000032047E7A04808380068C0F34000002863
:10119000F1D09D480838006820F0F800216940EA45
:1011A000C10099490839086014E000209749086097
:1011B000FFF7FAFB054606E0FFF7F6FB401B0228A7
:1011C00001D9032026E7904808380068C0F34000A2
:1011D0000028F1D1207800F0080008282CD160699F
:1011E000A8B101208A490860FFF7DEFB054606E04A
:1011F000FFF7DAFB401B022801D903200AE78248E7
:101200006C300068C0F340000028F1D014E00020EA
:101210007F490860FFF7C8FB054606E0FFF7C4FBFF
:10122000401B022801D90320F4E677486C3000689F
:10123000C0F340000028F1D1207800F00400042819
:1012400070D1002670483830006800F0805090B9A6
:1012500000BF002000906C483830006840F080509B
:101260006949383108600846006800F080500090F5
:1012700000BF00BF01266748006800F48070B0B965
:101280006448006840F4807062490860FFF78CFB96
:10129000054606E0FFF788FB401B022801D9032022
:1012A000B8E65C48006800F480700028F2D000BF07
:1012B000A068012808D154486830006840F0010057
:1012C0005149683108601DE0A06805280DD14E48DD
:1012D0006830006840F004004B49683108600846F7
:1012E000006840F0010008600CE047486830006882
:1012F00020F001004449683108600846006820F089
:101300000400086000BFA068A8B1FFF74DFB0546C8
:1013100009E0FFF749FB401B41F28831884202D9BE
:10132000032077E626E0384868300068C0F34000C4
:101330000028EED013E0FFF737FB054608E0FFF783
:1013400033FB401B41F28831884201D9032061E61A
:101350002D4868300068C0F340000028EFD1012E0E
:1013600007D129483830006820F0805026493831AC
:10137000086000BFA069B8B32348006800F00C0003
:1013800008285ED0A069022846D100201F490866BF
:10139000FFF70AFB054606E0FFF706FB401B0228A5
:1013A00001D9032036E6184808380068C0F34060C9
:1013B0000028F1D1D4E907010843616A40EA8111AC
:1013C0000122A06AC2EB500041EA00412C20005DDE
:1013D00041EA00600C49091F086001200B490866BA
:1013E000FFF7E2FA054607E02DE0FFF7DDFA401BC4
:1013F000022801D903200DE6034808380068C0F32D
:1014000040600028F1D01EE008380240000047424A
:10141000800E47420070004000200C490866FFF72C
:10142000C3FA054606E0FFF7BFFA401B022801D9C0
:101430000320EFE506480068C0F340600028F2D1C1
:1014400001E00120E6E50020E4E50000000047425D
:1014500000380240042808D14FF0E021096941F02A
:1014600004014FF0E022116107E04FF0E02109692B
:1014700021F004014FF0E0221161704770B504467D
:101480002546681EB0F1807F01D301200FE0681E61
:101490004FF0E02148610F214FF0FF3002F0E4FDF2
:1014A00000204FF0E021886107200861002070BD16
:1014B00000BFFEE71CB5FFF749F801A800F034FCB7
:1014C0000020012302461421009003F04FF80A2067
:1014D000012300223D210090184603F047F805E063
:1014E00001AA00214FF47A7001F020F8F8E700BF5C
:1014F000FEE770477047000070B5044600F08EF8B4
:101500000020334908703349087033490870334963
:10151000086033490860334908703349087033481C
:10152000056845B13248066803E0761E0020286051
:101530002D1D002EF9D100202E49087001F0B0FCBD
:1015400001F0EEFC00202C4908602C490880204660
:1015500001F0C6FA208800B170BD204601F0CCFA37
:10156000208800B1F8E70020254908602549088057
:1015700025490860254908802549086025490880D3
:10158000204602F035F8208800B1E5E7204601F05A
:101590006FFA208800B1DFE7204602F097F8208834
:1015A00000B1D9E7204601F0EFFE208800B1D3E773
:1015B000204602F02BFB208800B1CDE701F026F990
:1015C000FFF798FF01201449087000BFC4E700002E
:1015D00008000020090000203A000020A0000020A0
:1015E000A40000202A0000202B0000203049000821
:1015F000344900086A000020140000201800002070
:1016000024000020280000203400002038000020A2
:101610003C000020400000200A000020084800682C
:101620000849096800EB810007490860084600681E
:1016300020F007000860012004490860704700009E
:101640003049000834490008A8000020AC00002000
:1016500008480078012800D0704707480078FA2829
:1016600000D3F9E704480078401C0349087000BF24
:10167000F2E70000090000200800002010B5002457
:101680002B480078012800D010BD00BFFEF7CEFD2A
:10169000044600BF2748007828B900BF2046FEF75F
:1016A000C9FD00BFF0E723480078401E21490870BB
:1016B0000846007828B100BF2046FEF7BBFD00BFFA
:1016C000E2E71D48007828B100BF2046FEF7B2FDD2
:1016D00000BFD9E701F0D0FB184908700846007830
:1016E00000EB4000164951F82000164908600846F2
:1016F000006815490968884205D100BF2046FEF7F9
:1017000099FD00BFC0E70F480068806F401C0D497D
:10171000096888670D480068401C0C490860FEF79E
:10172000D4FE00BF2046FEF785FD00BF00BFABE73B
:1017300009000020080000203A0000202B000020B3
:1017400064190020A4000020A000002060000020F8
:101750002DE9F04104460E461546002700BF00BFA4
:10176000FEF764FD074600BF00BF184920688842A5
:101770000BD100BF00BF3846FEF75CFD00BF00BFC5
:1017800045F6C1502880BDE8F081104820606660B1
:1017900000202062606284F82800E06204F1080002
:1017A00001F0B5FA204601F0D5F909480088401C3F
:1017B0000749088000BF00BF3846FEF73BFD00BF69
:1017C00000BF0020288000BFDDE700004D555458C1
:1017D000280000202DE9F0470546884691461C4622
:1017E000089E4FF0000A00BF00BFFEF71FFD8246B3
:1017F00000BF00BF95F82800C0B962480068686261
:10180000012085F828000CB1E86A206029465D486F
:10181000006801F0B7F900BF00BF5046FEF70AFDAF
:1018200000BF00BF00203080BDE8F0875549686ADE
:101830000968884221D195F82800FF280AD100BF05
:1018400000BF5046FEF7F6FC00BF00BF45F28470B3
:101850003080E9E795F82800401C85F828000CB195
:10186000E86A206000BF00BF5046FEF7E3FC00BFFF
:1018700000BF45F282703080D6E709F4004068B1BD
:1018800000BF00BF5046FEF7D5FC00BF00BF0CB143
:101890000020206046F2B0103080C5E73A4800785A
:1018A00068B100BF00BF5046FEF7C4FC00BF00BFD8
:1018B0000CB10020206046F663503080B4E76F6AB8
:1018C00097F83B002F49096891F83B10884206DDE4
:1018D0002C48006890F83B10384601F0DBFD434689
:1018E000042228480168284601F0A2F900BF00BF81
:1018F0005046FEF79FFC00BF00BF00F0EFF800BFAE
:1019000000BFFEF793FC824600BF00BF1D48006881
:1019100090F8390030B101280CD002281AD00328E1
:1019200021D110E01CB117480068C06C2060002075
:1019300030801CE01CB113480068C06C206046F287
:10194000A910308013E00CB10020206047F2D920AC
:1019500030800CE01CB10B480068C06C206045F67C
:10196000C250308003E046F62E60308000BF00BFDA
:1019700000BF00BF5046FEF75DFC00BF00BF00BFC8
:1019800052E70000A00000203A0000202DE9F84FA7
:1019900004468A4616464FF0000B00BF00BFFEF714
:1019A00045FC834600BF00BF4A49606A0968884217
:1019B0000BD000BF00BF5846FEF73CFC00BF00BF85
:1019C00045F281703080BDE8F88FFEF7EDFD80466E
:1019D0002834C4F804802078401E207014F82809A8
:1019E00050B100BF00BF5846FEF724FC00BF00BF47
:1019F00045F283703080E6E721463648006801F002
:101A000009F904F10809D9F8000068B900206062FA
:101A100084F8280000BF00BF5846FEF70BFC00BF4B
:101A200000BF00203080CEE72A48006890F83B00D5
:101A30002849096891F83C10884228D02548006858
:101A400001F0D3F805462348006890F83C10A942FD
:101A500004DA2048006890F83C0000E0284605467B
:101A60001C48006890F83B00A84210DA194800684A
:101A700001F0BCFA1748006880F83B50284601F096
:101A80001BFA1448006801F093FA13480570D9F85E
:101A900000706762012084F828002146384601F072
:101AA00071F800231A4639462046CDF8008001F02F
:101AB0008DF900BF00BF5846FEF7BCFB00BF00BF5A
:101AC0000AF4004008B900F009F80020308000BF97
:101AD00079E70000A00000202A00002010B50024B3
:101AE0001E48007800B110BD1D48007800B1FAE72B
:101AF00000BFFEF79BFB044600BF01F0BDF919498A
:101B000008700846007800EB4000174951F82000A3
:101B1000164908600846006815490968884205D1D9
:101B200000BF2046FEF786FB00BFDCE70F480068D9
:101B3000806F401C0D49096888670E480068401C8A
:101B40000C490860FEF7C1FC00BF2046FEF772FB9F
:101B500000BFBFF36F8F00BFC5E700000800002083
:101B60003A0000202B00002064190020A40000206F
:101B7000A00000206000002070B504461C480078DA
:101B8000012803D045F68B60208070BD00256D1CB8
:101B90006D1C6D1C17480088A84203DC45F68C605C
:101BA0002080F2E714480078E8B901F065F913499C
:101BB000087008460078124908701048007800EB59
:101BC0004000104951F820000F490860084600689D
:101BD0000E490860012008490870FEF739FC43F6F9
:101BE0009920208002E045F68A60208000BFCCE783
:101BF0000A00002068000020090000202B000020BF
:101C00002A00002064190020A4000020A000002069
:101C10002DE9F04106464FF0000800BF00BFFEF777
:101C200005FB804600BF00BF0020364908803649CA
:101C30000860364908603649086036490860364908
:101C400008603649088100BF00BF4046FEF7F2FA3F
:101C500000BF00BF00BF00BFFEF7E8FA804600BF2C
:101C600000BF2F48046800BF00BF4046FEF7E2FAFD
:101C700000BF00BF1AE000BF00BFFEF7D7FA8046E2
:101C800000BF00BF00207434E0616060208060808D
:101C900020616061FEF788FCE060E06A044600BFF6
:101CA00000BF4046FEF7C6FA00BF00BF002CE2D1DD
:101CB00000BF00BFFEF7BAFA804600BF00BF194858
:101CC000056800BF00BF4046FEF7B4FA00BF00BF82
:101CD00012E000BF00BFFEF7A9FA804600BF00BFB8
:101CE00005F120070020B881AD6900BF00BF404664
:101CF000FEF7A0FA00BF00BF002DEAD1002030801F
:101D0000BDE8F081460000205C0000207800002043
:101D10007C00002090000020940000205819002032
:101D20006400002034000020F8B50446002600209E
:101D300000906946324800F019FBBDF8000018B168
:101D4000BDF800002080F8BD6A460021022000F0A6
:101D5000EDFBBDF8000018B1BDF800002080F2E7EF
:101D600000BF00BFFEF762FA064600BF00BF0020BA
:101D70002449086000BF00BF3046FEF75BFA00BF91
:101D800000BF00252048006820490968884205D91D
:101D90001D4800681D490968B0FBF1F525B91A48CE
:101DA00000680A21B0FBF1F56A460021284600F0E0
:101DB000BDFB6946124800F096F9BDF8000018B165
:101DC000BDF800002080BEE700BF00BFFEF72EFA7E
:101DD000064600BF00BF00200D49086009480068A2
:101DE0000C49086001200C49087000BF00BF304654
:101DF000FEF720FA00BF00BF0020208000BFA2E74E
:101E0000601D002048000020644900084C4900087B
:101E10005C0000204C0000205400002070470000AF
:101E20002DE9FF4F85B004469146DDF854B0DDE959
:101E300012A5199E00200290BAF13F0F09D1464821
:101E4000844206D046F273211A98018009B0BDE899
:101E5000F08F204601F0DCFB00211A98018006F08B
:101E6000010010B906F0020078B106F0020060B17E
:101E70002F460020049005E0002038603F1D0498A4
:101E8000401C049004985845F6D3149805EB800044
:101E90000390CDE900B62A464846039B089900F016
:101EA000FDF90746AF4204D246F632611A98018026
:101EB000CCE7C4F824900898A0620698E06084F803
:101EC0003BA084F83CA027600398A060189860604D
:101ED0002562C4F844B0A4F848604FF0000808E058
:101EE000002104F1640040F8281008F1010000F01E
:101EF000FF08B8F1000FF3D0204600F033F800BF20
:101F000000BFFEF793F9029000BF00BF94F83B00BA
:101F100000F0D2FF204601F04BF8204601F02EFBE6
:101F20000E480088401C0D4908800D4800780128A3
:101F300007D000BF00BF0298FEF77CF900BF00BFCA
:101F400084E700BF00BF0298FEF774F900BF00BF2E
:101F5000FFF7C4FD00BF79E7B0180020680000203B
:101F600009000020704700002DE9F04104460E46AC
:101F70004FF000085848844204D147F24C1030809A
:101F8000BDE8F0817CB900BF00BFFEF74FF9804685
:101F900000BF00BF5148046800BF00BF4046FEF7C5
:101FA00049F900BF00BF00BF00BFFEF73FF9804600
:101FB00000BF00BF94F83A0008285ED2DFE800F0C6
:101FC00004090E10080A0F11204601F00FF85FE017
:101FD0005EE000BF204601F023FC59E000BF00BFD7
:101FE00000BF94F83800082839D2DFE800F0040771
:101FF00005380D08090600BF00BF31E000BF00BF73
:10200000204600F0BCFE2BE0606B456A15F83B7F74
:10201000204600F0B4FE287869783B3D884212D013
:1020200095F83B0094F83B1088420CD1284600F00C
:10203000DCFD074695F83C00B84202DA95F83C0012
:1020400000E038460746002084F8380095F83B0049
:10205000B84203D03946284601F01CFA00E000BF20
:1020600000BF94F83A00032803D094F83A000728F8
:1020700002D1204601F0D4FB0AE000BF00BF404679
:10208000FEF7D8F800BF00BF46F62D60308077E736
:1020900000BF206C10B1204600F078FD204600F013
:1020A00021F8204601F082FA0D480088401E0C49B4
:1020B0000880204601F0ACFAFF2084F83A000020A6
:1020C000308000BF00BF4046FEF7B4F800BF00BF3D
:1020D000FFF704FD00BF53E7B0180020A000002068
:1020E00068000020704770B504460D46002600BF0A
:1020F00000BFFEF79BF8064600BF00BF0020288007
:1021000094F83A0008285ED2DFE800F004050607DC
:102110001227394B00BF00BF00BF00BF00BF3046D1
:10212000FEF788F800BF00BF47F25310288055E043
:1021300014F8720F401E207014F8720928B900209C
:1021400084F83A00204600F0FDFE00BF00BF304694
:10215000FEF770F800BF00BF40E014F8720F401E99
:10216000207014F8720910B9012084F83A0000BFF9
:1021700000BF3046FEF75EF800BF00BF2EE014F847
:10218000720F401E207014F8720910B9022084F8F2
:102190003A0000BF00BF3046FEF74CF800BF00BF5A
:1021A0001CE014F8720F401E207014F8720910B968
:1021B000032084F83A0000BF00BF3046FEF73AF82B
:1021C00000BF00BF0AE000BF00BF3046FEF732F894
:1021D00000BF00BF46F62D60288070BD00BFFFF72E
:1021E0007DFC00BFF9E770472DE9F05F04460E461D
:1021F000174698464FF0000B00BF00BFFEF716F8D9
:10220000834600BF00BF0CB923480468206878B932
:1022100000BF00BF5846FEF70DF800BF00BF00200A
:102220003060386047F25210A8F80000BDE8F09F17
:1022300094F8480000F0010070B900BF00BF584694
:10224000FDF7F8FF00BF00BF00203060386047F2A4
:102250005410A8F80000E9E7D4F820A0D4F844907E
:1022600000BF00BF5846FDF7E5FF00BF00BF0025D7
:1022700002E00AF1040A6D1C4D4503D2DAF80000B1
:102280000028F6D03560A9EB050038600020A8F8DA
:10229000000000BFCAE70000A0000020F0B504461F
:1022A000DDE9055602EB850020F007004FF0807C49
:1022B000071F3846C7F800C0071F38463C60DFF8E4
:1022C000A8C0071F3846C7F800C04FF0123C071FD0
:1022D0003846C7F800C04FF0033C071F3846C7F820
:1022E00000C04FF0023C071F3846C7F800C0071F68
:1022F00038463B60071F384639606FF0020C071FF5
:102300003846C7F800C04FF0113C071F3846C7F8E1
:1023100000C04FF0103C071F3846C7F800C04FF010
:10232000093C071F3846C7F800C04FF0083C071F9C
:102330003846C7F800C04FF0073C071F3846C7F8BB
:1023400000C04FF0063C071F3846C7F800C04FF0EA
:10235000053C071F3846C7F800C04FF0043C071F74
:102360003846C7F800C0F0BDB536000870B5044661
:102370000D4600265548844203D147F25B10288061
:1023800070BD00BF00BFFDF751FF064600BF00BF94
:1023900084B94F48007801280AD000BF00BF3046FA
:1023A000FDF748FF00BF00BF45F689602880E7E7DA
:1023B000484804684748006884420DD14648007880
:1023C00050B100BF00BF3046FDF734FF00BF00BF73
:1023D00046F663502880D3E70020288094F83A001E
:1023E00008285FD2DFE800F0041523313F40414266
:1023F000042084F83A00012084F87200204600F09E
:10240000F5FD00BF00BF3046FDF714FF00BF00BF61
:1024100053E0052084F83A00012084F8720000BFE0
:1024200000BF3046FDF706FF00BF00BF45E00620B5
:1024300084F83A00012084F8720000BF00BF3046E3
:10244000FDF7F8FE00BF00BF37E0072084F83A0030
:10245000012084F8720000BF00BF3046FDF7EAFE9D
:1024600000BF00BF29E000BF00BF00BF94F87200AA
:10247000FF280AD100BF00BF3046FDF7DBFE00BFDA
:1024800000BF47F2601028807AE794F87200401C81
:1024900084F8720000BF00BF3046FDF7CBFE00BFDE
:1024A00000BF0AE000BF00BF3046FDF7C3FE00BF1B
:1024B00000BF46F62D60288062E700BF0448007820
:1024C000012801D1FFF70AFB00BF59E7B01800202F
:1024D00009000020A00000203A00002010B5FEF7FF
:1024E00063F804460F4800680F490968884213D012
:1024F0000C480068D0F88000201A0A490968C867AB
:1025000008480068D0F8840006490968C96F084483
:1025100004490968C1F8840003480068C0F8804095
:1025200010BD0000A0000020A40000202DE9F04113
:1025300006460D46144600271F48007820B146F68F
:1025400063502080BDE8F08135B1022D05D0042D07
:1025500005D0082D04D101E000BF00BF00BF03E09B
:1025600045F625602080EDE700BF00BF00BFFDF706
:102570005DFE074600BF00BF23462A4631460F488E
:10258000006801F007F9208838B100BF00BF384665
:10259000FDF750FE00BF00BFD4E70848006800F018
:1025A00025FD00BF00BF3846FDF744FE00BF00BF59
:1025B000FFF794FA00BFC5E73A000020A000002012
:1025C00010B506480078012800D010BD00F008F8CA
:1025D000012001F0EFF900BFF7E70000090000203B
:1025E000704700002DE9F05F04460D4616461F4671
:1025F000DDE90BABDDF82890DDF834802048007869
:10260000012801D101F0EEFB012084F826001D49CC
:10261000206888420BD11A480078012801D101F0C6
:10262000DDFC45F6C150A8F80000BDE8F09F154854
:1026300020606560144800687043E0610020A0617C
:102640001148006878432062A4F82490C4F808A0D8
:10265000C4F80CB0002020616061204601F0C2FA8D
:102660000A480088401C094908800548007801286C
:1026700001D101F0B3FC0020A8F8000000BFD4E7AE
:1026800009000020544D52209C0000208C000020A6
:102690002DE9F04704460D4617461E46DDE9088938
:1026A00001F0A0FB084800686843E0610648006844
:1026B00078432062A660C4F80C800020A9F80000CE
:1026C00001F08CFCBDE8F0879C0000202DE9F04172
:1026D00004460D464FF0000801F084FB00BF00BF28
:1026E000FDF7A4FD804600BF00BF2A4800682A49C4
:1026F000884202D12948076801E02948076800BFDD
:1027000000BF4046FDF796FD00BF00BF94F82600CD
:10271000052833D2DFE800F02D1A031B040000BFA8
:10272000022084F826003946204601F0F1FBE069DA
:1027300010B9206AA06101E0E069A0613946204635
:1027400001F0F4FA0020288001261CE000BF0220DE
:1027500084F82600E06910B9206AA06101E0E06910
:10276000A0613946204601F0E1FA002028800126C8
:1027700009E047F23D302880002604E047F241306E
:102780002880002600BF00BF01F028FC3046BDE8CD
:10279000F0810000A0000020601D002098000020B3
:1027A0006C00002010B5002400BF00BFFDF73EFD07
:1027B000044600BF00BFFEF74BFF00BF00BF20462E
:1027C000FDF738FD00BF00BFFFF7FAFEFEF756FF2A
:1027D00010BD000010B5014601224B1E4FF0E02451
:1027E0006361094B186820F07F4040EA026018607E
:1027F00023461B6943F00503236123461B6943F00D
:102800000203236110BD000020ED00E00EB5464834
:10281000029046480090464802904648029046483A
:10282000009046480290464801904648029046482B
:102830000290464802904648029046480190464819
:10284000019046480190464802904648019046480B
:1028500002904648019046480190464801904648FB
:1028600001904648029046480290464802904648E9
:1028700001904648029046480190464801904648DB
:1028800001904648019046480190464801904648CC
:1028900002904648029046480290464802904648B8
:1028A00001904648019046480190464802904648AB
:1028B000029046480290464801904648019046489A
:1028C000019046480090464801904648029046488C
:1028D0000290464802904648029046480290464878
:1028E0000290464802904648019046480290464869
:1028F000029046480190464801904648029046485A
:102900000290464801904648019046480290464849
:102910000290464801904648019002980290019822
:102920000190009800900EBD84490008E84A000814
:102930008549000886490008884900088C49000834
:10294000904900088D490008B8490008B9490008B5
:10295000BA490008BC490008BE490008C04900083F
:10296000E0490008E2490008E4490008E649000897
:10297000E8490008EA490008EC4900081C4A000838
:102980001D4A00081E4A0008204A0008224A000882
:10299000244A0008264A0008284A00082A4A000853
:1029A0002C4A0008304A0008604A0008614A0008C2
:1029B000624A0008634A0008644A0008664A000840
:1029C000684A0008904A0008914A0008924A0008A4
:1029D000934A0008944A0008964A0008984A00085A
:1029E0009C4A00089D4A00089E4A00089F4A000829
:1029F000A04A0008A14A0008A24A0008A34A000809
:102A0000A44A0008A64A0008A74A0008A84A0008E5
:102A1000AA4A0008AC4A0008AD4A0008AE4A0008BD
:102A2000B04A0008E04A0008E14A0008E24A00080B
:102A3000E44A0008002400BF00BF00BFFDF7F6FB1A
:102A4000044600BF00BF08480068401C06490860F3
:102A500006480068401C0549086000BF00BF2046CA
:102A6000FDF7E8FB00BFE7E7040000204800002076
:102A700010B58AB0044600200E4908600B200021E2
:102A80000591CDE90704069108460B4909680B4AF0
:102A900012680B4B1B68CDE90132CDE903103F20D2
:102AA0000023084A08A100900C48FFF7B9F90AB0C2
:102AB00010BD000004000020284900082449000837
:102AC00020490008352A000875432F4F532D4949E6
:102AD000492049646C65205461736B00B018002074
:102AE0000021034A1160034A1180018070470000F1
:102AF0001C0000202000002070B50246124D2868FE
:102B000029681031114D2D886D1EACB2002308E0EC
:102B10000160002545600581C560103010315D1CE5
:102B2000ABB2A342F4DB0025056045600581C560BA
:102B3000054D2D68064E3560044D2D88B580002565
:102B4000F5803581158070BD444900083C49000876
:102B50005819002009A1C161002141610849096893
:102B600011B90021816105E00549096881610449C5
:102B700009684861024908607047000020000000B1
:102B800024000020026C0A62016470472DE9F843BA
:102B900005462C6C25E0D4F82090FDF705FD804615
:102BA000C4F82C802146284600F034F804F10806C9
:102BB000306820B9002084F82800606210E037688F
:102BC0006562012084F8280021463846FFF7DAFFC5
:102BD00000231A4639462046CDF8008000F0F6F86A
:102BE0004C46002CD7D1BDE8F88330B504463F20D1
:102BF00004F140010AE00D68AB6823B193F83B2073
:102C0000824200DA10460D6805F120010D68002DA2
:102C1000F1D130BD024602F1400002E0036803F149
:102C2000200003688B42F9D103681B6A0360704778
:102C30002DE9F04105460C4616461F4684F83860DB
:102C4000002084F839003946204600F00BFC3DB1E5
:102C500005F1080865632146404600F05DF801E093
:102C6000002060632146284600F002F8BDE8F081AC
:102C700010B540B14468C1F8A44000F108031A68D7
:102C8000D468C46113E091F83840022C02D0072CBC
:102C900008D103E006A4C1F8A44007E006A4C1F8E7
:102CA000A44003E007A4C1F8A44000BF00BF10BDCA
:102CB0005461736B205100005461736B2053656D38
:102CC000000000002000000010B50A4606A4C2F86B
:102CD000A44040B100F10803196811B1CC68C46187
:102CE00001E001A4C46110BD2000000070B50446DD
:102CF000666B06F108052868C06A38B1204600F006
:102D00003EF866632146284600F006F870BD0021B3
:102D1000016041600181704710B591F83B30046853
:102D20003CB9012404810024CC620C630160416041
:102D300024E00489641C0481026805E092F83B40A9
:102D40009C4200DD02E0D26A002AF7D100BF3AB906
:102D50000024CC6244680C630C6BE16241600DE0BE
:102D6000146B2CB9CA6200240C631163016005E086
:102D7000CA62146B0C630C6BE162116310BD10B579
:102D8000446B14B3446B04F108010C68E46A1CB989
:102D900000240C604C6011E0046B24B9C26A00246A
:102DA00014630A600AE0C46A24B9036B0024DC627D
:102DB0004B6003E0036BC26ADA6213630C89641E22
:102DC0000C810024C4620463446310BD2DE9F0410A
:102DD00005460C4616461F46DDF8188094F83A0062
:102DE000082845D2DFE800F004050809060727286F
:102DF00000BF00BF00BF3CE000BFE665A4F8607004
:102E0000C4F84C8015B12046FFF7B9FF214628468B
:102E1000FFF75AFF94F83A00032802D1204600F049
:102E2000FFFC204600F08EF800203834A07060705F
:102E300004F838091DE000BFE665A4F86070C4F826
:102E40004C8015B12046FFF79AFF21462846FFF730
:102E50003BFF94F83A00072802D1204600F0E0FC3E
:102E600004203834A0700020607004F8380900E0B5
:102E700000BF00BFBDE8F08110B50848006830B958
:102E800006494868FDF7DDF92030C0B210BD03499E
:102E90000868FDF7D6F9C0B2F8E700002C00002062
:102EA000002004E00021034A42F82010401C0228C0
:102EB000F8D370472C000020202809D20A4909685D
:102EC000C0F11F0301229A401143074A11600AE032
:102ED00005494968A0F12002C2F11F0301229A406E
:102EE0001143014A516070472C000020202809D26C
:102EF0000A490968C0F11F0301229A409143074A19
:102F000011600AE005494968A0F12002C2F11F03DF
:102F100001229A409143014A516070472C000020E1
:102F2000002109E001EB4102054B03EB8200002286
:102F3000028102604260491C4029F3D370470000BF
:102F40006419002010B5044694F83B00FFF7B4FF65
:102F500094F83B0005490978884203D1204600F0E7
:102F600027F802E0204600F003F810BD2A000020F8
:102F700010B590F83B3003EB43030C4C04EB83019A
:102F80000B683BB901230B81002303614361086097
:102F9000486009E00B895B1C0B810B68036100230F
:102FA00043610A685061086010BD00006419002088
:102FB00010B590F83B3003EB43030B4C04EB83015B
:102FC0000B683BB901230B81002303614361086057
:102FD000486008E00B895B1C0B81002303614A6891
:102FE00042611061486010BD641900202DE9F04174
:102FF000054695F83B0000EB4000124901EB8004C8
:103000006F692E6987B946B9002020812060606011
:1030100095F83B00FFF76AFF0EE02089401E2081F3
:1030200000207061266007E02089401E20813E61FB
:103030000EB9676000E07761002068612861BDE833
:10304000F08100006419002088B00020009006E0A4
:10305000B9490968480002AA0021FFF767FAB74892
:1030600000780128F4D102A8FEF7D2FD4FF0000845
:10307000B3480068B0490968884205D9B04800687B
:10308000AD490968B0FBF1F8B8F1000F04D1AC48C4
:1030900000680A21B0FBF1F800BFFDF785FA814610
:1030A00000BF00BFFDF7C2F8009000BF00BFA548F9
:1030B0000068A54908600020A249086000BF00BF61
:1030C0000098FDF7B7F800BF00BFA04800689E4910
:1030D0000968884248D99D4800689D49884205D2C0
:1030E00042F2107004900120039023E0974800689A
:1030F0009849884205D24FF47A7004900A200390D0
:1031000018E0924800689449884203D264200490F1
:1031100003900FE08D4800689049884205D20A204C
:1031200004904FF47A70039004E00120049042F27E
:1031300010700390854801680398B1FBF0FA82494A
:10314000049809684843B0FBFAF042F21071081A7B
:1031500083490880834800880988884207DA8048C4
:1031600000888049088002E000207D490880FEF741
:1031700055FE002500BF00BFFDF758F8009000BFC6
:1031800000BF7948046800BF00BF0098FDF752F8FF
:1031900000BF00BF26E000BF00BFFDF747F800906A
:1031A00000BF00BF54F8840F6060002044F8840919
:1031B00000BF00BF0098FDF73DF800BF00BFD4F886
:1031C0008800054400BF00BFFDF730F8009000BF45
:1031D00000BFD4F8A04000BF00BF0098FDF72AF858
:1031E00000BF00BF002CD6D15DB35948854205D23F
:1031F00042F210700690012007901DE0554885426C
:1032000005D24FF47A7006900A20079014E05248D5
:10321000854203D26420069007900DE04F48854216
:1032200005D20A2006904FF47A70079004E001203E
:10323000069042F2107007900798B5FBF0F00590E9
:1032400003E0002006900120059000BF00BFFCF7BE
:10325000EDFF009000BF00BF4348046800BF00BFFF
:103260000098FCF7E7FF00BF00BF2BE0D4F8880010
:10327000069948430599B0FBF1F086B242F210700E
:10328000864200D90646A4F87460B4F87600B042CD
:1032900001DAA4F8766002AB04F19402111D204615
:1032A000FEF7A2FF00BF00BFFCF7C0FF009000BF09
:1032B00000BFD4F8A04000BF00BF0098FCF7BAFFE1
:1032C00000BF00BF002CD1D100272848D0F800B0A3
:1032D00027480068019002E00BF1040B7F1CDBF82B
:1032E000000010B901988742F6D3224807602048B1
:1032F0000068C01B2049086020480078012805D1DB
:1033000000201E49087002A8FEF782FCFDF74CF968
:10331000A0EB09001A4908601A4800680968884249
:1033200003D2174800681749086002AA00214046E6
:10333000FFF7FCF8B1E600004C49000854000020FB
:103340006449000848000020500000204C00002084
:10335000801A060000093D00005A62020084D71757
:10336000440000204600002064000020304900088E
:10337000344900080C00002010000020420000200A
:10338000580000205C00002010B58AB004460020E0
:1033900021490860214908602149086021490870D5
:1033A00021490870214908602149086021480068C6
:1033B00020B946F62B6020800AB010BD1E48006878
:1033C0001E490968884203D246F62C602080F3E744
:1033D0001B4800783F2803D346F62A602080EBE79D
:1033E000032000210591CDE9070406910846124902
:1033F0000A68144909680F4B1B68CDE90131CDE912
:1034000003200F48007800230F4A10A100901448B1
:10341000FEF706FD00BFCFE7480000205000002067
:103420004C00002054000020420000200C0000202E
:103430001000002050490008584900086049000861
:1034400048490008544900084930000875432F4F87
:10345000532D4949492053746174205461736B00A2
:10346000641C002070B504460D4655B12B46084833
:1034700000210268204600F037F9032084F83A0062
:1034800002E0022084F83A002046FFF7AFFD70BD4D
:103490006C0000202DE9F04104460D4600BF0026D7
:1034A00094F83B7094F83A0008285DD2DFE800F009
:1034B00004191E1F1A1B20212046FFF797FD84F8D0
:1034C0003B5094F83B00FFF7F7FC2B480068844220
:1034D00003D12046FFF74CFD02E02046FFF768FDD0
:1034E00044E000BF00BF84F83B503FE000BF00BF96
:1034F00000BF84F83B5094F8380008282FD2DFE84A
:1035000000F02E042F2E0A05063000BF00BF204613
:10351000FFF7ECFB26E02046FFF7E8FB606B466A0E
:10352000AF4205DD96F83B00A84217DC002615E007
:1035300096F83B00B84211D13046FFF756FB0546DE
:1035400096F83C00A84202DA96F83C0000E02846D3
:10355000054696F83B00A84200D1002602E000BFD5
:1035600000BF00BF00BF01E0BDE8F08100BF3446EE
:10357000002C94D100BFF7E7A00000200021C0F884
:103580009C100949096819B90021C0F8A01007E08A
:1035900005490968C0F8A01003490968C1F89C00F2
:1035A000014908607047000064000020D0F89C20AA
:1035B000D0F8A0104AB90D4B196011B10023C1F821
:1035C0009C300023C0F8A0300FE029B90023C2F8D6
:1035D000A030C0F89C3008E0C2F8A010C1F89C20D0
:1035E0000023C0F8A030C0F89C3070476400002071
:1035F0000021044A1160044A1180044A11600180CC
:103600007047000064000020680000206000002077
:1036100070B5044600202060A06060602061606199
:10362000A061E06120A0E060002020626062A062F2
:10363000E064E065A4F86000A066A4F87000E066AD
:10364000002506E0002104F1640040F82510681C04
:10365000C5B2002DF6D000202C3460622066606672
:10366000A06184F84600E066A066A083A062E062E4
:10367000A4F84800A4F84A00E0642065FCF794FF31
:1036800060650020A06520606060A06020736073AA
:10369000A0734020E07320740020606120676067A1
:1036A00003A0A0672C3C70BD3F5461736B00000009
:1036B0002000000008B504480068FEF794FD694644
:1036C0000020FEF751FC08BDA00000200021018071
:1036D000034A1160034A11609180D1807047000055
:1036E0006C000020700000202DE9F04304460F46D6
:1036F0009446984608EB0C00DFF89090D9F80090BB
:10370000B944A0EB09021AB900206065BDE8F08356
:103710001F4B186838B962650020A061E0611C6029
:1037200001209880F2E79888401C98801968486DBD
:10373000C61BB2420BD2C86948B96265B01A486567
:103740000020E061A161CC611C600120DEE7921BDA
:103750000D46A96903E0486D121A0D46896911B139
:10376000486D9042F7D949B1CD696265E561A161C3
:10377000486D801A4865CC61AC6104E06265E56122
:103780000020A061AC610120C0E700006C000020B7
:10379000700000202DE9F04F06460C4691461F466A
:1037A0004FF0000BB9F1040F01D1002520E0B9F171
:1037B000080F1BD124B947F27E203880BDE8F08F76
:1037C000B56D16480068A0EB0508A0450AD3B8FB04
:1037D000F4F004FB0055B8FBF4F004FB108000B1DA
:1037E0002544B565B06D2044B06501E00B4805681F
:1037F00023462A4659463046FFF776FF8246BAF1FD
:10380000010F05D1012086F83A000020388002E03F
:1038100047F27E20388000BFD0E700006C00002017
:1038200030B5C3698169134A9BB921B9002414607A
:10383000948044651CE00024CC614C6D456D2C44A3
:103840004C6511609488641E9480002484614465F2
:103850000EE0996121B1CB614C6D456D2C444C65F6
:103860000024C4619488641E9480002484614465AB
:1038700030BD0000700000202DE9F04706464FF0F3
:1038800000094B4F3C68002C77D0606DB04204D8E3
:10389000606D361A0020606502E0606D801B606517
:1038A0007CE009F101001FFA80F994F83A00012840
:1038B00002D005280BD106E0002084F83A0020460B
:1038C000FFF740FB51E0042084F83A004DE000256A
:1038D00094F83800042801D1606B456A0020E06547
:1038E000A4F86000FCF760FEE0642046FFF747FAAA
:1038F00094F83A00032802D007280BD106E02046AE
:10390000FFF720FB002084F83A0004E0042084F84C
:103910003A0000E000BF00BF032084F83900002017
:1039200084F8380005B395F83B0095F83C108842C0
:103930001AD095F83B0094F83B10884214D12846E1
:10394000FFF753F9804695F83C00404502DA95F8B8
:103950003C0000E04046804695F83B00404503D0DF
:1039600041462846FFF796FD00BF00BFA0693860BA
:103970003C681CB90020B88014E014E0B888401EF0
:10398000B8800020E061606DB04204D8606D361AE6
:103990000020606502E0606D801B6065606D00283E
:1039A0003FF47FAF00BFA7F80690BDE8F0870000A6
:1039B0007000002070B50446002600BF00BFFCF771
:1039C00035FC064600BF00BF1048006820440F4980
:1039D0000860FCF7E9FD05462046FFF74DFFFCF7C0
:1039E000E3FD401B0A4908600A48006809688842EC
:1039F00003D2074800680749086000BF00BF30468F
:103A0000FCF718FC00BF00BF70BD00006C00002078
:103A1000780000207C00002010B5002400BF00BF0B
:103A2000FCF704FC044600BF00BF084808490860D2
:103A30000848086201F10800FFF769F900BF00BFFC
:103A40002046FCF7F7FB00BF00BF10BD434F4E44BC
:103A50000C1D0020301D0020F8B5002600BF00BF5F
:103A6000FCF7E4FB064600BF00BFFCF79DFD0446E3
:103A70000E48C4620E4D286838B900BF00BF3046FA
:103A8000FCF7D8FB00BF00BFF8BD00231A46094968
:103A9000074808380094FFF799F900BF00BF304687
:103AA000FCF7C8FB00BF00BF00BFEDE7301D0020E2
:103AB000141D0020601D00202DE9F84307464FF03B
:103AC000000800BF00BFFCF7B1FB804600BF00BF8D
:103AD000FCF76AFD06463F48C66201463E48FFF7CE
:103AE00099F83C4D08353C4890F83B003A4991F82C
:103AF0003C1088420AD0384890F83C00364981F89A
:103B00003B00084690F83C0034490870286828B902
:103B100000203049486281F8280010E02C682D48C8
:103B2000446201202B4981F828002046FFF72AF83B
:103B300000231A46214627480096FFF747F93B46DF
:103B4000032225492648FFF773F800BF00BF40460F
:103B5000FCF770FB00BF00BFFDF7C0FF00BF00BF58
:103B6000FCF764FB804600BF00BF1A48406A80B97A
:103B700018491948FFF706F8174816494862012006
:103B800081F8280000BF00BF4046FCF753FB00BF90
:103B90001DE01048446A94F83B000F4991F83B102F
:103BA000884205DD0C4890F83B102046FFF772FC78
:103BB0000023042208490748FFF73AF800BF00BF76
:103BC0004046FCF737FB00BF00BFFDF787FFBDE8AD
:103BD000F8830000301D0020601D00202A00002016
:103BE0000C1D0020002181620749096811B90021DC
:103BF000C16205E004490968C16203490968886235
:103C000001490860704700008000002010B58AB0AC
:103C1000044600202A4908802A4908602A49086089
:103C20002A4908802A4800682A490968B0FBF1F04F
:103C3000294908600020294908602949086022466E
:103C400028A12C48FDF784FD208808B10AB010BDDA
:103C5000FFF7E2FE2848006818B947F24730208095
:103C6000F4E72648006826490968884203D247F2EB
:103C700048302080EAE7234800783F2803D347F202
:103C800046302080E2E70B20002105910A46CDE96D
:103C900007040691194800681B490968164B1B6800
:103CA000CDE90131CDE90302164800780023174A17
:103CB00017A100901C48FEF7B3F800BFC6E700004C
:103CC0008C0000208000002088000020840000205C
:103CD000644900086C4900089C0000209000002006
:103CE000940000204F5320546D72204D75746578F8
:103CF00000000000301D00207049000878490008CD
:103D0000604900086849000874490008FD3D000842
:103D100075432F4F532D4949492054696D657220D1
:103D20005461736B00000000601D00202DE9F04716
:103D3000054688462848006870B9002028616861F7
:103D4000254805600120254908802548C0F80080E5
:103D5000FFF782FEBDE8F08720480088401C1F491D
:103D60000880A86940441E490968461A1A48046830
:103D7000D4F818904E4510D2606970B9A9EB0600CE
:103D8000A061002068612C616561134805601448DA
:103D9000C0F80080FFF760FEDCE7A6EB09062746C7
:103DA0003C6903E0A069361A2746246914B1A0696A
:103DB000B042F7D94CB16769AE616F612C61A069FF
:103DC000801BA06165613D6104E0AE616F61002010
:103DD00028613D6100BFBDE788000020840000200D
:103DE000980000201CB501A800231A46194600902F
:103DF0000148FDF7EFFC1CBD301D00204FF0000A0C
:103E0000FFF7F0FF00BF3D48006810B94FF0000910
:103E100003E03A480068D0F818904846FFF74CFE97
:103E20003648006800B9EEE7FCF7BEFB804600BFED
:103E300000BFFCF7FBF9824600BF00BF30480768AF
:103E400000BF00BF5046FCF7F5F900BF00BF2D488A
:103E500000683D1A2B480760284804680CE0A069F8
:103E6000A84204D2A0692D1A0020A06103E0A06935
:103E7000401BA061002524690DB1002CEFD11F4823
:103E8000046826E0042084F82600A66816B12046BF
:103E9000E168B04794F82600042818D11948016851
:103EA000204600F035F8A08C022809D184F82600BD
:103EB000206AA061134801682046FFF737FF06E03B
:103EC000002060612061A061032084F826000B4877
:103ED000046814B1A0690028D4D0FCF765FBA0EBFE
:103EE000080009490860094800680968884203D247
:103EF000054800680549086085E700008800002043
:103F00006C00002098000020900000209400002009
:103F10002DE9F04105460F46D5F814802C69B8F11B
:103F2000000F40D154B90020294908602949088070
:103F3000A86129480760FFF78FFD46E02548008803
:103F4000401E24490880244800683E1A0020606111
:103F5000A069A9690844A0611D4804600EE0A06939
:103F6000B04204D2A069361A0020A06103E0A06923
:103F7000801BA0610026A046D8F810400EB1002C8E
:103F8000EDD1134800688069A969884203D11048BF
:103F90000068806918B910480760FFF75DFD0020D0
:103FA0002861A86111E00B480088401E094908807B
:103FB000C8F810402CB1C4F81480A069A96908445D
:103FC000A061002068612861A861BDE8F08100005F
:103FD00088000020840000209800002008B56A4670
:103FE00000210248FDF7D2FC08BD0000301D002072
:103FF000704710B5FCF7DEFCFEF7D4FB10BD0000E7
:104000001048006840F001000E49086000200D498A
:10401000083108600B4800680B49084009490860EE
:104020000A48091D0860081F006820F48020091F45
:104030000860002003490C3108604FF0006004491B
:104040000860704700380240FFFFF6FE1030002481
:1040500008ED00E000BFFEE702480068C0F3022060
:10406000704700000CED00E010B5002804DB0A07E3
:10407000130E054A135406E00A07140E034A00F013
:104080000F031B1FD45410BD00E400E018ED00E046
:1040900010B58AB01848194908604FF47A710820A1
:1040A00000F0A2FB00F02EFC4FF47A71B0FBF1F4AB
:1040B0002046FEF78FFB09A8FDF71EFA09A8032189
:1040C00000220592CDE90621089010464FF4807138
:1040D00019220B4BCDE90132CDE903100220002358
:1040E000084A09A100900B48FDF79AFE09A8FDF7C0
:1040F00043FD00200AB010BD0000000808ED00E0FC
:1041000068010020B51400084D61696E2054617388
:104110006B000000C00000202DE9F04F87B0804602
:10412000894617461E46DDF840B008F0F00000F062
:104130000F01002975D100110A2872D2DFE800F0C2
:10414000A80517293B4D5F728496BD4C00BF002027
:104150000190BC48006840F00100BA490860084678
:10416000006800F00100019000BF00BF94E0B64C71
:1041700000BF00200190B348006840F00200B14940
:1041800008600846006800F00200019000BF00BF10
:1041900082E0AE4C00BF00200190AA48006840F0C9
:1041A0000400A84908600846006800F00400019077
:1041B00000BF00BF70E0A64C00BF00200190A148E6
:1041C000006840F008009F4908600846006800F059
:1041D0000800019000BF00BF5EE09E4C00BF0020C1
:1041E00001909848006840F0100096490860084621
:1041F000006800F01000019000BF00BF4CE0964C3A
:1042000000BF002001908F48006840F020008D49D9
:1042100008600846006800F02000019000BF00BF61
:104220003AE035E08D4C00BF0020019085480068E1
:1042300040F04000834908600846006800F04000F4
:10424000019000BF00BF27E0854C00BF0020019017
:104250007C48006840F080007A49086008460068A1
:1042600000F08000019000BF00BF15E07D4C00BF52
:10427000002001907348006840F480707149086024
:104280000846006800F48070019000BF00BF03E0A2
:10429000002007B0BDE8F08F00BF08F00F00102825
:1042A00041D2DFE800F0080B0E1114171A1D20246C
:1042B000282C3034383C0120029036E00220029055
:1042C00033E00420029030E0082002902DE010201E
:1042D00002902AE02020029027E04020029024E073
:1042E0008020029021E04FF4807002901DE04FF496
:1042F0000070029019E04FF48060029015E04FF4D6
:104300000060029011E04FF4805002900DE04FF4F5
:104310000050029009E04FF48040029005E04FF415
:104320000040029001E00020B3E700BFCDF80C9000
:104330001FB1012F01D0022F01D1049701E000200D
:1043400004902EB1012E03D0022E01D0032E01D1F4
:10435000059601E002200590CDF818B002A920468C
:10436000FCF70CFA09F48030B0F5803F64D14FF0CF
:10437000FF0A0298B0F5807F42D012DC102838D0B6
:1043800008DC012825D0022827D0042829D00828B5
:1043900044D12AE0202830D040282FD080283DD199
:1043A0002DE0B0F5805F32D009DCB0F5007F28D079
:1043B000B0F5806F29D0B0F5006F2FD126E0B0F5B1
:1043C000005F25D0B0F5804F23D0B0F5004F25D148
:1043D00020E04FF0020A062521E04FF0020A0725EF
:1043E0001DE04FF0020A082519E04FF0020A0925E6
:1043F00015E04FF0020A0A2511E000BF00BF00BF20
:1044000000BF4FF0020A172509E000BF00BF00BF40
:1044100000BF00BF4FF0020A282500E000BF00BF28
:10442000BAF1FF0F07D0002251462846FCF79AFB4D
:104430002846FCF787FB00BF029880B229E70000FE
:1044400000000240303802400004024000080240F0
:10445000000C02400010024000140240001802400C
:10446000001C0240002002402DE9F84304460D469E
:1044700016461F46DDE9088905F0F00000F00F013F
:1044800021BB00110A2821D2DFE800F02005080B2B
:104490000E1114171A1D1648206019E015482060E7
:1044A00016E01548206013E01448206010E014481E
:1044B00020600DE0134820600AE01348206007E008
:1044C0001248206004E01248206001E0BDE8F88353
:1044D00000BF002043463A46314600902846FFF789
:1044E0001BFEA08084F807900120A07100BFEDE7BB
:1044F000000002400004024000080240000C02409C
:10450000001002400014024000180240001C02404B
:104510000020024070B504460D46A079012824D140
:10452000012D0ED1E079012805D1A1880122206852
:10453000FCF72DFA19E0A18800222068FCF727FA81
:1045400013E075B9E079012805D1A188002220681F
:10455000FCF71DFA09E0A18801222068FCF717FA90
:1045600003E0A1882068FCF709FA70BD2DE9F04747
:1045700086B00546884616461F46DDF838904FF04F
:10458000000A022D33DA05EBC50000EB40001B49A1
:1045900001EB800405A81A4901220023CDE901148A
:1045A000009203901A4617A1201DFEF71BF805A8DC
:1045B000174901220023CDE90114009203901A4605
:1045C00014A104F13400FEF70DF80020E070012082
:1045D000002302464146CDE9000604F16400FFF7DE
:1045E00043FF4A463946284600F01AF801E04FF0EA
:1045F000010A504606B0BDE8F087000068050020BB
:10460000554700084C656420546D725F4F6E000082
:10461000694600084C656420546D725F4F66660001
:104620002DE9F04105460E4617464FF00008022DD1
:1046300012DA05EBC50000EB40000A4901EB8004EB
:104640004EB1267001206070A770E07818B921463D
:10465000002000F07FF801E04FF001084046BDE87F
:10466000F081000068050020FEB507460E4634467E
:104670000025002104F16400FFF74CFF20780A2890
:104680004DD2DFE800F005202E2F30313213080B19
:104690000020E07043E00020E07040E00020E07087
:1046A000012104F16400FFF735FF38E0C825A07848
:1046B000002807DDA078401EA070A07810B9002067
:1046C000E07000252BE04FF4FA75A078002807DD94
:1046D000A078401EA070A07810B90020E0700025DE
:1046E0001DE000BF00BF00BF00BF60782178884296
:1046F00005DA6078401C60704FF4C8750EE0012048
:1047000060704FF4C865A078002807DDA078401ECF
:10471000A070A07810B90020E070002500BF00BF95
:10472000002D14DD05EB850040004FF47A71B0FBDD
:10473000F1F085B202A8064B2A462946CDE9004091
:10474000201DFDF7A5FF02A9201DFDF7BFFFFEBD3F
:1047500055470008FEB507460E46344600250121A0
:1047600004F16400FFF7D6FE20780A281ED2DFE8A5
:1047700000F005131718191A1B1608100020E07016
:1047800014E0002104F16400FFF7C4FE0020E07093
:104790000CE00020E07009E04FF4FA7506E000BF7D
:1047A00000BF00BF00BF00BF642500BF00BF002DD9
:1047B00016DD05EB850040004FF47A71B0FBF1F097
:1047C00085B202A8074B2A462946CDE9004004F1EC
:1047D0003400FDF75DFF02A904F13400FDF776FF18
:1047E000FEBD00006946000870B592B004460D4653
:1047F000302106A8FBF7C7FD142101A8FBF7C3FD74
:10480000FCF7E4F800BF002000903B48006840F04F
:104810008050394908600846006800F080500090D8
:1048200000BF00BF00BF0020009033481038006870
:1048300040F080003049103908600846006800F0F8
:104840008000009000BF00BF00BF002000902B48F8
:10485000006840F48040294908600846006800F478
:104860008040009000BF00BF012006900004079028
:104870000120099002200C9041050D910E944FF4F7
:10488000A8710F91022110910721119106A8FCF740
:10489000BDFB10B1012012B070BD0F2001900220AD
:1048A0000290002003904FF4A05004904FF48050E9
:1048B0000590042101A8FCF7C9F908B10120EAE735
:1048C000FCF740FBFCF76AF841F20101884205D190
:1048D0000B48006840F4807009490860FCF738FB19
:1048E000B0FBF5F63046FCF7C9FD0420FCF7B2FD3D
:1048F00062B60020CFE70000403802400070004060
:10490000003C024010B5FCF723FB10BD70B5044617
:104910000D4672B6FCF75AFAFCF776F970BD000046
:10492000B006002019000000000100000004000093
:10493000B00A002000010000000400002000000078
:1049400000020000B00E00203E0000000A0000003F
:10495000B010002019000000000100000004000059
:1049600040000000E80300003D0000000A000000D5
:10497000B014002019000000000100000004000035
:1049800000120000010000007856341200010000FF
:104990000000000000000000000000000000000017
:1049A0000000000000000000000000000000000007
:1049B00000000000000000000100000028000400CA
:1049C00000000000000000000000000000000000E7
:1049D00000000000000000000000000000000000D7
:1049E00001002000010010000C0010000000000079
:1049F00000000000000000000000000000000000B7
:104A000000000000000000000000000000000000A6
:104A10000000000000000000000000000101000094
:104A2000300000000C0020004000080004000000DE
:104A30000000000000000000000000000000000076
:104A40000000000000000000000000000000000066
:104A50000000000000000000000000000000000056
:104A60000101010030000000000000000000000013
:104A70000000000000000000000000000000000036
:104A80000000000000000000000000000000000026
:104A90000101000128000C000003000004010101D5
:104AA0000100000101000001A80008000000000052
:104AB00000000000000000000000000000000000F6
:104AC00000000000000000000000000000000000E6
:104AD00000000000000000000000000000000000D6
:104AE00001003000EF770000ED1100000000000031
:104AF000000000000102030406070809000000008E
:104B000001020304244B000800000020C000000044
:104B1000C4010008E44B0008C0000020A8350000D4
:104B2000E00100080000000000000000000000009C
:104B30000000000000000000000000000000000075
:104B40000000000000000000000000000000000065
:104B50000000000000000000000000000000000055
:104B60000000000000000000000000000000000045
:104B70000000000000000000000000000000000035
:104B80000000000000000000000000000000000025
:104B90000000000000000000000000000000000015
:104BA0000000000000000000000000000000000005
:104BB00000000000000000000000000000000000F5
:104BC00000000000000000000000000000000000E5
:104BD000000000000024F4000000000010000000AD
:044BE00001000000D0
:040000050800018965
:00000001FF
