:020000040800F2
:10000000F83C00205902000809210008A720000838
:100010000521000849050008755600080000000089
:10002000000000000000000000000000114F000868
:100030003F09000800000000D5040008134F000825
:1000400073020008730200087302000873020008BC
:100050007302000873020008410900089B090008A8
:10006000B3090008CB090008E3090008B50500083A
:10007000DD050008050600082D06000855060008E5
:100080007D060008A5060008730200087302000838
:10009000730200087302000873020008FB090008DD
:1000A000730200087302000873020008730200085C
:1000B000730200087302000873020008730200084C
:1000C000730200087302000873020008730200083C
:1000D00073020008B5550008E555000815560008DC
:1000E000590900087302000873020008730200082F
:1000F000730200087302000873020008CD060008AE
:1001000073020008730200087302000873020008FB
:10011000754F0008A54F000873020008730200081D
:10012000F50600081D070008450700086D070008D0
:10013000950700080000000000000000730200089E
:1001400073020008730200087302000873020008BB
:10015000BD070008E50700080D080008455600081F
:10016000730200087302000873020008730200089B
:100170007302000873020008000000000000000085
:10018000730200087302000800F002F800F03AF869
:100190000AA090E8000C82448344AAF10107DA45E2
:1001A00001D100F02FF8AFF2090EBAE80F0013F0FA
:1001B000010F18BFFB1A43F00103184774690000D0
:1001C00094690000103A24BF78C878C1FAD8520761
:1001D00024BF30C830C144BF04680C6070470000C1
:1001E0000023002400250026103A28BF78C1FBD840
:1001F000520728BF30C148BF0B6070471FB51FBDF5
:1002000010B510BD00F0EFF81146FFF7F7FF05F04D
:100210004FFA00F00DF903B4FFF7F2FF03BC00F052
:1002200011F9000072B6704762B67047EFF31080A4
:1002300072B6704780F31088704730BF704720BF98
:100240007047B0FA80F0704790FAA0F0B0FA80F0F2
:10025000704790FAA0F07047094880470948004766
:10026000FEE7FEE7FEE7FEE7FEE7FEE7FEE7FEE766
:10027000FEE7FEE704480549054A064B70470000C3
:10028000214F000889010008F8240020F83C0020D4
:10029000F82C0020F82C002053EA020C00F06980B2
:1002A0002DE9F04B4FF00006002B1FBFB3FA83F58A
:1002B00003FA05F424FA05F65E4012BF1643B2FABB
:1002C00082F502FA05F4C5F120051EBF22FA05FCED
:1002D00044EA0C04203556EA044C4FEA144418BF93
:1002E000641C4FF000084FF00009904271EB030CC2
:1002F00039D3002919BFB1FA81F701FA07F6B0FA2C
:1003000080F700FA07F6C7F120071EBF20FA07FCA6
:1003100046EA0C062037B6FBF4FCA7EB0507103FB6
:1003200007F01F0BCBF120060CFA0BFB2CFA06F69C
:1003300044BFB3460026202FA4BF5E464FF0000BFB
:100340005BEA060C08BF4FF0010B19EB0B09ABFB86
:10035000027C48EB0608C01B06FB02CC0BFB03CC5F
:1003600071EB0C01C1E70B46024641464846BDE829
:10037000F08B13B54FF000004FF00001AFF3008099
:10038000BDE81C4070474FF0000200B5134694468C
:100390009646203922BFA0E80C50A0E80C50B1F1DD
:1003A0002001BFF4F7AF090728BFA0E80C5048BFF1
:1003B0000CC05DF804EB890028BF40F8042B08BF8F
:1003C000704748BF20F8022B11F0804F18BF00F88B
:1003D000012B704770477047704700000048704716
:1003E0009824002070477546FFF7F8FFAE460500D9
:1003F0006946534620F00700854618B020B5FFF740
:1004000039FFBDE820404FF000064FF000074FF0E5
:1004100000084FF0000B21F00701AC46ACE8C00922
:10042000ACE8C009ACE8C009ACE8C0098D4670472B
:1004300010B50446AFF300802046BDE81040FFF73A
:10044000EABE000001491820ABBEFEE7260002000C
:1004500072B64EF62250CEF2000040F2FF01C0F21A
:1004600000010170002080F3098840F2AC00C2F264
:100470000000016881F3088802F0A8FF40F22E0016
:10048000C2F2000040F22F01C2F200010A780270AD
:1004900040F2A400C2F2000040F2A801C2F2000142
:1004A0000A680260106880F30988EFF3148040F056
:1004B000020080F31488BFF36F8FBDE8F04F0FBCCC
:1004C000BDE8005006BC62B608471E484FF0805198
:1004D0000160704772B640F2B002C2F200021168C9
:1004E00081F31188BFF34F8FBFF36F8F62B6EFF3C5
:1004F000098020E9F04F40F2A405C2F20005296806
:100500000860744602F062FF40F22E00C2F2000062
:1005100040F22F01C2F200010A78027040F2A801F5
:10052000C2F200010A682A6044F0040E1068B0E8C4
:10053000F04F80F3098840F20002C0F2000282F31B
:100540001188704704ED00E000BFFEE710B500F031
:1005500001F810BD10B500200249086000F00AF84B
:1005600010BD000004000020014908607047000031
:100570000400002010B505F0BBFE044608480068E2
:1005800040F080700649086000200649486008462F
:10059000006840F0010008602046FFF7E5FF10BD4D
:1005A000FCED00E0001000E00148406870470000EA
:1005B000001000E010B501F055FE0748006820B1BA
:1005C0000549086800F048FA02E00B2000F068FED8
:1005D00001F05EFE10BD0000000D002010B501F01E
:1005E00041FE0748406820B10549486800F034FAE8
:1005F00002E00C2000F054FE01F04AFE10BD0000A5
:10060000000D002010B501F02DFE0748806820B1D4
:100610000549886800F020FA02E00D2000F040FE55
:1006200001F036FE10BD0000000D002010B501F0F5
:1006300019FE0748C06820B10549C86800F00CFAE7
:1006400002E00E2000F02CFE01F022FE10BD0000A2
:10065000000D002010B501F005FE0748006920B12B
:100660000549086900F0F8F902E00F2000F018FED3
:1006700001F00EFE10BD0000000D002010B501F0CD
:10068000F1FD0748406920B10549486900F0E4F9E7
:1006900002E0102000F004FE01F0FAFD10BD0000A1
:1006A000000D002010B501F0DDFD0748806920B184
:1006B0000549886900F0D0F902E0112000F0F0FD52
:1006C00001F0E6FD10BD0000000D002010B501F0A6
:1006D000C9FD0748C06920B10549C86900F0BCF9E7
:1006E00002E02F2000F0DCFD01F0D2FD10BD000083
:1006F000000D002010B501F0B5FD0748006820B1DD
:100700000549086800F0A8F902E0382000F0C8FDAB
:1007100001F0BEFD10BD0000200D002010B501F05D
:10072000A1FD0748406820B10549486800F094F9E8
:1007300002E0392000F0B4FD01F0AAFD10BD000078
:10074000200D002010B501F08DFD0748806820B114
:100750000549886800F080F902E03A2000F0A0FD29
:1007600001F096FD10BD0000200D002010B501F035
:1007700079FD0748C06820B10549C86800F06CF9E8
:1007800002E03B2000F08CFD01F082FD10BD000076
:10079000200D002010B501F065FD0748006920B16B
:1007A0000549086900F058F902E03C2000F078FDA6
:1007B00001F06EFD10BD0000200D002010B501F00D
:1007C00051FD0748406920B10549486900F044F9E6
:1007D00002E0442000F064FD01F05AFD10BD00006D
:1007E000200D002010B501F03DFD0748806920B1C3
:1007F0000549886900F030F902E0452000F050FD1D
:1008000001F046FD10BD0000200D002010B501F0E4
:1008100029FD0748C06920B10549C86900F01CF9E5
:1008200002E0462000F03CFD01F032FD10BD00006A
:10083000200D00200146087810381823B0FBF3F291
:100840000848805CC865032A05D908686FF3090069
:10085000001D886503E008686FF309008865886DEE
:1008600070470000286B0008014600208A6A8B69E7
:10087000CBB932B1012A0DD0022A03D0032A10D1FC
:100880000EE000BFCB6A03F08073B3F1807F00D12C
:10089000012007E0CB6AB3F1C07F00D1012001E065
:1008A00000E000BF34E08B69B3F5005F1AD132B1CC
:1008B000012A07D0022A03D0032A11D10AE000BF7F
:1008C00001200EE0CB6A03F08073B3F1807F00D18A
:1008D000012006E0CB6AB3F1C07F00D1012000E027
:1008E00000BF15E032B1012A05D0022A04D0032A44
:1008F0000CD103E000BF00BF012008E0CB6A03F089
:100900008073B3F1807F00D1012000E000BF00BF01
:10091000704730B50468246824F4802405682C608E
:10092000046863608468402C04D10468A260046891
:10093000E16003E00468A1600468E26030BD7047D4
:1009400010B501F08FFC012000F0CAFA062000F07B
:10095000A7FC01F09DFC10BD10B501F083FC4FF425
:10096000806000F0BDFA4FF4006000F0B9FA4FF477
:10097000805000F0B5FA4FF4005000F0B1FA4FF497
:10098000804000F0ADFA4FF4004000F0A9FA2820B2
:1009900000F086FC01F07CFC10BD10B501F062FC9B
:1009A000022000F09DFA072000F07AFC01F070FCB4
:1009B00010BD10B501F056FC042000F091FA08209B
:1009C00000F06EFC01F064FC10BD10B501F04AFCB3
:1009D000082000F085FA092000F062FC01F058FCC4
:1009E00010BD10B501F03EFC102000F079FA0A208D
:1009F00000F056FC01F04CFC10BD10B501F032FCCB
:100A0000202000F06DFA402000F06AFA802000F00B
:100A100067FA4FF4807000F063FA4FF4007000F052
:100A20005FFA172000F03CFC01F032FC10BD0146DB
:100A300091F83500022803D08020486501207047D6
:100A4000052081F835000868006820F001000A6878
:100A500010600020F3E70000F8B504460020009085
:100A60008C4800684FF41651B0FBF1F7A56D2E6865
:100A700094F85C1008208840304098B120680068E5
:100A800000F0040070B12068006820F004002168C4
:100A9000086094F85C1008208840A860606D40F001
:100AA0000100606594F85C1001208840304068B116
:100AB0002068406900F0800040B194F85C1001208B
:100AC0008840A860606D40F00200606594F85C109A
:100AD00004208840304068B12068006800F00200BF
:100AE00040B194F85C1004208840A860606D40F02C
:100AF0000400606594F85C1010208840304078B3A2
:100B00002068006800F0080050B394F85C101020D2
:100B10008840A8602068006800F4802080B12068C8
:100B2000006800F4002028B9206CC8B12046216C70
:100B3000884715E0A06C98B12046A16C88470FE06B
:100B40002068006800F4807028B92068006820F0F0
:100B5000080021680860206C10B12046216C88478D
:100B600094F85C10202088403040002865D0206830
:100B7000006800F0100000285FD094F85C1020207E
:100B80008840A86094F83500052828D120680068BE
:100B900020F01600216808602068406920F080007D
:100BA00021684861206C08B9A06C28B120680068F1
:100BB00020F008002168086094F85C103F2088400D
:100BC000A86000BF002084F8340000BF012084F832
:100BD0003500206D10B12046216D8847F8BD206892
:100BE000006800F4802080B12068006800F40020D4
:100BF00028B9606C10B12046616C88471DE0E06B3D
:100C0000D8B12046E16B884717E02068006800F4FF
:100C1000807068B92068006820F0100021680860C2
:100C200000BF002084F8340000BF012084F83500A4
:100C3000E06B10B12046E16B8847606D38B3606DA2
:100C400000F00100F0B1052084F83500206800684C
:100C500020F001002168086000BF0098401C00904F
:100C6000B84200D905E02068006800F001000028C3
:100C7000F3D100BF00BF002084F8340000BF012082
:100C800084F83500E06C10B12046E16C884700BF65
:100C9000A4E70000B40000202DE9F041044600253F
:100CA00000F042FA074614B90120BDE8F081606AFD
:100CB00000B100BF00BF002084F8340000BF022054
:100CC00084F835002068006820F001002168086081
:100CD0000AE000F029FAC01B052805D9202060652C
:100CE000032084F83500E0E72068006800F0010088
:100CF0000028EED12068056821480540D4E90101AB
:100D00000843E16808432169084361690843A16910
:100D10000843E1690843216A08430543606A0428DF
:100D200003D1D4E90B01084305432068056020681E
:100D3000456925F00705606A0543606A04280DD1FE
:100D4000A06A0543E06A48B12046FFF78DFD28B14F
:100D500040206065012084F83500A6E720684561E1
:100D60002046FFF767FD064694F85C103F20884058
:100D7000B06000206065012084F83500002094E711
:100D80003F8010F02DE9F04704460D4616461F46F9
:100D90004FF00008D4F8589000BF94F834000128B0
:100DA00002D10220BDE8F087012084F8340000BFA2
:100DB00094F8350001282BD1022084F8350000205A
:100DC00060653B46324629462046FFF7A2FD94F86F
:100DD0005C103F208840C9F808002068006840F097
:100DE0001600216808602068406940F08000216892
:100DF0004861206C28B12068006840F00800216834
:100E000008602068006840F001002168086006E082
:100E100000BF002084F8340000BF4FF002084046B5
:100E2000C0E7000070B50546B5F5807F3BD012DC09
:100E3000102D30D008DC012D25D0022D25D0042D19
:100E400025D0082D3FD124E0202D26D0402D26D0BE
:100E5000802D38D125E0B5F5805F2CD009DCB5F5C3
:100E6000007F22D0B5F5806F21D0B5F5006F2AD173
:100E70001FE0B5F5005F20D0B5F5804F1FD0B5F568
:100E8000004F20D11DE000241FE001241DE00224BA
:100E90001BE0032419E0042417E0052415E00624D0
:100EA00013E0072411E008240FE009240DE00A24D0
:100EB0000BE00B2409E00C2407E00D2405E00E24D0
:100EC00003E00F2401E0102400BF00BF102C04DA5F
:100ED000024850F824102846884770BD740C002042
:100EE00010B5044604480068204020B10248046060
:100EF0002046FFF797FF10BD143C0140F8B50246AD
:100F00000B460025002400200021DCE0012606FA23
:100F100001F51E6806EA0504AC4273D15E68022E34
:100F200002D05E68122E13D1CF0802F1200656F8C7
:100F300027004E07F70E0F26BE40B0434F07FF0EA7
:100F40001E69BE403043CF0802F1200646F8270054
:100F500010684F000326BE40B0431E7906F003061A
:100F60004F00BE40304310605E68012E08D05E68BE
:100F7000022E05D05E68112E02D05E68122E13D1AB
:100F800090684F000326BE40B0434F00DE68BE406D
:100F900030439060506801268E40B0431E79C6F3FE
:100FA00000168E4030435060D0684F000326BE408C
:100FB000B0434F009E68BE403043D0605E6806F08C
:100FC0008056B6F1805F7DD100BF00260096404E6E
:100FD000366846F480463E4F3E603E46366806F42C
:100FE0008046009600BF00BF3A4E8F0856F8270093
:100FF0008E07370F0F26BE40B043374EB24202D1A4
:10100000002624E05EE0354EB24201D101261EE00A
:10101000334EB24201D1022619E0324EB24201D122
:10102000032614E0304EB24201D104260FE02F4EC9
:10103000B24201D105260AE02D4EB24201D1062668
:1010400005E02C4EB24201D1072600E008268F07AA
:101050003F0FBE4030431F4E8F0846F82700264EF4
:101060003068A0435E6806F48036B6F5803F00D154
:101070002043214E3060361D3068A0435E6806F480
:101080000036B6F5003F00D120431B4E361D3060C0
:10109000361D3068A0435E6806F48016B6F5801FE2
:1010A00000D12043144E08363060361D3068A0430E
:1010B0005E6806F40016B6F5001F00D120430E4E00
:1010C0000C363060491C1029FFF420AFF8BD000039
:1010D0004438024008380140000002400004024049
:1010E00000080240000C02400010024000140240C0
:1010F00000180240001C0240003C014042690A40C6
:101100008A4202D10A04826100E0816170470AB11B
:10111000816101E00B0483617047000001480068B1
:10112000000C7047002004E0014800687047000090
:10113000B8000020034800680349097808440149C1
:1011400008607047B8000020C000002010B50D48AE
:10115000006840F400700B4908600846006840F4DD
:10116000806008600846006840F4807008600320D2
:1011700000F0F6F80F2000F007F800F02BF8002040
:1011800010BD0000003C024070B504460E480078D7
:101190004FF47A71B1FBF0F00C490968B1FBF0F53E
:1011A000284600F04BFD08B1012070BD102C07D27D
:1011B00000222146501E00F095F80548046001E029
:1011C0000120F2E70020F0E7C0000020B40000207A
:1011D000BC00002000B585B000BF002003902B4864
:1011E000006840F48040294908600846006800F41F
:1011F0008040039000BF00BF00BF00200390081F85
:10120000006840F08050091F08600846006800F040
:101210008050039000BF00BF032000F0A1F800221F
:1012200011466FF00B0000F05DF8002211466FF0E0
:101230000A0000F057F8002211466FF0090000F094
:1012400051F800221146501F00F04CF800221146C0
:10125000101F00F047F800220F21901E00F042F806
:1012600000220821501E00F03DF804A80021084A81
:101270000123CDE90032CDE902100B460A4605A153
:10128000064802F027F905B000BD000044380240CE
:10129000F9620008546D725F53797300B40C00203A
:1012A00010B501460846002807DB00F01F030122A5
:1012B0009A40034B440943F8242000BF10BD0000AE
:1012C00080E200E001460846002809DB00F01F0329
:1012D00001229A4043099B0003F1E023C3F8002157
:1012E00000BF70472DE9F05F80460D461646002787
:1012F00004F0C2F9074639462A46334601F0070092
:10130000C0F1070ABAF1040F02D94FF0040A01E054
:10131000C0F1070AD14600F1040ABAF1070F02D260
:101320004FF0000A01E0A0F1030AD4464FF0010A91
:101330000AFA09FAAAF1010A0AEA020A0AFA0CFAF6
:101340004FF0010B0BFA0CFBABF1010B0BEA030B9B
:101350004AEA0B042146404604F096F9BDE8F09FA6
:1013600000BF00F00702064B19684FF6FF03194053
:10137000044B0B4343EA0221014B196000BF704745
:101380000CED00E00000FA0500BF00BF00BF00BF89
:1013900000BFBFF34F8F00BF00BF00BF0948006808
:1013A00000F4E06008490843001D0649086000BFDA
:1013B00000BF00BFBFF34F8F00BF00BF00BF00BF23
:1013C00000BFFDE70CED00E00000FA0570B5044633
:1013D0000D460CB9012070BD5848006800F00F00A0
:1013E000A84209D255490D700846006800F00F0068
:1013F000A84201D00120EEE7207800F00200022888
:101400001DD1207800F00400042805D14C48006864
:1014100040F4E0504A490860207800F008000828AD
:1014200005D14748006840F4604045490860444899
:10143000006820F0F000A168084341490860207866
:1014400000F00100A8B36068012807D13C480838C3
:101450000068C0F34040B8B90120BCE760680228CA
:1014600002D06068032807D1354808380068C0F307
:10147000406048B90120AEE7314808380068C0F341
:10148000400008B90120A6E72D48006820F00300BD
:10149000616808432A490860FFF746FE064609E0EE
:1014A000FFF742FE801B41F28831884202D90320B7
:1014B00091E707E02248006800F00C006168B0EB9B
:1014C000810FEDD11D48006800F00F00A84209D936
:1014D0001A490D700846006800F00F00A84201D0BC
:1014E000012078E7207800F00400042807D1144890
:1014F000006820F4E050E168084311490860207852
:1015000000F00800082808D10D48006820F4604069
:10151000216940EAC1000A49086000F0FFF8084963
:101520000968C1F30311074A515CC84006490860C5
:101530000F20FFF729FE00204DE70000003C02408D
:1015400008380240106B0008B400002010B5FFF707
:10155000EBFD04465648006840F00100544908601D
:1015600006E0FFF7E1FD001B022801D9032010BDB2
:101570004F48006800F002000028F2D04C48006894
:1015800040F080004A490860FFF7CEFD0446002085
:1015900047490831086008E0FFF7C6FD001B41F22B
:1015A0008831884201D90320E1E7414808300068CA
:1015B00000F00C000028EFD1FFF7B6FD04463C48D0
:1015C000006820F450203A49086006E0FFF7ACFDBF
:1015D000001B642801D90320C9E73548006800F4DE
:1015E00000300028F2D1FFF79FFD04463048006824
:1015F00020F080702E49086006E0FFF795FD001B83
:10160000022801D90320B2E72948006800F00070E1
:101610000028F2D1FFF788FD04462548006820F035
:1016200080602349086006E0FFF77EFD001B02286A
:1016300001D903209BE71E48006800F000600028E5
:10164000F2D11C481A49091D08601B481849843109
:10165000086017480C30006820F4F85014490C3129
:1016600008600846006820F40050086008460068DA
:1016700040F41F0008600846006840F4001008604D
:101680000B487430006820F001000949743108608B
:101690000846006840F08070086008480849086003
:1016A0000F20FFF771FD08B1012060E700205EE721
:1016B0000038024010300004003000200024F40004
:1016C000B400002001200149C8647047000047426F
:1016D0000148006870470000B400002000B5FFF723
:1016E000F7FF04490968C1F38221034A515CC840ED
:1016F00000BD000008380240206B000800B5FFF76D
:10170000E7FF04490968C1F34231034A515CC8400C
:1017100000BD000008380240206B00082DE9F047AA
:10172000002400250026A1462548006800F00C0092
:1017300020B1042805D008283AD105E0DFF88490CC
:1017400039E0DFF8849036E01D48001F006800F0A3
:101750003F041B48001F006800F4800078B11A485D
:101760001749091F0968C1F38811A0FB01700146E0
:10177000224600233846FEF78FFD05460EE011484D
:101780000F49091F0968C1F38811A0FB01700146C8
:10179000224600233846FEF77FFD05460848001F15
:1017A0000068C0F30140401C4600B5FBF6F902E0BA
:1017B000DFF8109000BF00BF4846BDE8F08700008A
:1017C000083802400024F40000127A00F8B50446FC
:1017D0000CB90120F8BD207800F00100002874D079
:1017E000F948006800F00C0004280DD0F6480068A5
:1017F00000F00C00082813D1F348001F006800F423
:101800008000B0F5800F0BD1EF4808380068C0F3B6
:101810004040002859D06068002856D10120D9E7FF
:1018200000BF6068B0F5803F08D1E748083800681D
:1018300040F48030E449083908601EE06068B0F583
:10184000A02F0DD1E0480838006840F48020DE4920
:10185000083908600846006840F4803008600CE0F1
:10186000D9480838006820F48030D7490839086022
:101870000846006820F48020086000BF606890B1CE
:10188000FFF752FC054606E0FFF74EFC401B6428BC
:1018900001D903209EE7CC4808380068C0F34040D7
:1018A0000028F1D011E0FFF73FFC054606E0FFF706
:1018B0003BFC401B642801D903208BE7C248083851
:1018C0000068C0F340400028F1D1207800F0020009
:1018D00002285FD1BC48006800F00C0058B1BA483B
:1018E000006800F00C0008281CD1B748001F0068F1
:1018F00000F48000B0B9B44808380068C0F3400074
:1019000020B1E068012801D0012063E7AE48083823
:10191000006820F0F800216940EAC100AA490839AE
:10192000086037E0E06800B30120A8490860FFF7CD
:10193000FBFB054606E0FFF7F7FB401B022801D939
:10194000032047E7A04808380068C0F3400000289B
:10195000F1D09D480838006820F0F800216940EA7D
:10196000C10099490839086014E0002097490860CF
:10197000FFF7DAFB054606E0FFF7D6FB401B02281F
:1019800001D9032026E7904808380068C0F34000DA
:101990000028F1D1207800F0080008282CD16069D7
:1019A000A8B101208A490860FFF7BEFB054606E0A2
:1019B000FFF7BAFB401B022801D903200AE782483F
:1019C0006C300068C0F340000028F1D014E0002023
:1019D0007F490860FFF7A8FB054606E0FFF7A4FB78
:1019E000401B022801D90320F4E677486C300068D8
:1019F000C0F340000028F1D1207800F00400042852
:101A000070D1002670483830006800F0805090B9DE
:101A100000BF002000906C483830006840F08050D3
:101A20006949383108600846006800F0805000902D
:101A300000BF00BF01266748006800F48070B0B99D
:101A40006448006840F4807062490860FFF76CFBEE
:101A5000054606E0FFF768FB401B022801D903207A
:101A6000B8E65C48006800F480700028F2D000BF3F
:101A7000A068012808D154486830006840F001008F
:101A80005149683108601DE0A06805280DD14E4815
:101A90006830006840F004004B496831086008462F
:101AA000006840F0010008600CE0474868300068BA
:101AB00020F001004449683108600846006820F0C1
:101AC0000400086000BFA068A8B1FFF72DFB054621
:101AD00009E0FFF729FB401B41F28831884202D917
:101AE000032077E626E0384868300068C0F34000FD
:101AF0000028EED013E0FFF717FB054608E0FFF7DC
:101B000013FB401B41F28831884201D9032061E672
:101B10002D4868300068C0F340000028EFD1012E46
:101B200007D129483830006820F0805026493831E4
:101B3000086000BFA069B8B32348006800F00C003B
:101B400008285ED0A069022846D100201F490866F7
:101B5000FFF7EAFA054606E0FFF7E6FA401B02281F
:101B600001D9032036E6184808380068C0F3406001
:101B70000028F1D1D4E907010843616A40EA8111E4
:101B80000122A06AC2EB500041EA00412C20005D16
:101B900041EA00600C49091F086001200B490866F2
:101BA000FFF7C2FA054607E02DE0FFF7BDFA401B3C
:101BB000022801D903200DE6034808380068C0F365
:101BC00040600028F1D01EE0083802400000474283
:101BD000800E47420070004000200C490866FFF765
:101BE000A3FA054606E0FFF79FFA401B022801D939
:101BF0000320EFE506480068C0F340600028F2D1FA
:101C000001E00120E6E50020E4E500000000474295
:101C100000380240042808D14FF0E021096941F062
:101C200004014FF0E022116107E04FF0E021096963
:101C300021F004014FF0E0221161704770B50446B5
:101C40002546681EB0F1807F01D301200FE0681E99
:101C50004FF0E02148610F214FF0FF3003F014FDF9
:101C600000204FF0E021886107200861002070BD4E
:101C70007047000010B504462068C06820F49070DA
:101C80002168C8602068406920F00100216848612F
:101C90002068406900F0400040281BD1206840695E
:101CA00020F0400021684861606B50B10E48616BC4
:101CB0000865606BFEF7BBFEA0B1606B016D8847E5
:101CC00010E00020E085202084F83A002046FFF74D
:101CD000CFFF07E00020E085202084F83A0020466E
:101CE000FFF7C6FF002010BD8D50000870470000B0
:101CF0002DE9F0470446206805682068C66820681A
:101D000047694FF00008C14605F00F08B8F1000F11
:101D10000AD105F0200038B106F0200020B120469D
:101D200003F00CFABDE8F087B8F1000F6ED007F0B1
:101D3000010018B906F49070002867D005F0010082
:101D400030B106F4807018B1E06B40F00100E06340
:101D500005F0040030B107F0010018B1E06B40F06D
:101D60000200E06305F0020030B107F0010018B195
:101D7000E06B40F00400E06305F0080030B107F0CC
:101D8000010018B1E06B40F00800E063E06B70B355
:101D900005F0200028B106F0200010B1204603F025
:101DA000CDF920684069C0F38019E06B00F00800AD
:101DB00010B9B9F1000F23D0204603F095F920683F
:101DC000406900F04000402816D12068406920F0AA
:101DD000400021684861606B50B11748616B08652D
:101DE000606BFEF724FE10B1606B016D88470CE05C
:101DF0002046FFF77BFF08E02046FFF777FF04E06F
:101E00002046FFF773FF0020E0638BE705F08000BA
:101E100030B106F0800018B1204603F097FB81E74F
:101E200005F0400030B106F0400018B1204603F044
:101E30006BF977E700BF75E7D54F000810B504468A
:101E40000CB9012010BDA06900B100E000BF94F8FA
:101E5000390028B9002084F83800204600F027F81F
:101E6000242084F839002068C06820F400502168DC
:101E7000C860204603F0B6F92068006920F490405D
:101E8000216808612068406920F02A0021684861C3
:101E90002068C06840F400502168C8600020E063FA
:101EA000202084F8390084F83A000020CAE77047FF
:101EB00077B581B00446154694F83A00202850D1F1
:101EC000029800B115B9012004B070BD00BF94F8AC
:101ED0003800012801D10220F6E7012084F83800FB
:101EE00000BF0298A062A5850020E063222084F84C
:101EF0003A001D48616BC8631C48616B08641C484C
:101F0000616BC8640020616B086502AE32682368AB
:101F1000191D2B46606BFEF735FF00BF00200090B7
:101F200020680068009020684068009000BF00BFF3
:101F300000BF002084F8380000BF2068C06840F46B
:101F400080702168C8602068406940F00100216805
:101F500048612068406940F04000216848610020E5
:101F6000B2E70220B0E70000395000087F500008B7
:101F7000E94F00087047000070B504461048056836
:101F800020680068C0F30010C8B1A08D616B0968BB
:101F90004968461A204604F0B9F90CE0AC4208D171
:101FA000D5F80C0120B131462046D5F80C219047D8
:101FB00003E0D5F80851002DF0D100BF00BF70BD7F
:101FC0000000002070470000F7B50446154694F85D
:101FD000390020283DD1019800B10DB90120FEBD86
:101FE00000BF94F83800012801D10220F7E7012052
:101FF00084F8380000BF01982062A584E5840020A1
:10200000E063212084F839001348216BC86313482A
:10201000216B08641248216BC8640020216B08659D
:1020200001AE23681A1D31682B46206BFEF7AAFE0D
:102030006FF040002168086000BF002084F838007D
:1020400000BF2068406940F080002168486100209E
:10205000C5E70220C3E70000A5500008DB500008D8
:10206000E94F000870B505460C4804680121284670
:1020700004F068F90A48296808600BE0A54207D116
:10208000D4F8100118B12846D4F81011884703E09D
:10209000D4F80841002CF1D100BF70BD0000002031
:1020A0003FFFFFEF704700BFFEE700001CB5FEF7E3
:1020B0004DFA01A800F0B0FD0020012302461421D2
:1020C000009003F04DFE002001234FF4E1324FF267
:1020D0003201009003F082FF11E000234FF4FA7206
:1020E0000749184603F0C6FF0446002C06DDA2B2DD
:1020F0004FF4FA630249002004F022F800BFECE735
:102100007005002000BFFEE77047704770B50446B9
:1021100000F08EF8002033490870334908703349C5
:1021200008703349086033490860334908703349FF
:1021300008703348056845B13248066803E0761EEA
:10214000002028602D1D002EF9D100202E49087096
:1021500001F01EFE01F05CFE00202C4908602C49B5
:102160000880204601F034FC208800B170BD204674
:1021700001F03AFC208800B1F8E70020254908600A
:1021800025490880254908602549088025490860B7
:1021900025490880204602F0BBF9208800B1E5E718
:1021A000204601F0DDFB208800B1DFE7204602F089
:1021B0001DFA208800B1D9E7204602F075F8208882
:1021C00000B1D3E7204602F0B1FC208800B1CDE792
:1021D00001F094FAFFF799FF01201449087000BF3D
:1021E000C4E700000C0000200D0000203E0000208D
:1021F000A4000020A80000202E0000202F000020B6
:1022000054690008586900086E000020180000207A
:102210001C000020280000202C0000203800002096
:102220003C00002040000020440000200E00002060
:10223000084800680849096800EB81000749086000
:102240000846006820F00700086001200449086083
:10225000704700005469000858690008AC0000206D
:10226000B000002008480078012800D070470748D7
:102270000078FA2800D3F9E704480078401C0349A5
:10228000087000BFF2E700000D0000200C000020E5
:1022900010B500242B480078012800D010BD00BFE5
:1022A000FDF7C4FF044600BF2748007828B900BFE7
:1022B0002046FDF7BFFF00BFF0E723480078401E2F
:1022C000214908700846007828B100BF2046FDF774
:1022D000B1FF00BFE2E71D48007828B100BF2046EB
:1022E000FDF7A8FF00BFD9E701F03EFD18490870CF
:1022F0000846007800EB4000164951F820001649C6
:1023000008600846006815490968884205D100BF81
:102310002046FDF78FFF00BFC0E70F480068806FC1
:10232000401C0D49096888670D480068401C0C492D
:102330000860FEF7CAF800BF2046FDF77BFF00BF2C
:1023400000BFABE70D0000200C0000203E00002085
:102350002F000020F41F0020A8000020A40000206F
:10236000640000202DE9F04104460E461546002782
:1023700000BF00BFFDF75AFF074600BF00BF184966
:10238000206888420BD100BF00BF3846FDF752FFDE
:1023900000BF00BF45F6C1502880BDE8F08110485D
:1023A0002060666000202062606284F82800E0629D
:1023B00004F1080001F023FC204601F043FB09482A
:1023C0000088401C0749088000BF00BF3846FDF761
:1023D00031FF00BF00BF0020288000BFDDE7000004
:1023E0004D5554582C0000202DE9F04705468846ED
:1023F00091461C46089E4FF0000A00BF00BFFDF743
:1024000015FF824600BF00BF95F82800C0B962489A
:1024100000686862012085F828000CB1E86A206035
:1024200029465D48006801F025FB00BF00BF50460B
:10243000FDF700FF00BF00BF00203080BDE8F0873F
:102440005549686A0968884221D195F82800FF2813
:102450000AD100BF00BF5046FDF7ECFE00BF00BF31
:1024600045F284703080E9E795F82800401C85F833
:1024700028000CB1E86A206000BF00BF5046FDF79D
:10248000D9FE00BF00BF45F282703080D6E709F464
:10249000004068B100BF00BF5046FDF7CBFE00BF53
:1024A00000BF0CB10020206046F2B0103080C5E7BC
:1024B0003A48007868B100BF00BF5046FDF7BAFE49
:1024C00000BF00BF0CB10020206046F66350308092
:1024D000B4E76F6A97F83B002F49096891F83B1001
:1024E000884206DD2C48006890F83B10384601F021
:1024F00061FF4346042228480168284601F010FB8A
:1025000000BF00BF5046FDF795FE00BF00BF00F0C2
:10251000EFF800BF00BFFDF789FE824600BF00BF95
:102520001D48006890F8390030B101280CD002280D
:102530001AD0032821D110E01CB117480068C06CE4
:102540002060002030801CE01CB113480068C06C83
:10255000206046F2A910308013E00CB1002020600A
:1025600047F2D92030800CE01CB10B480068C06CE9
:10257000206045F6C250308003E046F62E60308081
:1025800000BF00BF00BF00BF5046FDF753FE00BFB5
:1025900000BF00BF52E70000A40000203E00002062
:1025A0002DE9F84F04468A4616464FF0000B00BF4F
:1025B00000BFFDF73BFE834600BF00BF4A49606A8B
:1025C000096888420BD000BF00BF5846FDF732FEB5
:1025D00000BF00BF45F281703080BDE8F88FFDF785
:1025E000E3FF80462834C4F804802078401E207021
:1025F00014F8280950B100BF00BF5846FDF71AFE75
:1026000000BF00BF45F283703080E6E721463648C0
:10261000006801F077FA04F10809D9F8000068B9F8
:102620000020606284F8280000BF00BF5846FDF714
:1026300001FE00BF00BF00203080CEE72A480068BE
:1026400090F83B002849096891F83C10884228D04E
:102650002548006801F041FA05462348006890F8D3
:102660003C10A94204DA2048006890F83C0000E0E1
:10267000284605461C48006890F83B00A84210DA3E
:102680001948006801F02AFC1748006880F83B50A0
:10269000284601F089FB1448006801F001FC13484A
:1026A0000570D9F800706762012084F8280021467F
:1026B000384601F0DFF900231A4639462046CDF8A6
:1026C000008001F0FBFA00BF00BF5846FDF7B2FDE5
:1026D00000BF00BF0AF4004008B900F009F800206C
:1026E000308000BF79E70000A40000202E00002009
:1026F00010B500241E48007800B110BD1D480078B8
:1027000000B1FAE700BFFDF791FD044600BF01F0FC
:102710002BFB194908700846007800EB4000174968
:1027200051F82000164908600846006815490968F4
:10273000884205D100BF2046FDF77CFD00BFDCE7E5
:102740000F480068806F401C0D49096888670E4873
:102750000068401C0C490860FDF7B7FE00BF20462A
:10276000FDF768FD00BFBFF36F8F00BFC5E7000036
:102770000C0000203E0000202F000020F41F00204D
:10278000A8000020A4000020640000202DE9F041F2
:1027900004460E4617461D464FF0000800BF00BF16
:1027A000FDF744FD804600BF00BF164920688842FF
:1027B0000BD100BF00BF4046FDF73CFD00BF00BF8E
:1027C00045F6C1502880BDE8F0810E4820602762A0
:1027D00000206062666004F1080001F010FA2046F3
:1027E00001F0AAFB08480088401C0749088000BF88
:1027F00000BF4046FDF71EFD00BF00BF002028803F
:1028000000BFE0E753454D41440000202DE9F0476B
:102810000546884691461C46089E4FF0000A00BFB8
:1028200000BFFDF703FD824600BF00BF286A90B1DC
:10283000286A401E28620CB1686A20602F6A00BFB7
:1028400000BF5046FDF7F6FC00BF00BF00203080FF
:102850003846BDE8F08709F4004078B10CB100209B
:1028600020602F6A00BF00BF5046FDF7E3FC00BFA9
:1028700000BF46F2B01030803846EAE736480078AC
:1028800070B10CB10020206000BF00BF5046FDF7C2
:10289000D1FC00BF00BF46F6635030800020D8E76F
:1028A000434606222D480168284601F039F900BF49
:1028B00000BF5046FDF7BEFC00BF00BFFFF718FF8A
:1028C00000BF00BFFDF7B2FC824600BF00BF234837
:1028D000006890F8390030B101280CD002281AD0D5
:1028E000032821D110E01CB11C480068C06C206096
:1028F0000020308024E01CB118480068C06C2060C3
:1029000046F2A91030801BE00CB10020206047F295
:10291000D920308014E01CB110480068C06C2060E1
:1029200045F6C25030800BE046F62E60308000BF86
:1029300000BF5046FDF77EFC00BF00BF002088E7C7
:1029400000BF2F6A00BF00BF5046FDF773FC00BFF9
:1029500000BF38467DE700003E000020A4000020B4
:102960002DE9FC5F04460F46154600200190FDF757
:102970001BFE834600BF00BFFDF758FC019000BF5F
:1029800000BF04F10808D8F8000008BB206A401C0A
:1029900060B900BF00BF0198FDF74CFC00BF00BF4D
:1029A00046F6C55028800020BDE8FC9F206A401CE8
:1029B0002062D4F82090C4F824B000BF00BF019872
:1029C000FDF738FC00BF00BF002028804846EBE739
:1029D000D8F800600EE0D6F82CA000231A46314645
:1029E0002046CDF800B001F069F907F4007000B995
:1029F00002E05646002EEED100BF00BF00BF019896
:102A0000FDF718FC00BF00BF07F4004008B9FFF74E
:102A10006FFE0020288000BFC6E72DE9F041044684
:102A20000D4616464FF000080020308000BF00BF62
:102A3000FDF7FCFB804600BF00BF206A08B125629D
:102A400008E004F10807386808B9256202E047F297
:102A50005F10308000BF00BF4046FDF7EBFB00BFBA
:102A600000BFBDE8F081000070B504461C48007846
:102A7000012803D045F68B60208070BD00256D1CB9
:102A80006D1C6D1C17480088A84203DC45F68C605D
:102A90002080F2E714480078E8B901F065F913499D
:102AA000087008460078124908701048007800EB5A
:102AB0004000104951F820000F490860084600689E
:102AC0000E490860012008490870FDF7C1FC43F673
:102AD0009920208002E045F68A60208000BFCCE784
:102AE0000E0000206C0000200D0000202F000020B0
:102AF0002E000020F41F0020A8000020A4000020C9
:102B00002DE9F04106464FF0000800BF00BFFDF779
:102B10008DFB804600BF00BF002036490880364943
:102B20000860364908603649086036490860364909
:102B300008603649088100BF00BF4046FDF77AFBB8
:102B400000BF00BF00BF00BFFDF770FB804600BFA5
:102B500000BF2F48046800BF00BF4046FDF76AFB76
:102B600000BF00BF1AE000BF00BFFDF75FFB80465B
:102B700000BF00BF00207434E0616060208060808E
:102B800020616061FDF710FDE060E06A044600BF6F
:102B900000BF4046FDF74EFB00BF00BF002CE2D156
:102BA00000BF00BFFDF742FB804600BF00BF1948D1
:102BB000056800BF00BF4046FDF73CFB00BF00BFFB
:102BC00012E000BF00BFFDF731FB804600BF00BF31
:102BD00005F120070020B881AD6900BF00BF404665
:102BE000FDF728FB00BF00BF002DEAD10020308098
:102BF000BDE8F0814A000020600000207C00002039
:102C0000800000209400002098000020E81F002091
:102C10006800002038000020F8B504460026002097
:102C200000906946324800F019FBBDF8000018B169
:102C3000BDF800002080F8BD6A460021022000F0A7
:102C4000EDFBBDF8000018B1BDF800002080F2E7F0
:102C500000BF00BFFDF7EAFA064600BF00BF002034
:102C60002449086000BF00BF3046FDF7E3FA00BF0B
:102C700000BF00252048006820490968884205D91E
:102C80001D4800681D490968B0FBF1F525B91A48CF
:102C900000680A21B0FBF1F56A460021284600F0E1
:102CA000BDFB6946124800F096F9BDF8000018B166
:102CB000BDF800002080BEE700BF00BFFDF7B6FAF8
:102CC000064600BF00BF00200D49086009480068A3
:102CD0000C49086001200C49087000BF00BF304655
:102CE000FDF7A8FA00BF00BF0020208000BFA2E7C8
:102CF000F02300204C00002088690008706900085B
:102D000060000020500000205800002070470000A4
:102D10002DE9FF4F85B004469146DDF854B0DDE95A
:102D200012A5199E00200290BAF13F0F09D1464822
:102D3000844206D046F273211A98018009B0BDE89A
:102D4000F08F204601F0F4FB00211A98018006F074
:102D5000010010B906F0020078B106F0020060B17F
:102D60002F460020049005E0002038603F1D0498A5
:102D7000401C049004985845F6D3149805EB800045
:102D80000390CDE900B62A464846039B089900F017
:102D9000FDF90746AF4204D246F632611A98018027
:102DA000CCE7C4F824900898A0620698E06084F804
:102DB0003BA084F83CA027600398A060189860604E
:102DC0002562C4F844B0A4F848604FF0000808E059
:102DD000002104F1640040F8281008F1010000F01F
:102DE000FF08B8F1000FF3D0204600F033F800BF21
:102DF00000BFFDF71BFA029000BF00BF94F83B0034
:102E000000F0D2FF204601F04BF8204601F046FBCF
:102E10000E480088401C0D4908800D4800780128A4
:102E200007D000BF00BF0298FDF704FA00BF00BF43
:102E300084E700BF00BF0298FDF7FCF900BF00BFA8
:102E4000FFF756FC00BF79E7401F00206C00002010
:102E50000D000020704700002DE9F04104460E46A9
:102E60004FF000085848844204D147F24C1030809B
:102E7000BDE8F0817CB900BF00BFFDF7D7F98046FF
:102E800000BF00BF5148046800BF00BF4046FDF7C7
:102E9000D1F900BF00BF00BF00BFFDF7C7F98046F2
:102EA00000BF00BF94F83A0008285ED2DFE800F0C7
:102EB00004090E10080A0F11204601F00FF85FE018
:102EC0005EE000BF204601F03BFC59E000BF00BFC0
:102ED00000BF94F83800082839D2DFE800F0040772
:102EE00005380D08090600BF00BF31E000BF00BF74
:102EF000204600F0BCFE2BE0606B456A15F83B7F76
:102F0000204600F0B4FE287869783B3D884212D014
:102F100095F83B0094F83B1088420CD1284600F00D
:102F2000DCFD074695F83C00B84202DA95F83C0013
:102F300000E038460746002084F8380095F83B004A
:102F4000B84203D03946284601F034FA00E000BF09
:102F500000BF94F83A00032803D094F83A000728F9
:102F600002D1204601F0ECFB0AE000BF00BF404662
:102F7000FDF760F900BF00BF46F62D60308077E7AF
:102F800000BF206C10B1204600F078FD204600F014
:102F900021F8204601F09AFA0D480088401E0C499D
:102FA0000880204601F0C4FAFF2084F83A0000208F
:102FB000308000BF00BF4046FDF73CF900BF00BFB6
:102FC000FFF796FB00BF53E7401F0020A40000203E
:102FD0006C000020704770B504460D46002600BF07
:102FE00000BFFDF723F9064600BF00BF0020288080
:102FF00094F83A0008285ED2DFE800F004050607DE
:103000001227394B00BF00BF00BF00BF00BF3046D2
:10301000FDF710F900BF00BF47F25310288055E0BC
:1030200014F8720F401E207014F8720928B900209D
:1030300084F83A00204600F0FDFE00BF00BF304695
:10304000FDF7F8F800BF00BF40E014F8720F401E13
:10305000207014F8720910B9012084F83A0000BFFA
:1030600000BF3046FDF7E6F800BF00BF2EE014F8C1
:10307000720F401E207014F8720910B9022084F8F3
:103080003A0000BF00BF3046FDF7D4F800BF00BFD4
:103090001CE014F8720F401E207014F8720910B969
:1030A000032084F83A0000BF00BF3046FDF7C2F8A5
:1030B00000BF00BF0AE000BF00BF3046FDF7BAF80E
:1030C00000BF00BF46F62D60288070BD00BFFFF72F
:1030D0000FFB00BFF9E770472DE9F05F04460E468D
:1030E000174698464FF0000B00BF00BFFDF79EF853
:1030F000834600BF00BF0CB923480468206878B934
:1031000000BF00BF5846FDF795F800BF00BF002084
:103110003060386047F25210A8F80000BDE8F09F18
:1031200094F8480000F0010070B900BF00BF584695
:10313000FDF780F800BF00BF00203060386047F224
:103140005410A8F80000E9E7D4F820A0D4F844907F
:1031500000BF00BF5846FDF76DF800BF00BF002557
:1031600002E00AF1040A6D1C4D4503D2DAF80000B2
:103170000028F6D03560A9EB050038600020A8F8DB
:10318000000000BFCAE70000A4000020F0B504461C
:10319000DDE9055602EB850020F007004FF0807C4A
:1031A000071F3846C7F800C0071F38463C60DFF8E5
:1031B000A8C0071F3846C7F800C04FF0123C071FD1
:1031C0003846C7F800C04FF0033C071F3846C7F821
:1031D00000C04FF0023C071F3846C7F800C0071F69
:1031E00038463B60071F384639606FF0020C071FF6
:1031F0003846C7F800C04FF0113C071F3846C7F8E3
:1032000000C04FF0103C071F3846C7F800C04FF011
:10321000093C071F3846C7F800C04FF0083C071F9D
:103220003846C7F800C04FF0073C071F3846C7F8BC
:1032300000C04FF0063C071F3846C7F800C04FF0EB
:10324000053C071F3846C7F800C04FF0043C071F75
:103250003846C7F800C0F0BDD545000870B5044633
:103260000D4600265548844203D147F25B10288062
:1032700070BD00BF00BFFCF7D9FF064600BF00BF0E
:1032800084B94F48007801280AD000BF00BF3046FB
:10329000FCF7D0FF00BF00BF45F689602880E7E754
:1032A000484804684748006884420DD14648007881
:1032B00050B100BF00BF3046FCF7BCFF00BF00BFED
:1032C00046F663502880D3E70020288094F83A001F
:1032D00008285FD2DFE800F0041523313F40414267
:1032E000042084F83A00012084F87200204600F09F
:1032F000F5FD00BF00BF3046FCF79CFF00BF00BFDC
:1033000053E0052084F83A00012084F8720000BFE1
:1033100000BF3046FCF78EFF00BF00BF45E006202F
:1033200084F83A00012084F8720000BF00BF3046E4
:10333000FCF780FF00BF00BF37E0072084F83A00A9
:10334000012084F8720000BF00BF3046FCF772FF16
:1033500000BF00BF29E000BF00BF00BF94F87200AB
:10336000FF280AD100BF00BF3046FCF763FF00BF53
:1033700000BF47F2601028807AE794F87200401C82
:1033800084F8720000BF00BF3046FCF753FF00BF57
:1033900000BF0AE000BF00BF3046FCF74BFF00BF94
:1033A00000BF46F62D60288062E700BF0448007821
:1033B000012801D1FFF79CF900BF59E7401F002009
:1033C0000D000020A40000203E00002010B5FDF7F5
:1033D000EBF804460F4800680F490968884213D08B
:1033E0000C480068D0F88000201A0A490968C867AC
:1033F00008480068D0F8840006490968C96F084485
:1034000004490968C1F8840003480068C0F8804096
:1034100010BD0000A4000020A80000202DE9F0410C
:1034200006460D46144600271F48007820B146F690
:1034300063502080BDE8F08135B1022D05D0042D08
:1034400005D0082D04D101E000BF00BF00BF03E09C
:1034500045F625602080EDE700BF00BF00BFFCF708
:10346000E5FE074600BF00BF23462A4631460F4807
:10347000006801F01FF9208838B100BF00BF38464E
:10348000FCF7D8FE00BF00BFD4E70848006800F092
:1034900025FD00BF00BF3846FCF7CCFE00BF00BFD3
:1034A000FFF726F900BFC5E73E000020A40000207A
:1034B00010B506480078012800D010BD00F008F8CB
:1034C000012001F007FA00BFF7E700000D0000201F
:1034D000704700002DE9F05F04460D4616461F4672
:1034E000DDE90BABDDF82890DDF83480204800786A
:1034F000012801D101F006FC012084F826001D49B5
:10350000206888420BD11A480078012801D101F0C7
:10351000F5FC45F6C150A8F80000BDE8F09F15483D
:1035200020606560144800687043E0610020A0617D
:103530001148006878432062A4F82490C4F808A0D9
:10354000C4F80CB0002020616061204601F0DAFA76
:103550000A480088401C094908800548007801286D
:1035600001D101F0CBFC0020A8F8000000BFD4E797
:103570000D000020544D5220A0000020900000209B
:103580002DE9F04704460D4617461E46DDE9088939
:1035900001F0B8FB084800686843E061064800682D
:1035A00078432062A660C4F80C800020A9F80000CF
:1035B00001F0A4FCBDE8F087A00000202DE9F04157
:1035C00004460D464FF0000801F09CFB00BF00BF11
:1035D000FCF72CFE804600BF00BF2A4800682A493D
:1035E000884202D12948076801E02948076800BFDE
:1035F00000BF4046FCF71EFE00BF00BF94F8260047
:10360000052833D2DFE800F02D1A031B040000BFA9
:10361000022084F826003946204601F009FCE069C2
:1036200010B9206AA06101E0E069A0613946204636
:1036300001F00CFB0020288001261CE000BF0220C6
:1036400084F82600E06910B9206AA06101E0E06911
:10365000A0613946204601F0F9FA002028800126B1
:1036600009E047F23D302880002604E047F241306F
:103670002880002600BF00BF01F040FC3046BDE8B6
:10368000F0810000A4000020F02300209C00002016
:103690007000002010B5002400BF00BFFCF7C6FD7D
:1036A000044600BF00BFFEF7DDFD00BF00BF20469F
:1036B000FCF7C0FD00BF00BFFFF7FAFEFEF7E8FD14
:1036C00010BD000010B5014601224B1E4FF0E02452
:1036D0006361094B186820F07F4040EA026018607F
:1036E00023461B6943F00503236123461B6943F00E
:1036F0000203236110BD000020ED00E00EB5464836
:10370000029046480090464802904648029046483B
:10371000009046480290464801904648029046482C
:10372000029046480290464802904648019046481A
:10373000019046480190464802904648019046480C
:1037400002904648019046480190464801904648FC
:1037500001904648029046480290464802904648EA
:1037600001904648029046480190464801904648DC
:1037700001904648019046480190464801904648CD
:1037800002904648029046480290464802904648B9
:1037900001904648019046480190464802904648AC
:1037A000029046480290464801904648019046489B
:1037B000019046480090464801904648029046488D
:1037C0000290464802904648029046480290464879
:1037D000029046480290464801904648029046486A
:1037E000029046480190464801904648029046485B
:1037F000029046480190464801904648029046484B
:103800000290464801904648019002980290019823
:103810000190009800900EBDA86900080C6B00088C
:10382000A9690008AA690008AC690008B069000825
:10383000B4690008B1690008DC690008DD690008A6
:10384000DE690008E0690008E2690008E469000830
:10385000046A0008066A0008086A00080A6A000884
:103860000C6A00080E6A0008106A0008406A000826
:10387000416A0008426A0008446A0008466A000873
:10388000486A00084A6A00084C6A00084E6A000844
:10389000506A0008546A0008846A0008856A0008B3
:1038A000866A0008876A0008886A00088A6A000831
:1038B0008C6A0008B46A0008B56A0008B66A000895
:1038C000B76A0008B86A0008BA6A0008BC6A00084B
:1038D000C06A0008C16A0008C26A0008C36A00081A
:1038E000C46A0008C56A0008C66A0008C76A0008FA
:1038F000C86A0008CA6A0008CB6A0008CC6A0008D7
:10390000CE6A0008D06A0008D16A0008D26A0008AE
:10391000D46A0008046B0008056B0008066B0008F9
:10392000086B0008002400BF00BF00BFFCF77EFC4E
:10393000044600BF00BF08480068401C06490860F4
:1039400006480068401C0549086000BF00BF2046CB
:10395000FCF770FC00BFE7E7080000204C000020E7
:1039600010B58AB0044600200E4908600B200021E3
:103970000591CDE90704069108460B4909680B4AF1
:1039800012680B4B1B68CDE90132CDE903103F20D3
:103990000023084A08A100900C48FFF7B9F90AB0C3
:1039A00010BD0000080000204C69000848690008AC
:1039B000446900082539000875432F4F532D4949A4
:1039C000492049646C65205461736B00401F0020DE
:1039D0000021034A1160034A1180018070470000F2
:1039E000200000202400002070B50246124D2868F7
:1039F00029681031114D2D886D1EACB2002308E0EE
:103A00000160002545600581C560103010315D1CE6
:103A1000ABB2A342F4DB0025056045600581C560BB
:103A2000054D2D68064E3560044D2D88B580002566
:103A3000F5803581158070BD6869000860690008EF
:103A4000E81F002009A1C1610021416108490968FE
:103A500011B90021816105E00549096881610449C6
:103A600009684861024908607047000020000000B2
:103A700028000020026C0A62016470472DE9F843B7
:103A800005462C6C25E0D4F82090FCF78DFD80468F
:103A9000C4F82C802146284600F034F804F10806CA
:103AA000306820B9002084F82800606210E0376890
:103AB0006562012084F8280021463846FFF7DAFFC6
:103AC00000231A4639462046CDF8008000F0F6F86B
:103AD0004C46002CD7D1BDE8F88330B504463F20D2
:103AE00004F140010AE00D68AB6823B193F83B2074
:103AF000824200DA10460D6805F120010D68002DA4
:103B0000F1D130BD024602F1400002E0036803F14A
:103B1000200003688B42F9D103681B6A0360704779
:103B20002DE9F04105460C4616461F4684F83860DC
:103B3000002084F839003946204600F023FC3DB1CE
:103B400005F1080865632146404600F05DF801E094
:103B5000002060632146284600F002F8BDE8F081AD
:103B600010B540B14468C1F8A44000F108031A68D8
:103B7000D468C46113E091F83840022C02D0072CBD
:103B800008D103E006A4C1F8A44007E006A4C1F8E8
:103B9000A44003E007A4C1F8A44000BF00BF10BDCB
:103BA0005461736B205100005461736B2053656D39
:103BB000000000002000000010B50A4606A4C2F86C
:103BC000A44040B100F10803196811B1CC68C46188
:103BD00001E001A4C46110BD2000000070B50446DE
:103BE000666B06F108052868C06A38B1204600F007
:103BF0003EF866632146284600F006F870BD0021B5
:103C0000016041600181704710B591F83B30046854
:103C10003CB9012404810024CC620C630160416042
:103C200024E00489641C0481026805E092F83B40AA
:103C30009C4200DD02E0D26A002AF7D100BF3AB907
:103C40000024CC6244680C630C6BE16241600DE0BF
:103C5000146B2CB9CA6200240C631163016005E087
:103C6000CA62146B0C630C6BE162116310BD10B57A
:103C7000446B14B3446B04F108010C68E46A1CB98A
:103C800000240C604C6011E0046B24B9C26A00246B
:103C900014630A600AE0C46A24B9036B0024DC627E
:103CA0004B6003E0036BC26ADA6213630C89641E23
:103CB0000C810024C4620463446310BD2DE9F0410B
:103CC00005460C4616461F46DDF8188094F83A0063
:103CD000082845D2DFE800F0040508090607272870
:103CE00000BF00BF00BF3CE000BFE665A4F8607005
:103CF000C4F84C8015B12046FFF7B9FF214628468D
:103D0000FFF75AFF94F83A00032802D1204600F04A
:103D100017FD204600F08EF800203834A070607047
:103D200004F838091DE000BFE665A4F86070C4F827
:103D30004C8015B12046FFF79AFF21462846FFF731
:103D40003BFF94F83A00072802D1204600F0F8FC27
:103D500004203834A0700020607004F8380900E0B6
:103D600000BF00BFBDE8F08110B50848006830B959
:103D700006494868FCF765FA2030C0B210BD034917
:103D80000868FCF75EFAC0B2F8E7000030000020D7
:103D9000002004E00021034A42F82010401C0228C1
:103DA000F8D3704730000020202809D20A4909685A
:103DB000C0F11F0301229A401143074A11600AE033
:103DC00005494968A0F12002C2F11F0301229A406F
:103DD0001143014A5160704730000020202809D269
:103DE0000A490968C0F11F0301229A409143074A1A
:103DF00011600AE005494968A0F12002C2F11F03E1
:103E000001229A409143014A5160704730000020DE
:103E1000002109E001EB4102054B03EB8200002287
:103E2000028102604260491C4029F3D370470000C0
:103E3000F41F002010B5044694F83B00FFF7B4FFD0
:103E400094F83B0005490978884203D1204600F0E8
:103E500027F802E0204600F003F810BD2E000020F5
:103E600010B590F83B3003EB43030C4C04EB83019B
:103E70000B683BB901230B81002303614361086098
:103E8000486009E00B895B1C0B810B680361002310
:103E900043610A685061086010BD0000F41F0020F3
:103EA00010B590F83B3003EB43030B4C04EB83015C
:103EB0000B683BB901230B81002303614361086058
:103EC000486008E00B895B1C0B81002303614A6892
:103ED00042611061486010BDF41F00202DE9F041DF
:103EE000054695F83B0000EB4000124901EB8004C9
:103EF0006F692E6987B946B9002020812060606013
:103F000095F83B00FFF76AFF0EE02089401E2081F4
:103F100000207061266007E02089401E20813E61FC
:103F20000EB9676000E07761002068612861BDE834
:103F3000F0810000F41F002009A1C161002141614E
:103F40000849096811B90021816105E0054909683E
:103F500081610449096848610249086070470000AE
:103F6000200000004000002088B00020009006E003
:103F7000B9490968480002AA0021FFF74FFAB7487B
:103F800000780128F4D102A8FEF7BAFD4FF000082E
:103F9000B3480068B0490968884205D9B04800684C
:103FA000AD490968B0FBF1F8B8F1000F04D1AC4895
:103FB00000680A21B0FBF1F800BFFCF7F5FA814672
:103FC00000BF00BFFCF732F9009000BF00BFA5485A
:103FD0000068A54908600020A249086000BF00BF32
:103FE0000098FCF727F900BF00BFA04800689E4971
:103FF0000968884248D99D4800689D49884205D291
:1040000042F2107004900120039023E0974800686A
:104010009849884205D24FF47A7004900A200390A0
:1040200018E0924800689449884203D264200490C2
:1040300003900FE08D4800689049884205D20A201D
:1040400004904FF47A70039004E00120049042F24F
:1040500010700390854801680398B1FBF0FA82491B
:10406000049809684843B0FBFAF042F21071081A4C
:1040700083490880834800880988884207DA804895
:1040800000888049088002E000207D490880FEF712
:104090003DFE002500BF00BFFCF7C8F8009000BF40
:1040A00000BF7948046800BF00BF0098FCF7C2F861
:1040B00000BF00BF26E000BF00BFFCF7B7F80090CC
:1040C00000BF00BF54F8840F6060002044F88409EA
:1040D00000BF00BF0098FCF7ADF800BF00BFD4F8E8
:1040E0008800054400BF00BFFCF7A0F8009000BFA7
:1040F00000BFD4F8A04000BF00BF0098FCF79AF8BA
:1041000000BF00BF002CD6D15DB35948854205D20F
:1041100042F210700690012007901DE0554885423C
:1041200005D24FF47A7006900A20079014E05248A6
:10413000854203D26420069007900DE04F488542E7
:1041400005D20A2006904FF47A70079004E001200F
:10415000069042F2107007900798B5FBF0F00590BA
:1041600003E0002006900120059000BF00BFFCF78F
:104170005DF8009000BF00BF4348046800BF00BF67
:104180000098FCF757F800BF00BF2BE0D4F8880078
:10419000069948430599B0FBF1F086B242F21070DF
:1041A000864200D90646A4F87460B4F87600B0429E
:1041B00001DAA4F8766002AB04F19402111D2046E6
:1041C000FEF78AFF00BF00BFFCF730F8009000BF89
:1041D00000BFD4F8A04000BF00BF0098FCF72AF849
:1041E00000BF00BF002CD1D100272848D0F800B074
:1041F00027480068019002E00BF1040B7F1CDBF8FC
:10420000000010B901988742F6D322480760204881
:104210000068C01B2049086020480078012805D1AB
:1042200000201E49087002A8FEF76AFCFCF7BCF9E2
:10423000A0EB09001A4908601A480068096888421A
:1042400003D2174800681749086002AA00214046B7
:10425000FFF7E4F8B1E6000070690008580000209C
:10426000886900084C000020540000205000002005
:10427000801A060000093D00005A62020084D71728
:10428000480000204A00002068000020546900080F
:10429000586900081000002014000020460000208B
:1042A0005C0000206000002010B58AB004460020A9
:1042B00021490860214908602149086021490870A6
:1042C0002149087021490860214908602148006897
:1042D00020B946F62B6020800AB010BD1E48006849
:1042E0001E490968884203D246F62C602080F3E715
:1042F0001B4800783F2803D346F62A602080EBE76E
:10430000032000210591CDE90704069108461249D2
:104310000A68144909680F4B1B68CDE90131CDE9E2
:1043200003200F48007800230F4A10A10090144882
:10433000FEF7EEFC00BFCFE74C0000205400002049
:1043400050000020580000204600002010000020EF
:1043500014000020746900087C6900088469000862
:104360006C69000878690008693F000875432F4FA1
:10437000532D4949492053746174205461736B0073
:10438000F422002070B504460D4655B12B4608486E
:1043900000210268204600F037F9032084F83A0033
:1043A00002E0022084F83A002046FFF797FD70BD36
:1043B000700000202DE9F04104460D4600BF0026A4
:1043C00094F83B7094F83A0008285DD2DFE800F0DA
:1043D00004191E1F1A1B20212046FFF77FFD84F8B9
:1043E0003B5094F83B00FFF7DFFC2B480068844209
:1043F00003D12046FFF734FD02E02046FFF750FDD1
:1044000044E000BF00BF84F83B503FE000BF00BF66
:1044100000BF84F83B5094F8380008282FD2DFE81A
:1044200000F02E042F2E0A05063000BF00BF2046E4
:10443000FFF7D4FB26E02046FFF7D0FB606B466A0F
:10444000AF4205DD96F83B00A84217DC002615E0D8
:1044500096F83B00B84211D13046FFF73EFB0546C7
:1044600096F83C00A84202DA96F83C0000E02846A4
:10447000054696F83B00A84200D1002602E000BFA6
:1044800000BF00BF00BF01E0BDE8F08100BF3446BF
:10449000002C94D100BFF7E7A40000200021C0F851
:1044A0009C100949096819B90021C0F8A01007E05B
:1044B00005490968C0F8A01003490968C1F89C00C3
:1044C000014908607047000068000020D0F89C2077
:1044D000D0F8A0104AB90D4B196011B10023C1F8F2
:1044E0009C300023C0F8A0300FE029B90023C2F8A7
:1044F000A030C0F89C3008E0C2F8A010C1F89C20A1
:104500000023C0F8A030C0F89C307047680000203D
:104510000021044A1160044A1180044A116001809C
:1045200070470000680000206C000020640000203C
:1045300070B5044600202060A0606060206160616A
:10454000A061E06120A0E060002020626062A062C3
:10455000E064E065A4F86000A066A4F87000E0667E
:10456000002506E0002104F1640040F82510681CD5
:10457000C5B2002DF6D000202C3460622066606643
:10458000A06184F84600E066A066A083A062E062B5
:10459000A4F84800A4F84A00E0642065FCF704F899
:1045A00060650020A06520606060A060207360737B
:1045B000A0734020E0732074002060612067606772
:1045C00003A0A0672C3C70BD3F5461736B000000DA
:1045D0002000000008B504480068FEF77CFD69462D
:1045E0000020FEF739FC08BDA40000200021018056
:1045F000034A1160034A11609180D1807047000026
:1046000070000020740000202DE9F04304460F469E
:104610009446984608EB0C00DFF89090D9F800908B
:10462000B944A0EB09021AB900206065BDE8F08327
:104630001F4B186838B962650020A061E0611C60FA
:1046400001209880F2E79888401C98801968486D8E
:10465000C61BB2420BD2C86948B96265B01A486538
:104660000020E061A161CC611C600120DEE7921BAB
:104670000D46A96903E0486D121A0D46896911B10A
:10468000486D9042F7D949B1CD696265E561A16194
:10469000486D801A4865CC61AC6104E06265E561F3
:1046A0000020A061AC610120C0E700007000002084
:1046B000740000202DE9F04F06460C4691461F4637
:1046C0004FF0000BB9F1040F01D1002520E0B9F142
:1046D000080F1BD124B947F27E203880BDE8F08F47
:1046E000B56D16480068A0EB0508A0450AD3B8FBD5
:1046F000F4F004FB0055B8FBF4F004FB108000B1AB
:104700002544B565B06D2044B06501E00B480568EF
:1047100023462A4659463046FFF776FF8246BAF1CD
:10472000010F05D1012086F83A000020388002E010
:1047300047F27E20388000BFD0E7000070000020E4
:1047400030B5C3698169134A9BB921B9002414604B
:10475000948044651CE00024CC614C6D456D2C4474
:104760004C6511609488641E9480002484614465C3
:104770000EE0996121B1CB614C6D456D2C444C65C7
:104780000024C4619488641E94800024846144657C
:1047900030BD0000740000202DE9F04706464FF0C0
:1047A00000094B4F3C68002C77D0606DB04204D8B4
:1047B000606D361A0020606502E0606D801B6065E8
:1047C0007CE009F101001FFA80F994F83A00012811
:1047D00002D005280BD106E0002084F83A002046DC
:1047E000FFF728FB51E0042084F83A004DE0002553
:1047F00094F83800042801D1606B456A0020E06518
:10480000A4F86000FBF7D0FEE0642046FFF72FFA23
:1048100094F83A00032802D007280BD106E020467E
:10482000FFF708FB002084F83A0004E0042084F835
:104830003A0000E000BF00BF032084F839000020E8
:1048400084F8380005B395F83B0095F83C10884291
:104850001AD095F83B0094F83B10884214D12846B2
:10486000FFF73BF9804695F83C00404502DA95F8A1
:104870003C0000E04046804695F83B00404503D0B0
:1048800041462846FFF796FD00BF00BFA06938608B
:104890003C681CB90020B88014E014E0B888401EC1
:1048A000B8800020E061606DB04204D8606D361AB7
:1048B0000020606502E0606D801B6065606D00280F
:1048C0003FF47FAF00BFA7F80690BDE8F087000077
:1048D0007400002070B50446002600BF00BFFBF73F
:1048E000A5FC064600BF00BF1048006820440F49E1
:1048F0000860FBF759FE05462046FFF74DFFFBF722
:1049000053FE401B0A4908600A480068096888424B
:1049100003D2074800680749086000BF00BF30465F
:10492000FBF788FC00BF00BF70BD000070000020D6
:104930007C0000208000002010B5002400BF00BFD4
:10494000FBF774FC044600BF00BF08480849086034
:104950000848086201F10800FFF751F900BF00BFE5
:104960002046FBF767FC00BF00BF10BD434F4E441D
:104970009C230020C0230020F8B5002600BF00BF04
:10498000FBF754FC064600BF00BFFBF70DFE0446D4
:104990000E48C4620E4D286838B900BF00BF3046CB
:1049A000FBF748FC00BF00BFF8BD00231A460949C9
:1049B000074808380094FFF781F900BF00BF304670
:1049C000FBF738FC00BF00BF00BFEDE7C0230020AD
:1049D000A4230020F02300202DE9F84307464FF0E0
:1049E000000800BF00BFFBF721FC804600BF00BFEE
:1049F000FBF7DAFD06463F48C66201463E48FFF730
:104A000081F83C4D08353C4890F83B003A4991F814
:104A10003C1088420AD0384890F83C00364981F86A
:104A20003B00084690F83C0034490870286828B9D3
:104A300000203049486281F8280010E02C682D4899
:104A4000446201202B4981F828002046FFF712F824
:104A500000231A46214627480096FFF72FF93B46C8
:104A6000032225492648FFF75BF800BF00BF4046F8
:104A7000FBF7E0FB00BF00BFFDF73AFE00BF00BF41
:104A8000FBF7D4FB804600BF00BF1A48406A80B9DC
:104A900018491948FEF7EEFF1748164948620120E9
:104AA00081F8280000BF00BF4046FBF7C3FB00BFF2
:104AB0001DE01048446A94F83B000F4991F83B1000
:104AC000884205DD0C4890F83B102046FFF772FC49
:104AD0000023042208490748FFF722F800BF00BF5F
:104AE0004046FBF7A7FB00BF00BFFDF701FEBDE896
:104AF000F8830000C0230020F02300202E000020B7
:104B00009C230020002181620749096811B9002116
:104B1000C16205E004490968C16203490968886205
:104B200001490860704700008400002010B58AB079
:104B3000044600202A4908802A4908602A4908605A
:104B40002A4908802A4800682A490968B0FBF1F020
:104B5000294908600020294908602949086022463F
:104B600028A12C48FDF7FEFB208808B10AB010BD33
:104B7000FFF7E2FE2848006818B947F24730208066
:104B8000F4E72648006826490968884203D247F2BC
:104B900048302080EAE7234800783F2803D347F2D3
:104BA00046302080E2E70B20002105910A46CDE93E
:104BB00007040691194800681B490968164B1B68D1
:104BC000CDE90131CDE90302164800780023174AE8
:104BD00017A100901C48FEF79BF800BFC6E7000035
:104BE00090000020840000208C000020880000201D
:104BF0008869000890690008A00000209400002047
:104C0000980000204F5320546D72204D75746578C4
:104C100000000000C0230020946900089C6900087F
:104C2000846900088C690008986900081D4D000817
:104C300075432F4F532D4949492054696D657220A2
:104C40005461736B00000000F02300202DE9F04751
:104C5000054688462848006870B9002028616861C8
:104C6000254805600120254908802548C0F80080B6
:104C7000FFF782FEBDE8F08720480088401C1F49EE
:104C80000880A86940441E490968461A1A48046801
:104C9000D4F818904E4510D2606970B9A9EB06009F
:104CA000A061002068612C616561134805601448AB
:104CB000C0F80080FFF760FEDCE7A6EB0906274698
:104CC0003C6903E0A069361A2746246914B1A0693B
:104CD000B042F7D94CB16769AE616F612C61A069D0
:104CE000801BA06165613D6104E0AE616F610020E1
:104CF00028613D6100BFBDE78C00002088000020D6
:104D00009C0000201CB501A800231A4619460090FB
:104D10000148FDF769FB1CBDC02300204FF0000ACD
:104D2000FFF7F0FF00BF3D48006810B94FF00009E1
:104D300003E03A480068D0F818904846FFF74CFE68
:104D40003648006800B9EEE7FBF72EFC804600BF4E
:104D500000BFFBF76BFA824600BF00BF3048076810
:104D600000BF00BF5046FBF765FA00BF00BF2D48EB
:104D700000683D1A2B480760284804680CE0A069C9
:104D8000A84204D2A0692D1A0020A06103E0A06906
:104D9000401BA061002524690DB1002CEFD11F48F4
:104DA000046826E0042084F82600A66816B1204690
:104DB000E168B04794F82600042818D11948016822
:104DC000204600F035F8A08C022809D184F826008E
:104DD000206AA061134801682046FFF737FF06E00C
:104DE000002060612061A061032084F826000B4848
:104DF000046814B1A0690028D4D0FBF7D5FBA0EB60
:104E0000080009490860094800680968884203D217
:104E1000054800680549086085E700008C0000200F
:104E2000700000209C0000209400002098000020CA
:104E30002DE9F04105460F46D5F814802C69B8F1EC
:104E4000000F40D154B90020294908602949088041
:104E5000A86129480760FFF78FFD46E025480088D4
:104E6000401E24490880244800683E1A00206061E2
:104E7000A069A9690844A0611D4804600EE0A0690A
:104E8000B04204D2A069361A0020A06103E0A069F4
:104E9000801BA0610026A046D8F810400EB1002C5F
:104EA000EDD1134800688069A969884203D1104890
:104EB0000068806918B910480760FFF75DFD0020A1
:104EC0002861A86111E00B480088401E094908804C
:104ED000C8F810402CB1C4F81480A069A96908442E
:104EE000A061002068612861A861BDE8F081000030
:104EF0008C000020880000209C00002008B56A4635
:104F000000210248FDF74CFB08BD0000C023002033
:104F1000704710B5FCF70EF9FEF7BCFB10BD0000A2
:104F20001048006840F001000E49086000200D495B
:104F3000083108600B4800680B49084009490860BF
:104F40000A48091D0860081F006820F48020091F16
:104F50000860002003490C3108604FF000600449EC
:104F60000860704700380240FFFFF6FE1030002452
:104F700008ED00E010B5FDF775F90948C06840B1CB
:104F80000749C868FCF7F8FF0549C868FCF7B0FE98
:104F900002E03420FCF784F9FDF77AF910BD000037
:104FA000E40C002010B5FDF75DF90948006940B137
:104FB00007490869FCF7E0FF05490869FCF798FE16
:104FC00002E03520FCF76CF9FDF762F910BD000036
:104FD000E40C002070B50546AC6B0020E085E08451
:104FE0002046FCF783FE70BD70B506460025B46B05
:104FF00020684069C0F3C01594F83900212805D114
:1050000025B10020E084204600F08EF82068406939
:10501000C0F3801594F83A00222805D125B100206C
:10502000E085204600F060F8E06B40F01000E0639F
:105030002046FCF75BFE70BD70B50546AC6B28687A
:10504000006800F48070B0B90020E0852068C06876
:1050500020F480702168C8602068406920F0010059
:10506000216848612068406920F04000216848615B
:10507000202084F83A002046FCF77CFF70BD70B514
:105080000446A56B2846FCF79DFF70BD70B505462C
:10509000AC6B0020E085202084F83A002046FCF725
:1050A000E7FD70BD70B50546AC6B2868006800F47C
:1050B000807070B90020E0842068406920F0800092
:1050C000216848612068C06840F040002168C860DD
:1050D00002E02046FCF7C6FF70BD70B50446A56B24
:1050E0002846FCF7DFFF70BD0168C96821F49071A4
:1050F0000268D1600168496921F0010102685161CB
:10510000202180F83A10704710B504462068C06826
:1051100020F040002168C860202084F83900204633
:10512000FCF7A0FF002010BD0168C96821F0C00194
:105130000268D160202180F83910704770B50446AC
:1051400094F83A0022284AD1A068B0F5805F13D1C4
:10515000A56A206940B920684068C0F3080028802B
:10516000A06A801CA06219E020684068C0B2288054
:10517000A06A401CA06211E0206938B9206840682C
:10518000C1B2A26A501CA062117007E0206840689A
:1051900000F07F01A26A501CA0621170E08D401ED9
:1051A00080B2E085C8B92068C06820F0200021687E
:1051B000C8602068C06820F480702168C8602068DA
:1051C000406920F0010021684861202084F83A00FD
:1051D0002046FCF7CFFE002070BD0020FCE7022037
:1051E000FAE700002DE9F04104462068006920F448
:1051F0004050E1680843216808612169A0680843BC
:1052000061690843E16940EA01052068C06849F224
:105210000C61884328432168C8602068406920F4F5
:105220004070A169084321684861E069B0F5004F0A
:105230007ED1C4492068884203D0C349206888428F
:105240005DD1FCF75BFA00EBC00101EB0010616877
:105250004900B0FBF1F06421B0FBF1F00601FCF76E
:105260004DFA00EBC00101EB001061684900B0FB92
:10527000F1F7FCF743FA00EBC00101EB00106168A5
:105280004900B0FBF1F06421B0FBF1F000EBC0018C
:1052900001EB0010A7EB8000322101EBC00064217C
:1052A000B0FBF1F000F0F80006EB4006FCF726FA40
:1052B00000EBC00101EB001061684900B0FBF1F7A1
:1052C000FCF71CFA00EBC00101EB0010616849001B
:1052D000B0FBF1F06421B0FBF1F000EBC00101EB99
:1052E0000010A7EB8000322101EBC0006421B0FB6D
:1052F000F1F000F0070030442168886020E1FCF7FD
:10530000EDF900EBC00101EB001061684900B0FB52
:10531000F1F06421B0FBF1F00601FCF7DFF900EBDE
:10532000C00101EB001061684900B0FBF1F700E03B
:1053300045E0FCF7D3F900EBC00101EB0010616818
:105340004900B0FBF1F06421B0FBF1F000EBC001CB
:1053500001EB0010A7EB8000322101EBC0006421BB
:10536000B0FBF1F000F0F80006EB4006FCF7B6F9F0
:1053700000EBC00101EB001061684900B0FBF1F7E0
:10538000FCF7ACF900EBC00101EB001061684900CB
:10539000B0FBF1F06421B0FBF1F000EBC00101EBD8
:1053A0000010A7EB8000322101EBC0006421B0FBAC
:1053B000F1F000F00700304421688860C0E06149E6
:1053C0002068884203D06049206888425CD1FCF79D
:1053D00095F900EBC00101EB001061688900B0FB9A
:1053E000F1F6FCF78BF900EBC00101EB00106168EE
:1053F0008900B0FBF1F06421B0FBF1F000EBC001DB
:1054000001EB0010A6EB8000322101EB00106421BB
:10541000B0FBF1F000F0F006FCF770F900EBC00112
:1054200001EB001061688900B0FBF1F06421B0FB72
:10543000F1F006EB0016FCF761F900EBC00101EB9F
:10544000001061688900B0FBF1F7FCF757F900EB39
:10545000C00101EB001061688900B0FBF1F064212C
:10546000B0FBF1F000EBC00101EB0010A7EB8000F6
:10547000322101EB00106421B0FBF1F000F00F00CD
:105480003044216888605BE0FCF728F900EBC0013C
:1054900001EB001061688900B0FBF1F6FCF71EF922
:1054A00000EBC00101EB001061688900B0FBF1F076
:1054B0006421B0FBF1F000EBC00101EB0010A6EBA2
:1054C0008000322101EB00106421B0FBF1F000F00C
:1054D000F006FCF703F900EBC00101EB0010616876
:1054E0008900B0FBF1F06421B0FBF1F006EB00168F
:1054F000FCF7F4F800EBC00101EB001061688900D3
:10550000B0FBF1F7FCF7EAF800EBC00101EB00108B
:1055100061688900B0FBF1F06421B0FBF1F000EBB1
:10552000C00101EB0010A7EB8000322101EB00105D
:105530006421B0FBF1F000F00F0030442168886076
:10554000BDE8F0810010014000140140014691F8CF
:10555000390021282CD18868B0F5805F0FD10A6A04
:105560001088C0F308000B685860086918B9086A09
:10557000801C086209E0086A401C086205E00B6AAA
:10558000581C086218780B685860C88C401E80B29E
:10559000C88458B90868C06820F080000B68D860DB
:1055A0000868C06840F040000B68D8600020704771
:1055B0000220FCE710B5FCF755FE0948006840B131
:1055C00007490868FCF7D8FC05490868FCF790FB18
:1055D00002E02520FBF764FEFCF75AFE10BD000038
:1055E000E40C002010B5FCF73DFE0948406840B1CE
:1055F00007494868FCF7C0FC05494868FCF778FB98
:1056000002E02620FBF74CFEFCF742FE10BD000036
:10561000E40C002010B5FCF725FE0948806840B175
:1056200007498868FCF7A8FC05498868FCF760FB17
:1056300002E02720FBF734FEFCF72AFE10BD000035
:10564000E40C002010B5FCF70DFE0948406940B19C
:1056500007494869FCF790FC05494869FCF748FB95
:1056600002E04720FBF71CFEFCF712FE10BD000015
:10567000E40C002000BFFEE702480068C0F30220EF
:10568000704700000CED00E010B5002804DB0A07AD
:10569000130E054A135406E00A07140E034A00F0DD
:1056A0000F031B1FD45410BD00E400E018ED00E010
:1056B00010B58AB01848194908604FF47A7108206B
:1056C00000F088FD00F014FE4FF47A71B0FBF1F4A5
:1056D0002046FDF7F7FF09A8FCF718FD09A80321EC
:1056E00000220592CDE90621089010464FF4807102
:1056F00019220B4BCDE90132CDE903100220002322
:10570000084A09A100900B48FDF702FB09A8FDF724
:10571000ABF900200AB010BD0000000808ED00E061
:1057200070010020AD2000084D61696E2054617346
:105730006B000000C80000202DE9F84F04460D461C
:1057400090469946DDE90AAB00BF002000906A4808
:10575000006840F40010684908600846006800F4DA
:105760000010009000BF00BF00BF0020009008465E
:10577000006840F4800008600846006800F480007B
:10578000009000BF00BFFF275C48854204D1092775
:105790000B265B48046084E058481830854204D1E9
:1057A00009270C26564844607BE054483030854237
:1057B00004D109270D265248846072E04F484830D2
:1057C000854204D109270E264D48C46069E04B4844
:1057D0006030854204D109270F264948046160E002
:1057E00046487830854204D1092710264448446150
:1057F00057E042489030854204D10927112640489D
:1058000084614EE03D48A830854204D109272F2607
:105810003B48C46145E03B48854204D1092738260E
:10582000394804603DE037481830854204D10927E3
:1058300039263548446034E032483030854204D15E
:1058400009273A26304884602BE02E4848308542AC
:1058500004D109273B262C48C46022E02948603047
:10586000854204D109273C262748046119E02548D0
:105870007830854204D1092744262348446110E04A
:1058800020489030854204D1092745261E4884616E
:1058900007E01C48A830854203D1092746261A484C
:1058A000C461FF2F07D0002239463046FBF71AFDAE
:1058B0003046FBF707FD2560C4F80480C4F8089063
:1058C0000021E1604FF480612161C4F814A0C4F8A4
:1058D00018A0C4F81CB00C9820620021616203215A
:1058E000A1624FF40001E162891021632046FBF7B9
:1058F000D3F9BDE8F88F0000303802401060024054
:10590000000D002010640240200D00202DE9F04F12
:1059100087B08046894617461E46DDF840B008F03D
:10592000F00000F00F01002975D100110A2872D291
:10593000DFE800F0A80517293B4D5F728496BD4C47
:1059400000BF00200190BC48006840F00100BA4947
:1059500008600846006800F00100019000BF00BF29
:1059600094E0B64C00BF00200190B348006840F0BE
:105970000200B14908600846006800F0020001908A
:1059800000BF00BF82E0AE4C00BF00200190AA48DB
:10599000006840F00400A84908600846006800F06C
:1059A0000400019000BF00BF70E0A64C00BF0020C3
:1059B0000190A148006840F008009F49086008462F
:1059C000006800F00800019000BF00BF5EE09E4C40
:1059D00000BF002001909848006840F010009649F0
:1059E00008600846006800F01000019000BF00BF8A
:1059F0004CE0964C00BF002001908F48006840F0BA
:105A000020008D4908600846006800F020000190E1
:105A100000BF00BF3AE035E08D4C00BF0020019090
:105A20008548006840F040008349086008460068E7
:105A300000F04000019000BF00BF27E0854C00BF90
:105A4000002001907C48006840F080007A4908609E
:105A50000846006800F08000019000BF00BF15E01C
:105A60007D4C00BF002001907348006840F48070B6
:105A7000714908600846006800F48070019000BF1A
:105A800000BF03E0002007B0BDE8F08F00BF08F0C2
:105A90000F00102841D2DFE800F0080B0E11141798
:105AA0001A1D2024282C3034383C0120029036E086
:105AB0000220029033E00420029030E0082002909F
:105AC0002DE0102002902AE02020029027E04020C4
:105AD000029024E08020029021E04FF48070029038
