:020000040800F2
:10000000A03500205902000815150008B114000899
:100010001115000849050008613F000800000000B4
:10002000000000000000000000000000FD3E00088D
:10003000B505000800000000D5040008FF3E0008D8
:1000400073020008730200087302000873020008BC
:100050007302000873020008B705000811060008C3
:100060002906000841060008590600087302000826
:10007000730200087302000873020008730200088C
:10008000730200087302000873020008730200087C
:10009000730200087302000873020008710600086A
:1000A000730200087302000873020008730200085C
:1000B000730200087302000873020008730200084C
:1000C000730200087302000873020008730200083C
:1000D000730200087302000873020008730200082C
:1000E000CF050008730200087302000873020008BD
:1000F000730200087302000873020008730200080C
:1001000073020008730200087302000873020008FB
:1001100073020008730200087302000873020008EB
:1001200073020008730200087302000873020008DB
:1001300073020008000000000000000073020008C5
:1001400073020008730200087302000873020008BB
:1001500073020008730200087302000873020008AB
:10016000730200087302000873020008730200089B
:100170007302000873020008000000000000000085
:10018000730200087302000800F002F800F03AF869
:100190000AA090E8000C82448344AAF10107DA45E2
:1001A00001D100F02FF8AFF2090EBAE80F0013F0FA
:1001B000010F18BFFB1A43F001031847D845000090
:1001C000F8450000103A24BF78C878C1FAD8520721
:1001D00024BF30C830C144BF04680C6070470000C1
:1001E0000023002400250026103A28BF78C1FBD840
:1001F000520728BF30C148BF0B6070471FB51FBDF5
:1002000010B510BD00F0E9F81146FFF7F7FF03F055
:10021000C5FE00F007F903B4FFF7F2FF03BC00F0DE
:100220000FF9000072B6704762B67047EFF31080A6
:1002300072B6704780F31088704730BF704720BF98
:100240007047B0FA80F0704790FAA0F0B0FA80F0F2
:10025000704790FAA0F07047094880470948004766
:10026000FEE7FEE7FEE7FEE7FEE7FEE7FEE7FEE766
:10027000FEE7FEE704480549054A064B70470000C3
:100280000D3F000889010008A01D0020A0350020B6
:10029000A0250020A025002053EA020C00F0698070
:1002A0002DE9F04B4FF00006002B1FBFB3FA83F58A
:1002B00003FA05F424FA05F65E4012BF1643B2FABB
:1002C00082F502FA05F4C5F120051EBF22FA05FCED
:1002D00044EA0C04203556EA044C4FEA144418BF93
:1002E000641C4FF000084FF00009904271EB030CC2
:1002F00039D3002919BFB1FA81F701FA07F6B0FA2C
:1003000080F700FA07F6C7F120071EBF20FA07FCA6
:1003100046EA0C062037B6FBF4FCA7EB0507103FB6
:1003200007F01F0BCBF120060CFA0BFB2CFA06F69C
:1003300044BFB3460026202FA4BF5E464FF0000BFB
:100340005BEA060C08BF4FF0010B19EB0B09ABFB86
:10035000027C48EB0608C01B06FB02CC0BFB03CC5F
:1003600071EB0C01C1E70B46024641464846BDE829
:10037000F08B13B54FF000004FF00001AFF3008099
:10038000BDE81C4070474FF0000200B5134694468C
:100390009646203922BFA0E80C50A0E80C50B1F1DD
:1003A0002001BFF4F7AF090728BFA0E80C5048BFF1
:1003B0000CC05DF804EB890028BF40F8042B08BF8F
:1003C000704748BF20F8022B11F0804F18BF00F88B
:1003D000012B7047704770477047754600F02CF846
:1003E000AE4605006946534620F00700854618B022
:1003F00020B5FFF73FFFBDE820404FF000064FF06B
:1004000000074FF000084FF0000B21F00701AC4649
:10041000ACE8C009ACE8C009ACE8C009ACE8C00968
:100420008D46704710B50446AFF300802046BDE806
:100430001040FFF7F0BE000000487047401D00204C
:1004400001491820ABBEFEE72600020070470000FD
:1004500072B64EF62250CEF2000040F2FF01C0F21A
:1004600000010170002080F3098840F2B800C2F258
:100470000000016881F3088802F040F840F23A0079
:10048000C2F2000040F23B01C2F200010A780270A1
:1004900040F2B000C2F2000040F2B401C2F200012A
:1004A0000A680260106880F30988EFF3148040F056
:1004B000020080F31488BFF36F8FBDE8F04F0FBCCC
:1004C000BDE8005006BC62B608471E484FF0805198
:1004D0000160704772B640F2BC02C2F200021168BD
:1004E00081F31188BFF34F8FBFF36F8F62B6EFF3C5
:1004F000098020E9F04F40F2B005C2F200052968FA
:100500000860744601F0FAFF40F23A00C2F20000BF
:1005100040F23B01C2F200010A78027040F2B401DD
:10052000C2F200010A682A6044F0040E1068B0E8C4
:10053000F04F80F3098840F20002C0F2000282F31B
:100540001188704704ED00E000BFFEE710B500F031
:1005500001F810BD10B500200249086000F00AF84B
:1005600010BD000010000020014908607047000025
:100570001000002010B504F00DF80446084800688B
:1005800040F080700649086000200649486008462F
:10059000006840F0010008602046FFF7E5FF10BD4D
:1005A000FCED00E0001000E00148406870470000EA
:1005B000001000E0704710B501F05AF8012000F07B
:1005C000CFF8062000F0ACFA01F068F810BD10B5C5
:1005D00001F04EF84FF4806000F0C2F84FF4006074
:1005E00000F0BEF84FF4805000F0BAF84FF400501D
:1005F00000F0B6F84FF4804000F0B2F84FF400403D
:1006000000F0AEF8282000F08BFA01F047F810BD9A
:1006100010B501F02DF8022000F0A2F8072000F03C
:100620007FFA01F03BF810BD10B501F021F804206D
:1006300000F096F8082000F073FA01F02FF810BDD2
:1006400010B501F015F8082000F08AF8092000F034
:1006500067FA01F023F810BD10B501F009F8102079
:1006600000F07EF80A2000F05BFA01F017F810BDE8
:1006700010B500F0FDFF202000F072F8402000F0DF
:100680006FF8802000F06CF84FF4807000F068F88C
:100690004FF4007000F064F8172000F041FA00F009
:1006A000FDFF10BD70B50546B5F5807F3BD012DC6F
:1006B000102D30D008DC012D25D0022D25D0042DA1
:1006C00025D0082D3FD124E0202D26D0402D26D046
:1006D000802D38D125E0B5F5805F2CD009DCB5F54B
:1006E000007F22D0B5F5806F21D0B5F5006F2AD1FB
:1006F0001FE0B5F5005F20D0B5F5804F1FD0B5F5F0
:10070000004F20D11DE000241FE001241DE0022441
:100710001BE0032419E0042417E0052415E0062457
:1007200013E0072411E008240FE009240DE00A2457
:100730000BE00B2409E00C2407E00D2405E00E2457
:1007400003E00F2401E0102400BF00BF102C04DAE6
:10075000024850F824102846884770BD78050020CC
:1007600010B5044604480068204020B102480460E7
:100770002046FFF797FF10BD143C0140F8B5024634
:100780000B460025002400200021DCE0012606FAAB
:1007900001F51E6806EA0504AC4273D15E68022EBC
:1007A00002D05E68122E13D1CF0802F1200656F84F
:1007B00027004E07F70E0F26BE40B0434F07FF0E2F
:1007C0001E69BE403043CF0802F1200646F82700DC
:1007D00010684F000326BE40B0431E7906F00306A2
:1007E0004F00BE40304310605E68012E08D05E6846
:1007F000022E05D05E68112E02D05E68122E13D133
:1008000090684F000326BE40B0434F00DE68BE40F4
:1008100030439060506801268E40B0431E79C6F385
:1008200000168E4030435060D0684F000326BE4013
:10083000B0434F009E68BE403043D0605E6806F013
:100840008056B6F1805F7DD100BF00260096404EF5
:10085000366846F480463E4F3E603E46366806F4B3
:100860008046009600BF00BF3A4E8F0856F827001A
:100870008E07370F0F26BE40B043374EB24202D12B
:10088000002624E05EE0354EB24201D101261EE092
:10089000334EB24201D1022619E0324EB24201D1AA
:1008A000032614E0304EB24201D104260FE02F4E51
:1008B000B24201D105260AE02D4EB24201D10626F0
:1008C00005E02C4EB24201D1072600E008268F0732
:1008D0003F0FBE4030431F4E8F0846F82700264E7C
:1008E0003068A0435E6806F48036B6F5803F00D1DC
:1008F0002043214E3060361D3068A0435E6806F408
:100900000036B6F5003F00D120431B4E361D306047
:10091000361D3068A0435E6806F48016B6F5801F69
:1009200000D12043144E08363060361D3068A04395
:100930005E6806F40016B6F5001F00D120430E4E87
:100940000C363060491C1029FFF420AFF8BD0000C0
:1009500044380240083801400000024000040240D0
:1009600000080240000C0240001002400014024047
:1009700000180240001C0240003C014042690A404D
:100980008A4202D10A04826100E0816170470AB1A3
:10099000816101E00B048361704700000148006839
:1009A000000C7047002004E0014800687047000018
:1009B000C40000200348006803490978084401493D
:1009C00008607047C4000020CC00002010B50D481E
:1009D000006840F400700B4908600846006840F465
:1009E000806008600846006840F48070086003205A
:1009F00000F0F6F80F2000F007F800F02BF80020C8
:100A000010BD0000003C024070B504460E4800785E
:100A10004FF47A71B1FBF0F00C490968B1FBF0F5C5
:100A2000284600F02BFD08B1012070BD102C07D224
:100A300000222146501E00F095F80548046001E0B0
:100A40000120F2E70020F0E7CC000020C0000020E9
:100A5000C800002000B585B000BF002003902B48DF
:100A6000006840F48040294908600846006800F4A6
:100A70008040039000BF00BF00BF00200390081F0C
:100A8000006840F08050091F08600846006800F0C8
:100A90008050039000BF00BF032000F0A1F80022A7
:100AA00011466FF00B0000F05DF8002211466FF068
:100AB0000A0000F057F8002211466FF0090000F01C
:100AC00051F800221146501F00F04CF80022114648
:100AD000101F00F047F800220F21901E00F042F88E
:100AE00000220821501E00F03DF804A80021084A09
:100AF0000123CDE90032CDE902100B460A4605A1DB
:100B0000064801F07FFD05B000BD000044380240FA
:100B10009D450008546D725F53797300B80500203D
:100B200010B501460846002807DB00F01F0301222C
:100B30009A40034B440943F8242000BF10BD000035
:100B400080E200E001460846002809DB00F01F03B0
:100B500001229A4043099B0003F1E023C3F80021DE
:100B600000BF70472DE9F05F80460D46164600270E
:100B700003F0F8F9074639462A46334601F00700E4
:100B8000C0F1070ABAF1040F02D94FF0040A01E0DC
:100B9000C0F1070AD14600F1040ABAF1070F02D2E8
:100BA0004FF0000A01E0A0F1030AD4464FF0010A19
:100BB0000AFA09FAAAF1010A0AEA020A0AFA0CFA7E
:100BC0004FF0010B0BFA0CFBABF1010B0BEA030B23
:100BD0004AEA0B042146404603F0CCF9BDE8F09FF9
:100BE00000BF00F00702064B19684FF6FF031940DB
:100BF000044B0B4343EA0221014B196000BF7047CD
:100C00000CED00E00000FA0500BF00BF00BF00BF10
:100C100000BFBFF34F8F00BF00BF00BF094800688F
:100C200000F4E06008490843001D0649086000BF61
:100C300000BF00BFBFF34F8F00BF00BF00BF00BFAA
:100C400000BFFDE70CED00E00000FA0570B50446BA
:100C50000D460CB9012070BD5848006800F00F0027
:100C6000A84209D255490D700846006800F00F00EF
:100C7000A84201D00120EEE7207800F0020002280F
:100C80001DD1207800F00400042805D14C480068EC
:100C900040F4E0504A490860207800F00800082835
:100CA00005D14748006840F4604045490860444821
:100CB000006820F0F000A1680843414908602078EE
:100CC00000F00100A8B36068012807D13C4808384B
:100CD0000068C0F34040B8B90120BCE76068022852
:100CE00002D06068032807D1354808380068C0F38F
:100CF000406048B90120AEE7314808380068C0F3C9
:100D0000400008B90120A6E72D48006820F0030044
:100D1000616808432A490860FFF746FE064609E075
:100D2000FFF742FE801B41F28831884202D903203E
:100D300091E707E02248006800F00C006168B0EB22
:100D4000810FEDD11D48006800F00F00A84209D9BD
:100D50001A490D700846006800F00F00A84201D043
:100D6000012078E7207800F00400042807D1144817
:100D7000006820F4E050E1680843114908602078D9
:100D800000F00800082808D10D48006820F46040F1
:100D9000216940EAC1000A49086000F0DFF808490B
:100DA0000968C1F30311074A515CC840064908604D
:100DB0000F20FFF729FE00204DE70000003C024015
:100DC000083802407C470008C000002010B5FFF73B
:100DD000EBFD04465648006840F0010054490860A5
:100DE00006E0FFF7E1FD001B022801D9032010BD3A
:100DF0004F48006800F002000028F2D04C4800681C
:100E000040F080004A490860FFF7CEFD044600200C
:100E100047490831086008E0FFF7C6FD001B41F2B2
:100E20008831884201D90320E1E741480830006851
:100E300000F00C000028EFD1FFF7B6FD04463C4857
:100E4000006820F450203A49086006E0FFF7ACFD46
:100E5000001B642801D90320C9E73548006800F465
:100E600000300028F2D1FFF79FFD044630480068AB
:100E700020F080702E49086006E0FFF795FD001B0A
:100E8000022801D90320B2E72948006800F0007069
:100E90000028F2D1FFF788FD04462548006820F0BD
:100EA00080602349086006E0FFF77EFD001B0228F2
:100EB00001D903209BE71E48006800F0006000286D
:100EC000F2D11C481A49091D08601B481849843191
:100ED000086017480C30006820F4F85014490C31B1
:100EE00008600846006820F4005008600846006862
:100EF00040F41F0008600846006840F400100860D5
:100F00000B487430006820F0010009497431086012
:100F10000846006840F0807008600848084908608A
:100F20000F20FFF771FD08B1012060E700205EE7A8
:100F30000038024010300004003000200024F4008B
:100F4000C000002001200149C864704700004742EA
:100F50000148006870470000C00000202DE9F047FC
:100F6000002400250026A1462548006800F00C005A
:100F700020B1042805D008283AD105E0DFF8849094
:100F800039E0DFF8849036E01D48001F006800F06B
:100F90003F041B48001F006800F4800078B11A4825
:100FA0001749091F0968C1F38811A0FB01700146A8
:100FB000224600233846FFF76FF905460EE0114838
:100FC0000F49091F0968C1F38811A0FB0170014690
:100FD000224600233846FFF75FF905460848001F00
:100FE0000068C0F30140401C4600B5FBF6F902E082
:100FF000DFF8109000BF00BF4846BDE8F087000052
:10100000083802400024F40000127A00F8B50446C3
:101010000CB90120F8BD207800F00100002874D040
:10102000F948006800F00C0004280DD0F64800686C
:1010300000F00C00082813D1F348001F006800F4EA
:101040008000B0F5800F0BD1EF4808380068C0F37E
:101050004040002859D06068002856D10120D9E7C7
:1010600000BF6068B0F5803F08D1E74808380068E5
:1010700040F48030E449083908601EE06068B0F54B
:10108000A02F0DD1E0480838006840F48020DE49E8
:10109000083908600846006840F4803008600CE0B9
:1010A000D9480838006820F48030D74908390860EA
:1010B0000846006820F48020086000BF606890B196
:1010C000FFF772FC054606E0FFF76EFC401B642844
:1010D00001D903209EE7CC4808380068C0F340409F
:1010E0000028F1D011E0FFF75FFC054606E0FFF7AE
:1010F0005BFC401B642801D903208BE7C2480838F9
:101100000068C0F340400028F1D1207800F00200D0
:1011100002285FD1BC48006800F00C0058B1BA4802
:10112000006800F00C0008281CD1B748001F0068B8
:1011300000F48000B0B9B44808380068C0F340003B
:1011400020B1E068012801D0012063E7AE480838EB
:10115000006820F0F800216940EAC100AA49083976
:10116000086037E0E06800B30120A8490860FFF795
:101170001BFC054606E0FFF717FC401B022801D9BF
:10118000032047E7A04808380068C0F34000002863
:10119000F1D09D480838006820F0F800216940EA45
:1011A000C10099490839086014E000209749086097
:1011B000FFF7FAFB054606E0FFF7F6FB401B0228A7
:1011C00001D9032026E7904808380068C0F34000A2
:1011D0000028F1D1207800F0080008282CD160699F
:1011E000A8B101208A490860FFF7DEFB054606E04A
:1011F000FFF7DAFB401B022801D903200AE78248E7
:101200006C300068C0F340000028F1D014E00020EA
:101210007F490860FFF7C8FB054606E0FFF7C4FBFF
:10122000401B022801D90320F4E677486C3000689F
:10123000C0F340000028F1D1207800F00400042819
:1012400070D1002670483830006800F0805090B9A6
:1012500000BF002000906C483830006840F080509B
:101260006949383108600846006800F080500090F5
:1012700000BF00BF01266748006800F48070B0B965
:101280006448006840F4807062490860FFF78CFB96
:10129000054606E0FFF788FB401B022801D9032022
:1012A000B8E65C48006800F480700028F2D000BF07
:1012B000A068012808D154486830006840F0010057
:1012C0005149683108601DE0A06805280DD14E48DD
:1012D0006830006840F004004B49683108600846F7
:1012E000006840F0010008600CE047486830006882
:1012F00020F001004449683108600846006820F089
:101300000400086000BFA068A8B1FFF74DFB0546C8
:1013100009E0FFF749FB401B41F28831884202D9BE
:10132000032077E626E0384868300068C0F34000C4
:101330000028EED013E0FFF737FB054608E0FFF783
:1013400033FB401B41F28831884201D9032061E61A
:101350002D4868300068C0F340000028EFD1012E0E
:1013600007D129483830006820F0805026493831AC
:10137000086000BFA069B8B32348006800F00C0003
:1013800008285ED0A069022846D100201F490866BF
:10139000FFF70AFB054606E0FFF706FB401B0228A5
:1013A00001D9032036E6184808380068C0F34060C9
:1013B0000028F1D1D4E907010843616A40EA8111AC
:1013C0000122A06AC2EB500041EA00412C20005DDE
:1013D00041EA00600C49091F086001200B490866BA
:1013E000FFF7E2FA054607E02DE0FFF7DDFA401BC4
:1013F000022801D903200DE6034808380068C0F32D
:1014000040600028F1D01EE008380240000047424A
:10141000800E47420070004000200C490866FFF72C
:10142000C3FA054606E0FFF7BFFA401B022801D9C0
:101430000320EFE506480068C0F340600028F2D1C1
:1014400001E00120E6E50020E4E50000000047425D
:1014500000380240042808D14FF0E021096941F02A
:1014600004014FF0E022116107E04FF0E02109692B
:1014700021F004014FF0E0221161704770B504467D
:101480002546681EB0F1807F01D301200FE0681E61
:101490004FF0E02148610F214FF0FF3002F06AFD6C
:1014A00000204FF0E021886107200861002070BD16
:1014B00000BFFEE70EB5FFF749F802A800F044FCB4
:1014C0000020012103460A46CDE9001014210E48F0
:1014D00002F050FF0020012103460A46CDE900102A
:1014E0003D210A4802F046FF0121084802F098FF1A
:1014F00009E00221044802F093FF02AA00214FF400
:10150000FA7001F023F8F4E7000000200800002042
:1015100000BFFEE77047704770B5044600F08EF8D4
:101520000020334908703349087033490870334943
:1015300008603349086033490870334908703348FC
:10154000056845B13248066803E0761E0020286031
:101550002D1D002EF9D100202E49087001F026FC27
:1015600001F064FC00202C4908602C4908802046CA
:1015700001F03CFA208800B170BD204601F042FA2B
:10158000208800B1F8E70020254908602549088037
:1015900025490860254908802549086025490880B3
:1015A000204601F0ABFF208800B1E5E7204601F0BE
:1015B000E5F9208800B1DFE7204602F00DF8208829
:1015C00000B1D9E7204601F065FE208800B1D3E7DD
:1015D000204602F0A1FA208800B1CDE701F09CF886
:1015E000FFF799FF01201449087000BFC4E700000D
:1015F00018000020190000204A000020B000002040
:10160000B40000203A0000203B000020C045000844
:10161000C44500087A000020240000202800002093
:101620003400002038000020440000204800002042
:101630004C000020500000201A00002008480068DC
:101640000849096800EB81000749086008460068FE
:1016500020F007000860012004490860704700007E
:10166000C0450008C4450008B8000020BC000020A8
:1016700008480078012800D0704707480078FA2809
:1016800000D3F9E704480078401C0349087000BF04
:10169000F2E70000190000201800002010B5002417
:1016A0002B480078012800D010BD00BFFEF7BEFD1A
:1016B000044600BF2748007828B900BF2046FEF73F
:1016C000B9FD00BFF0E723480078401E21490870AB
:1016D0000846007828B100BF2046FEF7ABFD00BFEA
:1016E000E2E71D48007828B100BF2046FEF7A2FDC2
:1016F00000BFD9E701F046FB18490870084600789A
:1017000000EB4000164951F82000164908600846D1
:10171000006815490968884205D100BF2046FEF7D8
:1017200089FD00BFC0E70F480068806F401C0D496D
:10173000096888670D480068401C0C490860FEF77E
:10174000C4FE00BF2046FEF775FD00BF00BFABE73B
:1017500019000020180000204A0000203B00002053
:101760009C180020B4000020B00000207000002071
:101770002DE9F04104460E461546002700BF00BF84
:10178000FEF754FD074600BF00BF18492068884295
:101790000BD100BF00BF3846FEF74CFD00BF00BFB5
:1017A00045F6C1502880BDE8F08110482060666091
:1017B00000202062606284F82800E06204F10800E2
:1017C00001F02BFA204601F04BF909480088401C33
:1017D0000749088000BF00BF3846FEF72BFD00BF59
:1017E00000BF0020288000BFDDE700004D555458A1
:1017F000380000202DE9F0470546884691461C46F2
:10180000089E4FF0000A00BF00BFFEF70FFD8246A2
:1018100000BF00BF95F82800C0B962480068686240
:10182000012085F828000CB1E86A206029465D484F
:10183000006801F02DF900BF00BF5046FEF7FAFC2A
:1018400000BF00BF00203080BDE8F0875549686ABE
:101850000968884221D195F82800FF280AD100BFE5
:1018600000BF5046FEF7E6FC00BF00BF45F28470A3
:101870003080E9E795F82800401C85F828000CB175
:10188000E86A206000BF00BF5046FEF7D3FC00BFEF
:1018900000BF45F282703080D6E709F4004068B19D
:1018A00000BF00BF5046FEF7C5FC00BF00BF0CB133
:1018B0000020206046F2B0103080C5E73A4800783A
:1018C00068B100BF00BF5046FEF7B4FC00BF00BFC8
:1018D0000CB10020206046F663503080B4E76F6A98
:1018E00097F83B002F49096891F83B10884206DDC4
:1018F0002C48006890F83B10384601F051FD4346F3
:10190000042228480168284601F018F900BF00BFEA
:101910005046FEF78FFC00BF00BF00F0EFF800BF9D
:1019200000BFFEF783FC824600BF00BF1D48006871
:1019300090F8390030B101280CD002281AD00328C1
:1019400021D110E01CB117480068C06C2060002055
:1019500030801CE01CB113480068C06C206046F267
:10196000A910308013E00CB10020206047F2D9208C
:1019700030800CE01CB10B480068C06C206045F65C
:10198000C250308003E046F62E60308000BF00BFBA
:1019900000BF00BF5046FEF74DFC00BF00BF00BFB8
:1019A00052E70000B00000204A0000202DE9F84F67
:1019B00004468A4616464FF0000B00BF00BFFEF7F4
:1019C00035FC834600BF00BF4A49606A0968884207
:1019D0000BD000BF00BF5846FEF72CFC00BF00BF75
:1019E00045F281703080BDE8F88FFEF7DDFD80465E
:1019F0002834C4F804802078401E207014F8280988
:101A000050B100BF00BF5846FEF714FC00BF00BF36
:101A100045F283703080E6E721463648006801F0E1
:101A20007FF804F10809D9F8000068B90020606265
:101A300084F8280000BF00BF5846FEF7FBFB00BF3C
:101A400000BF00203080CEE72A48006890F83B00B5
:101A50002849096891F83C10884228D02548006838
:101A600001F049F805462348006890F83C10A94267
:101A700004DA2048006890F83C0000E0284605465B
:101A80001C48006890F83B00A84210DA194800682A
:101A900001F032FA1748006880F83B50284601F000
:101AA00091F91448006801F009FA13480570D9F853
:101AB00000706762012084F828002146384600F053
:101AC000E7FF00231A4639462046CDF8008001F092
:101AD00003F900BF00BF5846FEF7ACFB00BF00BFD4
:101AE0000AF4004008B900F009F80020308000BF77
:101AF00079E70000B00000203A00002010B5002473
:101B00001E48007800B110BD1D48007800B1FAE70A
:101B100000BFFEF78BFB044600BF01F033F9194903
:101B200008700846007800EB4000174951F8200083
:101B3000164908600846006815490968884205D1B9
:101B400000BF2046FEF776FB00BFDCE70F480068C9
:101B5000806F401C0D49096888670E480068401C6A
:101B60000C490860FEF7B1FC00BF2046FEF762FB9F
:101B700000BFBFF36F8F00BFC5E700001800002053
:101B80004A0000203B0000209C180020B4000020E8
:101B9000B00000207000002070B504461C4800789A
:101BA000012803D045F68B60208070BD00256D1C98
:101BB0006D1C6D1C17480088A84203DC45F68C603C
:101BC0002080F2E714480078E8B901F0DBF8134907
:101BD000087008460078124908701048007800EB39
:101BE0004000104951F820000F490860084600687D
:101BF0000E490860012008490870FEF729FC43F6E9
:101C00009920208002E045F68A60208000BFCCE762
:101C10001A00002078000020190000203B0000205E
:101C20003A0000209C180020B4000020B0000020E2
:101C30002DE9F04106464FF0000800BF00BFFEF757
:101C4000F5FA804600BF00BF0020364908803649BB
:101C500008603649086036490860364908603649E8
:101C600008603649088100BF00BF4046FEF7E2FA2F
:101C700000BF00BF00BF00BFFEF7D8FA804600BF1C
:101C800000BF2F48046800BF00BF4046FEF7D2FAED
:101C900000BF00BF1AE000BF00BFFEF7C7FA8046D2
:101CA00000BF00BF00207434E0616060208060806D
:101CB00020616061FEF778FCE060E06A044600BFE6
:101CC00000BF4046FEF7B6FA00BF00BF002CE2D1CD
:101CD00000BF00BFFEF7AAFA804600BF00BF194848
:101CE000056800BF00BF4046FEF7A4FA00BF00BF72
:101CF00012E000BF00BFFEF799FA804600BF00BFA8
:101D000005F120070020B881AD6900BF00BF404643
:101D1000FEF790FA00BF00BF002DEAD1002030800E
:101D2000BDE8F081560000206C00002088000020F3
:101D30008C000020A0000020A400002090180020AB
:101D40007400002044000020F8B50446002600205E
:101D500000906946324800F019FBBDF8000018B148
:101D6000BDF800002080F8BD6A460021022000F086
:101D7000EDFBBDF8000018B1BDF800002080F2E7CF
:101D800000BF00BFFEF752FA064600BF00BF0020AA
:101D90002449086000BF00BF3046FEF74BFA00BF81
:101DA00000BF00252048006820490968884205D9FD
:101DB0001D4800681D490968B0FBF1F525B91A48AE
:101DC00000680A21B0FBF1F56A460021284600F0C0
:101DD000BDFB6946124800F096F9BDF8000018B145
:101DE000BDF800002080BEE700BF00BFFEF71EFA6E
:101DF000064600BF00BF00200D4908600948006882
:101E00000C49086001200C49087000BF00BF304633
:101E1000FEF710FA00BF00BF0020208000BFA2E73D
:101E2000981C002058000020F4450008DC450008FC
:101E30006C0000205C00002064000020704700005F
:101E40002DE9FF4F85B004469146DDF854B0DDE939
:101E500012A5199E00200290BAF13F0F09D1464801
:101E6000844206D046F273211A98018009B0BDE879
:101E7000F08F204601F052FB00211A98018006F0F5
:101E8000010010B906F0020078B106F0020060B15E
:101E90002F460020049005E0002038603F1D049884
:101EA000401C049004985845F6D3149805EB800024
:101EB0000390CDE900B62A464846039B089900F0F6
:101EC000FDF90746AF4204D246F632611A98018006
:101ED000CCE7C4F824900898A0620698E06084F8E3
:101EE0003BA084F83CA027600398A060189860602D
:101EF0002562C4F844B0A4F848604FF0000808E038
:101F0000002104F1640040F8281008F1010000F0FD
:101F1000FF08B8F1000FF3D0204600F033F800BFFF
:101F200000BFFEF783F9029000BF00BF94F83B00AA
:101F300000F048FF204600F0C1FF204601F0A4FA5F
:101F40000E480088401C0D4908800D480078012883
:101F500007D000BF00BF0298FEF76CF900BF00BFBA
:101F600084E700BF00BF0298FEF764F900BF00BF1E
:101F7000FFF7C4FD00BF79E7E817002078000020D4
:101F800019000020704700002DE9F04104460E467C
:101F90004FF000085848844204D147F24C1030807A
:101FA000BDE8F0817CB900BF00BFFEF73FF9804675
:101FB00000BF00BF5148046800BF00BF4046FEF7A5
:101FC00039F900BF00BF00BF00BFFEF72FF9804600
:101FD00000BF00BF94F83A0008285ED2DFE800F0A6
:101FE00004090E10080A0F11204600F085FF5FE07B
:101FF0005EE000BF204601F099FB59E000BF00BF42
:1020000000BF94F83800082839D2DFE800F0040750
:1020100005380D08090600BF00BF31E000BF00BF52
:10202000204600F032FE2BE0606B456A15F83B7FDE
:10203000204600F02AFE287869783B3D884212D07D
:1020400095F83B0094F83B1088420CD1284600F0EC
:1020500052FD074695F83C00B84202DA95F83C007C
:1020600000E038460746002084F8380095F83B0029
:10207000B84203D03946284601F092F900E000BF8B
:1020800000BF94F83A00032803D094F83A000728D8
:1020900002D1204601F04AFB0AE000BF00BF4046E3
:1020A000FEF7C8F800BF00BF46F62D60308077E726
:1020B00000BF206C10B1204600F0EEFC204600F07E
:1020C00021F8204601F0F8F90D480088401E0C491F
:1020D0000880204601F022FAFF2084F83A00002010
:1020E000308000BF00BF4046FEF7A4F800BF00BF2D
:1020F000FFF704FD00BF53E7E8170020B000002001
:1021000078000020704770B504460D46002600BFD9
:1021100000BFFEF78BF8064600BF00BF00202880F6
:1021200094F83A0008285ED2DFE800F004050607BC
:102130001227394B00BF00BF00BF00BF00BF3046B1
:10214000FEF778F800BF00BF47F25310288055E033
:1021500014F8720F401E207014F8720928B900207C
:1021600084F83A00204600F073FE00BF00BF3046FE
:10217000FEF760F800BF00BF40E014F8720F401E89
:10218000207014F8720910B9012084F83A0000BFD9
:1021900000BF3046FEF74EF800BF00BF2EE014F837
:1021A000720F401E207014F8720910B9022084F8D2
:1021B0003A0000BF00BF3046FEF73CF800BF00BF4A
:1021C0001CE014F8720F401E207014F8720910B948
:1021D000032084F83A0000BF00BF3046FEF72AF81B
:1021E00000BF00BF0AE000BF00BF3046FEF722F884
:1021F00000BF00BF46F62D60288070BD00BFFFF70E
:102200007DFC00BFF9E770472DE9F05F04460E46FC
:10221000174698464FF0000B00BF00BFFEF706F8C8
:10222000834600BF00BF0CB923480468206878B912
:1022300000BF00BF5846FDF7FDFF00BF00BF0020F4
:102240003060386047F25210A8F80000BDE8F09FF7
:1022500094F8480000F0010070B900BF00BF584674
:10226000FDF7E8FF00BF00BF00203060386047F294
:102270005410A8F80000E9E7D4F820A0D4F844905E
:1022800000BF00BF5846FDF7D5FF00BF00BF0025C7
:1022900002E00AF1040A6D1C4D4503D2DAF8000091
:1022A0000028F6D03560A9EB050038600020A8F8BA
:1022B000000000BFCAE70000B0000020F0B50446EF
:1022C000DDE9055602EB850020F007004FF0807C29
:1022D000071F3846C7F800C0071F38463C60DFF8C4
:1022E000A8C0071F3846C7F800C04FF0123C071FB0
:1022F0003846C7F800C04FF0033C071F3846C7F800
:1023000000C04FF0023C071F3846C7F800C0071F47
:1023100038463B60071F384639606FF0020C071FD4
:102320003846C7F800C04FF0113C071F3846C7F8C1
:1023300000C04FF0103C071F3846C7F800C04FF0F0
:10234000093C071F3846C7F800C04FF0083C071F7C
:102350003846C7F800C04FF0073C071F3846C7F89B
:1023600000C04FF0063C071F3846C7F800C04FF0CA
:10237000053C071F3846C7F800C04FF0043C071F54
:102380003846C7F800C0F0BDC135000870B5044636
:102390000D4600265548844203D147F25B10288041
:1023A00070BD00BF00BFFDF741FF064600BF00BF84
:1023B00084B94F48007801280AD000BF00BF3046DA
:1023C000FDF738FF00BF00BF45F689602880E7E7CA
:1023D000484804684748006884420DD14648007860
:1023E00050B100BF00BF3046FDF724FF00BF00BF63
:1023F00046F663502880D3E70020288094F83A00FE
:1024000008285FD2DFE800F0041523313F40414245
:10241000042084F83A00012084F87200204600F07D
:102420006BFD00BF00BF3046FDF704FF00BF00BFDB
:1024300053E0052084F83A00012084F8720000BFC0
:1024400000BF3046FDF7F6FE00BF00BF45E00620A6
:1024500084F83A00012084F8720000BF00BF3046C3
:10246000FDF7E8FE00BF00BF37E0072084F83A0020
:10247000012084F8720000BF00BF3046FDF7DAFE8D
:1024800000BF00BF29E000BF00BF00BF94F872008A
:10249000FF280AD100BF00BF3046FDF7CBFE00BFCA
:1024A00000BF47F2601028807AE794F87200401C61
:1024B00084F8720000BF00BF3046FDF7BBFE00BFCE
:1024C00000BF0AE000BF00BF3046FDF7B3FE00BF0B
:1024D00000BF46F62D60288062E700BF0448007800
:1024E000012801D1FFF70AFB00BF59E7E8170020D8
:1024F00019000020B00000204A00002010B5FEF7AF
:1025000053F804460F4800680F490968884213D001
:102510000C480068D0F88000201A0A490968C8678A
:1025200008480068D0F8840006490968C96F084463
:1025300004490968C1F8840003480068C0F8804075
:1025400010BD0000B0000020B40000202DE9F041D3
:1025500006460D46144600271F48007820B146F66F
:1025600063502080BDE8F08135B1022D05D0042DE7
:1025700005D0082D04D101E000BF00BF00BF03E07B
:1025800045F625602080EDE700BF00BF00BFFDF7E6
:102590004DFE074600BF00BF23462A4631460F487E
:1025A000006801F07DF8208838B100BF00BF3846D0
:1025B000FDF740FE00BF00BFD4E70848006800F008
:1025C0009BFC00BF00BF3846FDF734FE00BF00BFD4
:1025D000FFF794FA00BFC5E74A000020B0000020D2
:1025E00010B506480078012800D010BD00F008F8AA
:1025F000012001F065F900BFF7E700001900002095
:10260000704700002DE9F05F04460D4616461F4650
:10261000DDE90BABDDF82890DDF834802048007848
:10262000012801D101F064FB012084F826001D4936
:10263000206888420BD11A480078012801D101F0A6
:1026400053FC45F6C150A8F80000BDE8F09F1548BE
:1026500020606560144800687043E0610020A0615C
:102660001148006878432062A4F82490C4F808A0B8
:10267000C4F80CB0002020616061204601F038FAF7
:102680000A480088401C094908800548007801284C
:1026900001D101F029FC0020A8F8000000BFD4E718
:1026A00019000020544D5220AC0000209C00002056
:1026B00010B5002400BF00BFFDF7B8FD044600BF01
:1026C00000BFFEF7D5FF00BF00BF2046FDF7B2FDFB
:1026D00000BF00BFFFF784FFFEF7E0FF10BD000062
:1026E00010B5014601224B1E4FF0E0246361094BF7
:1026F000186820F07F4040EA0260186023461B699A
:1027000043F00503236123461B6943F00203236161
:1027100010BD000020ED00E00EB54648029046488E
:10272000009046480290464802904648009046482D
:10273000029046480190464802904648029046481A
:10274000029046480290464801904648019046480B
:1027500001904648029046480190464802904648FB
:1027600001904648019046480190464801904648ED
:1027700002904648029046480290464801904648DA
:1027800002904648019046480190464801904648CC
:1027900001904648019046480190464802904648BC
:1027A00002904648029046480290464801904648AA
:1027B000019046480190464802904648029046489B
:1027C000029046480190464801904648019046488C
:1027D000009046480190464802904648029046487C
:1027E0000290464802904648029046480290464869
:1027F000029046480190464802904648029046485A
:10280000019046480190464802904648029046484A
:10281000019046480190464802904648029046483A
:10282000019046480190029802900198019000980A
:1028300000900EBD144600087847000815460008B1
:1028400016460008184600081C46000820460008E6
:102850001D46000848460008494600084A46000848
:102860004C4600084E4600085046000870460008D6
:10287000724600087446000876460008784600084C
:102880007A4600087C460008AC460008AD460008C1
:10289000AE460008B0460008B2460008B44600083C
:1028A000B6460008B8460008BA460008BC4600080C
:1028B000C0460008F0460008F1460008F24600084D
:1028C000F3460008F4460008F6460008F8460008FB
:1028D0002047000821470008224700082347000836
:1028E0002447000826470008284700082C4700080E
:1028F0002D4700082E4700082F47000830470008E2
:1029000031470008324700083347000834470008C1
:102910003647000837470008384700083A4700089C
:102920003C4700083D4700083E4700084047000874
:102930007047000871470008724700087447000894
:10294000002400BF00BF00BFFDF770FC044600BFBD
:1029500000BF08480068401C064908600648006837
:10296000401C0549086000BF00BF2046FDF762FC1F
:1029700000BFE7E7140000205800002010B58AB01F
:10298000044600200E4908600B2000210591CDE986
:102990000704069108460B4909680B4A12680B4B5D
:1029A0001B68CDE90132CDE903103F200023084A1E
:1029B00008A100900C48FFF743FA0AB010BD0000D0
:1029C00014000020B8450008B4450008B0450008D0
:1029D0004129000875432F4F532D49494920496427
:1029E0006C65205461736B00E81700200021034AD6
:1029F0001160034A11800180704700002C00002004
:102A00003000002070B50246124D28682968103148
:102A1000114D2D886D1EACB2002308E00160002529
:102A200045600581C560103010315D1CABB2A3421A
:102A3000F4DB0025056045600581C560054D2D6806
:102A4000064E3560044D2D88B5800025F580358112
:102A5000158070BDD4450008CC45000890180020B2
:102A600009A1C161002141610849096811B900212A
:102A7000816105E005490968816104490968486187
:102A80000249086070470000200000003400002068
:102A9000026C0A62016470472DE9F84305462C6C0C
:102AA00025E0D4F82090FDF77FFD8046C4F82C8007
:102AB0002146284600F034F804F10806306820B9B1
:102AC000002084F82800606210E037686562012009
:102AD00084F8280021463846FFF7DAFF00231A461B
:102AE00039462046CDF8008000F0F6F84C46002C20
:102AF000D7D1BDE8F88330B504463F2004F140014A
:102B00000AE00D68AB6823B193F83B20824200DAFB
:102B100010460D6805F120010D68002DF1D130BD82
:102B2000024602F1400002E0036803F1200003685E
:102B30008B42F9D103681B6A036070472DE9F041AD
:102B400005460C4616461F4684F83860002084F877
:102B500039003946204600F00BFC3DB105F108086C
:102B600065632146404600F05DF801E000206063A7
:102B70002146284600F002F8BDE8F08110B540B1CA
:102B80004468C1F8A44000F108031A68D468C4611D
:102B900013E091F83840022C02D0072C08D103E052
:102BA00006A4C1F8A44007E006A4C1F8A44003E0CD
:102BB00007A4C1F8A44000BF00BF10BD5461736BEF
:102BC000205100005461736B2053656D00000000BC
:102BD0002000000010B50A4606A4C2F8A44040B187
:102BE00000F10803196811B1CC68C46101E001A4C7
:102BF000C46110BD2000000070B50446666B06F18C
:102C000008052868C06A38B1204600F03EF86663BF
:102C10002146284600F006F870BD002101604160A1
:102C20000181704710B591F83B3004683CB901242C
:102C300004810024CC620C630160416024E00489BB
:102C4000641C0481026805E092F83B409C4200DD70
:102C500002E0D26A002AF7D100BF3AB90024CC6260
:102C600044680C630C6BE16241600DE0146B2CB99D
:102C7000CA6200240C631163016005E0CA62146B30
:102C80000C630C6BE162116310BD10B5446B14B39F
:102C9000446B04F108010C68E46A1CB900240C6060
:102CA0004C6011E0046B24B9C26A002414630A600A
:102CB0000AE0C46A24B9036B0024DC624B6003E0C1
:102CC000036BC26ADA6213630C89641E0C810024F0
:102CD000C4620463446310BD2DE9F04105460C460F
:102CE00016461F46DDF8188094F83A00082845D2A9
:102CF000DFE800F0040508090607272800BF00BF29
:102D000000BF3CE000BFE665A4F86070C4F84C80EA
:102D100015B12046FFF7B9FF21462846FFF75AFFB5
:102D200094F83A00032802D1204600F0FFFC204628
:102D300000F08EF800203834A070607004F8380974
:102D40001DE000BFE665A4F86070C4F84C8015B1C2
:102D50002046FFF79AFF21462846FFF73BFF94F8ED
:102D60003A00072802D1204600F0E0FC0420383465
:102D7000A0700020607004F8380900E000BF00BFB8
:102D8000BDE8F08110B50848006830B906494868C8
:102D9000FDF757FA2030C0B210BD03490868FDF7AF
:102DA00050FAC0B2F8E700003C000020002004E028
:102DB0000021034A42F82010401C0228F8D3704733
:102DC0003C000020202809D20A490968C0F11F03ED
:102DD00001229A401143074A11600AE005494968F7
:102DE000A0F12002C2F11F0301229A401143014ABF
:102DF000516070473C000020202809D20A49096828
:102E0000C0F11F0301229A409143074A11600AE072
:102E100005494968A0F12002C2F11F0301229A402E
:102E20009143014A516070473C000020002109E0B5
:102E300001EB4102054B03EB82000022028102609C
:102E40004260491C4029F3D3704700009C180020C1
:102E500010B5044694F83B00FFF7B4FF94F83B002C
:102E600005490978884203D1204600F027F802E09E
:102E7000204600F003F810BD3A00002010B590F88D
:102E80003B3003EB43030C4C04EB83010B683BB971
:102E900001230B810023036143610860486009E05E
:102EA0000B895B1C0B810B680361002343610A687B
:102EB0005061086010BD00009C18002010B590F80B
:102EC0003B3003EB43030B4C04EB83010B683BB932
:102ED00001230B810023036143610860486008E01F
:102EE0000B895B1C0B81002303614A6842611061FE
:102EF000486010BD9C1800202DE9F041054695F86A
:102F00003B0000EB4000124901EB80046F692E6921
:102F100087B946B9002020812060606095F83B00A9
:102F2000FFF76AFF0EE02089401E208100207061BB
:102F3000266007E02089401E20813E610EB967604F
:102F400000E07761002068612861BDE8F081000041
:102F50009C18002088B00020009006E0B94909685C
:102F6000480002AA0021FFF7F1FAB74800780128CB
:102F7000F4D102A8FEF75CFE4FF00008B3480068E9
:102F8000B0490968884205D9B0480068AD49096868
:102F9000B0FBF1F8B8F1000F04D1AC4800680A2189
:102FA000B0FBF1F800BFFDF7FFFA814600BF00BF9C
:102FB000FDF73CF9009000BF00BFA5480068A54997
:102FC00008600020A249086000BF00BF0098FDF71C
:102FD00031F900BF00BFA04800689E4909688842D7
:102FE00048D99D4800689D49884205D242F2107038
:102FF00004900120039023E0974800689849884294
:1030000005D24FF47A7004900A20039018E0924899
:1030100000689449884203D26420049003900FE032
:103020008D4800689049884205D20A2004904FF4E8
:103030007A70039004E00120049042F21070039033
:10304000854801680398B1FBF0FA82490498096841
:103050004843B0FBFAF042F21071081A8349088025
:10306000834800880988884207DA804800888049B8
:10307000088002E000207D490880FEF7DFFE002581
:1030800000BF00BFFDF7D2F8009000BF00BF794835
:10309000046800BF00BF0098FDF7CCF800BF00BF78
:1030A00026E000BF00BFFDF7C1F8009000BF00BFE1
:1030B00054F8840F6060002044F8840900BF00BF0A
:1030C0000098FDF7B7F800BF00BFD4F888000544AA
:1030D00000BF00BFFDF7AAF8009000BF00BFD4F802
:1030E000A04000BF00BF0098FDF7A4F800BF00BFDC
:1030F000002CD6D15DB35948854205D242F21070FA
:103100000690012007901DE05548854205D24FF4F6
:103110007A7006900A20079014E05248854203D244
:103120006420069007900DE04F48854205D20A20A2
:1031300006904FF47A70079004E00120069042F266
:10314000107007900798B5FBF0F0059003E00020A1
:1031500006900120059000BF00BFFDF767F80090C2
:1031600000BF00BF4348046800BF00BF0098FDF7E0
:1031700061F800BF00BF2BE0D4F8880006994843EF
:103180000599B0FBF1F086B242F21070864200D988
:103190000646A4F87460B4F87600B04201DAA4F8E8
:1031A000766002AB04F19402111D2046FFF72CF863
:1031B00000BF00BFFDF73AF8009000BF00BFD4F891
:1031C000A04000BF00BF0098FDF734F800BF00BF6B
:1031D000002CD1D100272848D0F800B0274800683B
:1031E000019002E00BF1040B7F1CDBF8000010B92A
:1031F00001988742F6D32248076020480068C01B28
:103200002049086020480078012805D100201E4987
:10321000087002A8FEF70CFDFDF7C6F9A0EB090047
:103220001A4908601A4800680968884203D217489A
:1032300000681749086002AA00214046FFF786F996
:10324000B1E60000DC45000864000020F4450008F9
:1032500058000020600000205C000020801A06005A
:1032600000093D00005A62020084D7175400002074
:103270005600002074000020C0450008C445000826
:103280001C000020200000205200002068000020C8
:103290006C00002010B58AB0044600202149086067
:1032A00021490860214908602149087021490870B6
:1032B00021490860214908602148006820B946F684
:1032C0002B6020800AB010BD1E4800681E490968A6
:1032D000884203D246F62C602080F3E71B48007832
:1032E0003F2803D346F62A602080EBE70320002125
:1032F0000591CDE907040691084612490A68144968
:1033000009680F4B1B68CDE90131CDE903200F4857
:10331000007800230F4A10A100901448FEF790FD9A
:1033200000BFCFE758000020600000205C000020B4
:1033300064000020520000201C000020200000201B
:10334000E0450008E8450008F0450008D8450008B9
:10335000E4450008552F000875432F4F532D494968
:10336000492053746174205461736B009C1B0020CE
:1033700070B504460D4655B12B4608480021026839
:10338000204600F037F9032084F83A0002E00220DA
:1033900084F83A002046FFF7AFFD70BD7C000020A6
:1033A0002DE9F04104460D4600BF002694F83B701D
:1033B00094F83A0008285DD2DFE800F004191E1FD7
:1033C0001A1B20212046FFF797FD84F83B5094F804
:1033D0003B00FFF7F7FC2B480068844203D12046EE
:1033E000FFF74CFD02E02046FFF768FD44E000BF18
:1033F00000BF84F83B503FE000BF00BF00BF84F82F
:103400003B5094F8380008282FD2DFE800F02E0453
:103410002F2E0A05063000BF00BF2046FFF7ECFB49
:1034200026E02046FFF7E8FB606B466AAF4205DD09
:1034300096F83B00A84217DC002615E096F83B0002
:10344000B84211D13046FFF756FB054696F83C00CE
:10345000A84202DA96F83C0000E02846054696F8B5
:103460003B00A84200D1002602E000BF00BF00BF21
:1034700000BF01E0BDE8F08100BF3446002C94D1CC
:1034800000BFF7E7B00000200021C0F89C100949F8
:10349000096819B90021C0F8A01007E005490968BA
:1034A000C0F8A01003490968C1F89C0001490860F0
:1034B0007047000074000020D0F89C20D0F8A010C5
:1034C0004AB90D4B196011B10023C1F89C3000239B
:1034D000C0F8A0300FE029B90023C2F8A030C0F82E
:1034E0009C3008E0C2F8A010C1F89C200023C0F86E
:1034F000A030C0F89C307047740000200021044ABE
:103500001160044A1180044A116001807047000074
:1035100074000020780000207000002070B5044680
:1035200000202060A060606020616061A061E061B7
:1035300020A0E060002020626062A062E064E0659C
:10354000A4F86000A066A4F87000E066002506E01C
:10355000002104F1640040F82510681CC5B2002D5C
:10356000F6D000202C34606220666066A06184F88A
:103570004600E066A066A083A062E062A4F848006E
:10358000A4F84A00E0642065FDF70EF860650020AD
:10359000A06520606060A06020736073A07340200D
:1035A000E0732074002060612067606703A0A0675B
:1035B0002C3C70BD3F5461736B0000002000000084
:1035C00008B504480068FEF71EFE69460020FEF7B5
:1035D000DBFC08BDB000002000210180034A11601F
:1035E000034A11609180D180704700007C00002068
:1035F000800000202DE9F04304460F46944698468B
:1036000008EB0C00DFF89090D9F80090B944A0EBDB
:1036100009021AB900206065BDE8F0831F4B1868E5
:1036200038B962650020A061E0611C6001209880CB
:10363000F2E79888401C98801968486DC61BB24212
:103640000BD2C86948B96265B01A48650020E061CC
:10365000A161CC611C600120DEE7921B0D46A969C7
:1036600003E0486D121A0D46896911B1486D904208
:10367000F7D949B1CD696265E561A161486D801AEC
:103680004865CC61AC6104E06265E5610020A06141
:10369000AC610120C0E700007C0000208000002019
:1036A0002DE9F04F06460C4691461F464FF0000BA1
:1036B000B9F1040F01D1002520E0B9F1080F1BD1A9
:1036C00024B947F27E203880BDE8F08FB56D1648EA
:1036D0000068A0EB0508A0450AD3B8FBF4F004FB92
:1036E0000055B8FBF4F004FB108000B12544B5652B
:1036F000B06D2044B06501E00B48056823462A46BA
:1037000059463046FFF776FF8246BAF1010F05D1E0
:10371000012086F83A000020388002E047F27E203F
:10372000388000BFD0E700007C00002030B5C369BE
:103730008169134A9BB921B90024146094804465BF
:103740001CE00024CC614C6D456D2C444C6511602F
:103750009488641E94800024846144650EE099611D
:1037600021B1CB614C6D456D2C444C650024C46186
:103770009488641E948000248461446530BD0000F8
:10378000800000202DE9F04706464FF000094B4F1E
:103790003C68002C77D0606DB04204D8606D361A5A
:1037A0000020606502E0606D801B60657CE009F1CF
:1037B00001001FFA80F994F83A00012802D0052888
:1037C0000BD106E0002084F83A002046FFF740FBCA
:1037D00051E0042084F83A004DE0002594F83800C8
:1037E000042801D1606B456A0020E065A4F8600000
:1037F000FCF7DAFEE0642046FFF747FA94F83A0057
:10380000032802D007280BD106E02046FFF720FB53
:10381000002084F83A0004E0042084F83A0000E034
:1038200000BF00BF032084F83900002084F838006E
:1038300005B395F83B0095F83C1088421AD095F8EE
:103840003B0094F83B10884214D12846FFF753F907
:10385000804695F83C00404502DA95F83C0000E0CF
:103860004046804695F83B00404503D041462846F7
:10387000FFF796FD00BF00BFA06938603C681CB927
:103880000020B88014E014E0B888401EB880002002
:10389000E061606DB04204D8606D361A002060654A
:1038A00002E0606D801B6065606D00283FF47FAFB3
:1038B00000BFA7F80690BDE8F08700008000002058
:1038C00070B50446002600BF00BFFCF7AFFC0646FB
:1038D00000BF00BF1048006820440F490860FCF793
:1038E00063FE05462046FFF74DFFFCF75DFE401BDB
:1038F0000A4908600A4800680968884203D20748F4
:1039000000680749086000BF00BF3046FCF792FC22
:1039100000BF00BF70BD00007C00002088000020B8
:103920008C00002010B5002400BF00BFFCF77EFC17
:10393000044600BF00BF08480849086008480862FC
:1039400001F10800FFF769F900BF00BF2046FCF74E
:1039500071FC00BF00BF10BD434F4E44441C00200B
:10396000681C0020F8B5002600BF00BFFCF75EFC15
:10397000064600BF00BFFCF717FE04460E48C462AF
:103980000E4D286838B900BF00BF3046FCF752FC26
:1039900000BF00BFF8BD00231A4609490748083890
:1039A0000094FFF799F900BF00BF3046FCF742FCD6
:1039B00000BF00BF00BFEDE7681C00204C1C0020CA
:1039C000981C00202DE9F84307464FF0000800BF7F
:1039D00000BFFCF72BFC804600BF00BFFCF7E4FDF6
:1039E00006463F48C66201463E48FFF799F83C4DFF
:1039F00008353C4890F83B003A4991F83C10884221
:103A00000AD0384890F83C00364981F83B00084617
:103A100090F83C0034490870286828B900203049E3
:103A2000486281F8280010E02C682D48446201208B
:103A30002B4981F828002046FFF72AF800231A4670
:103A4000214627480096FFF747F93B4603222549C0
:103A50002648FFF773F800BF00BF4046FCF7EAFBBB
:103A600000BF00BFFEF74AF800BF00BFFCF7DEFB57
:103A7000804600BF00BF1A48406A80B918491948FB
:103A8000FFF706F8174816494862012081F8280018
:103A900000BF00BF4046FCF7CDFB00BF1DE0104853
:103AA000446A94F83B000F4991F83B10884205DDC9
:103AB0000C4890F83B102046FFF772FC00230422CC
:103AC00008490748FFF73AF800BF00BF4046FCF737
:103AD000B1FB00BF00BFFEF711F8BDE8F88300009E
:103AE000681C0020981C00203A000020441C002084
:103AF000002181620749096811B90021C16205E00E
:103B000004490968C162034909688862014908607B
:103B1000704700009000002010B58AB004460020D5
:103B20002A4908802A4908602A4908602A490880E9
:103B30002A4800682A490968B0FBF1F02949086061
:103B400000202949086029490860224628A12C48FC
:103B5000FDF70EFE208808B10AB010BDFFF7E2FEA7
:103B60002848006818B947F247302080F4E7264813
:103B7000006826490968884203D247F2483020800D
:103B8000EAE7234800783F2803D347F246302080F5
:103B9000E2E70B20002105910A46CDE907040691D2
:103BA000194800681B490968164B1B68CDE90131AB
:103BB000CDE90302164800780023174A17A10090A8
:103BC0001C48FEF73DF900BFC6E700009C0000203E
:103BD000900000209800002094000020F445000888
:103BE000FC450008AC000020A0000020A40000203C
:103BF0004F5320546D72204D75746578000000009D
:103C0000681C00200046000808460008F04500082F
:103C1000F845000804460008093D000875432F4F89
:103C2000532D4949492054696D6572205461736B65
:103C300000000000981C00202DE9F047054688464A
:103C40002848006870B9002028616861254805602F
:103C50000120254908802548C0F80080FFF782FE32
:103C6000BDE8F08720480088401C1F490880A869EB
:103C700040441E490968461A1A480468D4F8189046
:103C80004E4510D2606970B9A9EB0600A061002012
:103C900068612C616561134805601448C0F80080B4
:103CA000FFF760FEDCE7A6EB090627463C6903E068
:103CB000A069361A2746246914B1A069B042F7D921
:103CC0004CB16769AE616F612C61A069801BA06116
:103CD00065613D6104E0AE616F61002028613D6176
:103CE00000BFBDE79800002094000020A80000203D
:103CF0001CB501A800231A46194600900148FDF79B
:103D000079FD1CBD681C00204FF0000AFFF7F0FF92
:103D100000BF3D48006810B94FF0000903E03A4881
:103D20000068D0F818904846FFF74CFE3648006807
:103D300000B9EEE7FCF738FC804600BF00BFFCF797
:103D400075FA824600BF00BF3048076800BF00BF59
:103D50005046FCF76FFA00BF00BF2D4800683D1ABF
:103D60002B480760284804680CE0A069A84204D2E8
:103D7000A0692D1A0020A06103E0A069401BA0618A
:103D8000002524690DB1002CEFD11F48046826E0FE
:103D9000042084F82600A66816B12046E168B047E2
:103DA00094F82600042818D119480168204600F02C
:103DB00035F8A08C022809D184F82600206AA06179
:103DC000134801682046FFF737FF06E000206061D6
:103DD0002061A061032084F826000B48046814B118
:103DE000A0690028D4D0FCF7DFFBA0EB080009494C
:103DF0000860094800680968884203D205480068DD
:103E00000549086085E70000980000207C0000203C
:103E1000A8000020A0000020A40000202DE9F0410F
:103E200005460F46D5F814802C69B8F1000F40D133
:103E300054B900202949086029490880A861294807
:103E40000760FFF78FFD46E025480088401E2449A3
:103E50000880244800683E1A00206061A069A969B2
:103E60000844A0611D4804600EE0A069B04204D27D
:103E7000A069361A0020A06103E0A069801BA06140
:103E80000026A046D8F810400EB1002CEDD1134802
:103E900000688069A969884203D110480068806978
:103EA00018B910480760FFF75DFD00202861A86180
:103EB00011E00B480088401E09490880C8F81040EE
:103EC0002CB1C4F81480A069A9690844A06100203D
:103ED00068612861A861BDE8F081000098000020B9
:103EE00094000020A800002008B56A46002102487E
:103EF000FDF75CFD08BD0000681C0020704710B590
:103F0000FCF758FDFEF7D4FB10BD00001048006818
:103F100040F001000E49086000200D49083108609A
:103F20000B4800680B490840094908600A48091D08
:103F30000860081F006820F48020091F0860002026
:103F400003490C3108604FF0006004490860704775
:103F500000380240FFFFF6FE1030002408ED00E0BC
:103F600000BFFEE702480068C0F30220704700006F
:103F70000CED00E010B5002804DB0A07130E054A1B
:103F8000135406E00A07140E034A00F00F031B1F28
:103F9000D45410BD00E400E018ED00E010B58AB084
:103FA0001848194908604FF47A71082000F064FA43
:103FB00000F0F0FA4FF47A71B0FBF1F42046FEF70E
:103FC0008FFB09A8FDF7A8FA09A803210022059292
:103FD000CDE90621089010464FF4807119220B4B51
:103FE000CDE90132CDE9031002200023084A09A1DE
:103FF00000900B48FDF724FF09A8FDF7CDFD002038
:104000000AB010BD0000000808ED00E078010020B3
:10401000B51400084D61696E205461736B00000097
:10402000D00000202DE9F04F87B080468946174622
:104030001E46DDF840B008F0F00000F00F01002946
:1040400075D100110A2872D2DFE800F0A8051729FF
:104050003B4D5F728496BD4C00BF00200190BC4870
:10406000006840F00100BA4908600846006800F0A6
:104070000100019000BF00BF94E0B64C00BF0020DB
:104080000190B348006840F00200B149086008465A
:10409000006800F00200019000BF00BF82E0AE4C5B
:1040A00000BF00200190AA48006840F00400A84921
:1040B00008600846006800F00400019000BF00BFDF
:1040C00070E0A64C00BF00200190A148006840F0BD
:1040D00008009F4908600846006800F00800019049
:1040E00000BF00BF5EE09E4C00BF002001909848DA
:1040F000006840F01000964908600846006800F02B
:104100001000019000BF00BF4CE0964C00BF0020A3
:1041100001908F48006840F020008D4908600846F3
:10412000006800F02000019000BF00BF3AE035E0D9
:104130008D4C00BF002001908548006840F0400091
:10414000834908600846006800F04000019000BF05
:1041500000BF27E0854C00BF002001907C4800682C
:1041600040F080007A4908600846006800F080004E
:10417000019000BF00BF15E07D4C00BF0020019002
:104180007348006840F48070714908600846006810
:1041900000F48070019000BF00BF03E0002007B072
:1041A000BDE8F08F00BF08F00F00102841D2DFE813
:1041B00000F0080B0E1114171A1D2024282C30347F
:1041C000383C0120029036E00220029033E00420C7
:1041D000029030E0082002902DE0102002902AE0AA
:1041E0002020029027E04020029024E080200290CE
:1041F00021E04FF4807002901DE04FF400700290B7
:1042000019E04FF48060029015E04FF400600290D6
:1042100011E04FF4805002900DE04FF400500290F6
:1042200009E04FF48040029005E04FF40040029016
:1042300001E00020B3E700BFCDF80C901FB1012FC3
:1042400001D0022F01D1049701E0002004902EB18B
:10425000012E03D0022E01D0032E01D1059601E0DC
:1042600002200590CDF818B002A92046FCF786FA86
:1042700009F48030B0F5803F64D14FF0FF0A029816
:10428000B0F5807F42D012DC102838D008DC01283D
:1042900025D0022827D0042829D0082844D12AE094
:1042A000202830D040282FD080283DD12DE0B0F5F7
:1042B000805F32D009DCB0F5007F28D0B0F5806F88
:1042C00029D0B0F5006F2FD126E0B0F5005F25D0E2
:1042D000B0F5804F23D0B0F5004F25D120E04FF04E
:1042E000020A062521E04FF0020A07251DE04FF0E3
:1042F000020A082519E04FF0020A092515E04FF0DF
:10430000020A0A2511E000BF00BF00BF00BF4FF046
:10431000020A172509E000BF00BF00BF00BF00BFB1
:104320004FF0020A282500E000BF00BFBAF1FF0FDE
:1043300007D0002251462846FCF714FC2846FCF71B
:1043400001FC00BF029880B229E700000000024093
:10435000303802400004024000080240000C0240D5
:10436000001002400014024000180240001C0240ED
:10437000002002402DE9F84304460D4616461F462C
:10438000DDE9088905F0F00000F00F0121BB001104
:104390000A2821D2DFE800F02005080B0E111417BF
:1043A0001A1D1648206019E01548206016E01548CF
:1043B000206013E01448206010E0144820600DE0F5
:1043C000134820600AE01348206007E0124820608C
:1043D00004E01248206001E0BDE8F88300BF00203F
:1043E00043463A46314600902846FFF71BFEA08020
:1043F00084F807900120A07100BFEDE700000240A3
:104400000004024000080240000C0240001002407C
:104410000014024000180240001C0240002002402C
:1044200070B504460D46A079012824D1012D0ED186
:10443000E079012805D1A18801222068FCF7A7FABC
:1044400019E0A18800222068FCF7A1FA13E075B9F1
:10445000E079012805D1A18800222068FCF797FAAD
:1044600009E0A18801222068FCF791FA03E0A18805
:104470002068FCF783FA70BD70B592B004460D4613
:10448000302106A8FBF77FFF142101A8FBF77BFF73
:10449000FCF79CFA00BF002000903B48006840F009
:1044A0008050394908600846006800F0805000904C
:1044B00000BF00BF00BF00200090334810380068E4
:1044C00040F080003049103908600846006800F06C
:1044D0008000009000BF00BF00BF002000902B486C
:1044E000006840F48040294908600846006800F4EC
:1044F0008040009000BF00BF01200690000407909C
:104500000120099002200C9041050D910E944FF46A
:10451000A8710F91022110910721119106A8FCF7B3
:1045200075FD10B1012012B070BD0F200190022066
:104530000290002003904FF4A05004904FF480505C
:104540000590042101A8FCF781FB08B10120EAE7EE
:10455000FCF7F8FCFCF722FA41F20101884205D190
:104560000B48006840F4807009490860FCF7F0FCD3
:10457000B0FBF5F63046FCF781FF0420FCF76AFF3C
:1045800062B60020CFE700004038024000700040D3
:10459000003C024010B5FCF7DBFC10BD70B50446D2
:1045A0000D4672B6FCF712FCFCF72EFB70BD000046
:1045B000E8050020190000000001000000040000D0
:1045C000E8090020000100000004000020000000B5
:1045D00000020000E80D00203E0000000A0000007C
:1045E000E80F002019000000000100000004000096
:1045F00040000000E80300003D0000000A00000049
:10460000E813002019000000000100000004000071
:104610000012000001000000785634120001000072
:10462000000000000000000000000000000000008A
:10463000000000000000000000000000000000007A
:10464000000000000000000001000000280004003D
:10465000000000000000000000000000000000005A
:10466000000000000000000000000000000000004A
:1046700001002000010010000C00100000000000EC
:10468000000000000000000000000000000000002A
:10469000000000000000000000000000000000001A
:1046A0000000000000000000000000000101000008
:1046B000300000000C002000400008000400000052
:1046C00000000000000000000000000000000000EA
:1046D00000000000000000000000000000000000DA
:1046E00000000000000000000000000000000000CA
:1046F0000101010030000000000000000000000087
:1047000000000000000000000000000000000000A9
:104710000000000000000000000000000000000099
:104720000101000128000C00000300000401010148
:104730000100000101000001A800080000000000C5
:104740000000000000000000000000000000000069
:104750000000000000000000000000000000000059
:104760000000000000000000000000000000000049
:1047700001003000EF770000ED11000000000000A4
:104780000000000001020304060708090000000001
:1047900001020304B447000800000020D00000001C
:1047A000C401000884480008D0000020D034000074
:1047B000E001000800000000000000000000000010
:1047C00000000000000000000000000000000000E9
:1047D00000000000000000000000000000000000D9
:1047E00000000000000000000000000000000000C9
:1047F00000000000000000000000000000000000B9
:1048000000000000000000000000000000000000A8
:104810000000000000000000000000000000000098
:104820000000000000000000000000000000000088
:104830000000000000000000000000000000000078
:104840000000000000000000000000000000000068
:104850000000000000000000000000000000000058
:104860000000000000000000000000000000000048
:10487000000000000024F400000000001000000010
:044880000100000033
:040000050800018965
:00000001FF
